{
  "contracts/Tree.sol": {
    "Tree": {
      "abi": [
        {
          "inputs": [],
          "stateMutability": "nonpayable",
          "type": "constructor"
        },
        {
          "inputs": [
            {
              "internalType": "string",
              "name": "input",
              "type": "string"
            }
          ],
          "name": "encode",
          "outputs": [
            {
              "internalType": "bytes",
              "name": "",
              "type": "bytes"
            }
          ],
          "stateMutability": "pure",
          "type": "function"
        },
        {
          "inputs": [
            {
              "internalType": "uint256",
              "name": "",
              "type": "uint256"
            }
          ],
          "name": "hashes",
          "outputs": [
            {
              "internalType": "bytes32",
              "name": "",
              "type": "bytes32"
            }
          ],
          "stateMutability": "view",
          "type": "function"
        },
        {
          "inputs": [
            {
              "internalType": "string",
              "name": "input",
              "type": "string"
            }
          ],
          "name": "makeHash",
          "outputs": [
            {
              "internalType": "bytes32",
              "name": "",
              "type": "bytes32"
            }
          ],
          "stateMutability": "pure",
          "type": "function"
        },
        {
          "inputs": [
            {
              "internalType": "string",
              "name": "transaction",
              "type": "string"
            },
            {
              "internalType": "uint256",
              "name": "index",
              "type": "uint256"
            },
            {
              "internalType": "bytes32",
              "name": "root",
              "type": "bytes32"
            },
            {
              "internalType": "bytes32[]",
              "name": "proof",
              "type": "bytes32[]"
            }
          ],
          "name": "verify",
          "outputs": [
            {
              "internalType": "bool",
              "name": "",
              "type": "bool"
            }
          ],
          "stateMutability": "pure",
          "type": "function"
        }
      ],
      "evm": {
        "bytecode": {
          "linkReferences": {},
          "object": "608060405260405180608001604052806040518060400160405280600381526020017f545831000000000000000000000000000000000000000000000000000000000081525081526020016040518060400160405280600381526020017f545832000000000000000000000000000000000000000000000000000000000081525081526020016040518060400160405280600381526020017f545833000000000000000000000000000000000000000000000000000000000081525081526020016040518060400160405280600381526020017f545834000000000000000000000000000000000000000000000000000000000081525081525060019060046200010b9291906200039b565b503480156200011957600080fd5b5060005b60048110156200021e576000620001e26001836004811062000144576200014362000513565b5b018054620001529062000571565b80601f0160208091040260200160405190810160405280929190818152602001828054620001809062000571565b8015620001d15780601f10620001a557610100808354040283529160200191620001d1565b820191906000526020600020905b815481529060010190602001808311620001b357829003601f168201915b50505050506200034f60201b60201c565b908060018154018082558091505060019003906000526020600020016000909190919091505580806200021590620005e0565b9150506200011d565b5060006004905060005b6000821115620003475760005b6001836200024491906200062e565b8110156200031f5760008082846200025d919062000669565b8154811062000271576200027062000513565b5b90600052602060002001546000600184866200028e919062000669565b6200029a919062000669565b81548110620002ae57620002ad62000513565b5b9060005260206000200154604051602001620002cc929190620006f5565b60405160208183030381529060405280519060200120908060018154018082558091505060019003906000526020600020016000909190919091505560028162000317919062000669565b905062000235565b5081816200032e919062000669565b90506002826200033f919062000754565b915062000228565b505062000828565b600062000362826200037060201b60201c565b805190602001209050919050565b6060816040516020016200038591906200080f565b6040516020818303038152906040529050919050565b8260048101928215620003e2579160200282015b82811115620003e1578251829080519060200190620003d0929190620003f5565b5091602001919060010190620003af565b5b509050620003f1919062000486565b5090565b828054620004039062000571565b90600052602060002090601f01602090048101928262000427576000855562000473565b82601f106200044257805160ff191683800117855562000473565b8280016001018555821562000473579182015b828111156200047257825182559160200191906001019062000455565b5b509050620004829190620004ae565b5090565b5b80821115620004aa5760008181620004a09190620004cd565b5060010162000487565b5090565b5b80821115620004c9576000816000905550600101620004af565b5090565b508054620004db9062000571565b6000825580601f10620004ef575062000510565b601f0160209004906000526020600020908101906200050f9190620004ae565b5b50565b7f4e487b7100000000000000000000000000000000000000000000000000000000600052603260045260246000fd5b7f4e487b7100000000000000000000000000000000000000000000000000000000600052602260045260246000fd5b600060028204905060018216806200058a57607f821691505b60208210811415620005a157620005a062000542565b5b50919050565b7f4e487b7100000000000000000000000000000000000000000000000000000000600052601160045260246000fd5b6000819050919050565b6000620005ed82620005d6565b91507fffffffffffffffffffffffffffffffffffffffffffffffffffffffffffffffff821415620006235762000622620005a7565b5b600182019050919050565b60006200063b82620005d6565b91506200064883620005d6565b9250828210156200065e576200065d620005a7565b5b828203905092915050565b60006200067682620005d6565b91506200068383620005d6565b9250827fffffffffffffffffffffffffffffffffffffffffffffffffffffffffffffffff03821115620006bb57620006ba620005a7565b5b828201905092915050565b6000819050919050565b6000819050919050565b620006ef620006e982620006c6565b620006d0565b82525050565b6000620007038285620006da565b602082019150620007158284620006da565b6020820191508190509392505050565b7f4e487b7100000000000000000000000000000000000000000000000000000000600052601260045260246000fd5b60006200076182620005d6565b91506200076e83620005d6565b92508262000781576200078062000725565b5b828204905092915050565b600081519050919050565b600081905092915050565b60005b83811015620007c2578082015181840152602081019050620007a5565b83811115620007d2576000848401525b50505050565b6000620007e5826200078c565b620007f1818562000797565b935062000803818560208601620007a2565b80840191505092915050565b60006200081d8284620007d8565b915081905092915050565b61091980620008386000396000f3fe608060405234801561001057600080fd5b506004361061004c5760003560e01c80632637cccf14610051578063501895ae1461008157806352de70af146100b15780636a11b2a8146100e1575b600080fd5b61006b600480360381019061006691906104e1565b610111565b604051610078919061059b565b60405180910390f35b61009b600480360381019061009691906105b6565b6101ed565b6040516100a891906105f2565b60405180910390f35b6100cb60048036038101906100c6919061060d565b610211565b6040516100d891906105f2565b60405180910390f35b6100fb60048036038101906100f6919061060d565b61022a565b60405161010891906106de565b60405180910390f35b60008061011d86610211565b905060005b83518110156101de5760008482815181106101405761013f610700565b5b602002602001015190506000600288610159919061075e565b141561018f5782816040516020016101729291906107b0565b6040516020818303038152906040528051906020012092506101bb565b80836040516020016101a29291906107b0565b6040516020818303038152906040528051906020012092505b6002876101c8919061080b565b96505080806101d69061083c565b915050610122565b50838114915050949350505050565b600081815481106101fd57600080fd5b906000526020600020016000915090505481565b600061021c8261022a565b805190602001209050919050565b60608160405160200161023d91906108cc565b6040516020818303038152906040529050919050565b6000604051905090565b600080fd5b600080fd5b600080fd5b600080fd5b6000601f19601f8301169050919050565b7f4e487b7100000000000000000000000000000000000000000000000000000000600052604160045260246000fd5b6102ba82610271565b810181811067ffffffffffffffff821117156102d9576102d8610282565b5b80604052505050565b60006102ec610253565b90506102f882826102b1565b919050565b600067ffffffffffffffff82111561031857610317610282565b5b61032182610271565b9050602081019050919050565b82818337600083830152505050565b600061035061034b846102fd565b6102e2565b90508281526020810184848401111561036c5761036b61026c565b5b61037784828561032e565b509392505050565b600082601f83011261039457610393610267565b5b81356103a484826020860161033d565b91505092915050565b6000819050919050565b6103c0816103ad565b81146103cb57600080fd5b50565b6000813590506103dd816103b7565b92915050565b6000819050919050565b6103f6816103e3565b811461040157600080fd5b50565b600081359050610413816103ed565b92915050565b600067ffffffffffffffff82111561043457610433610282565b5b602082029050602081019050919050565b600080fd5b600061045d61045884610419565b6102e2565b905080838252602082019050602084028301858111156104805761047f610445565b5b835b818110156104a957806104958882610404565b845260208401935050602081019050610482565b5050509392505050565b600082601f8301126104c8576104c7610267565b5b81356104d884826020860161044a565b91505092915050565b600080600080608085870312156104fb576104fa61025d565b5b600085013567ffffffffffffffff81111561051957610518610262565b5b6105258782880161037f565b9450506020610536878288016103ce565b935050604061054787828801610404565b925050606085013567ffffffffffffffff81111561056857610567610262565b5b610574878288016104b3565b91505092959194509250565b60008115159050919050565b61059581610580565b82525050565b60006020820190506105b0600083018461058c565b92915050565b6000602082840312156105cc576105cb61025d565b5b60006105da848285016103ce565b91505092915050565b6105ec816103e3565b82525050565b600060208201905061060760008301846105e3565b92915050565b6000602082840312156106235761062261025d565b5b600082013567ffffffffffffffff81111561064157610640610262565b5b61064d8482850161037f565b91505092915050565b600081519050919050565b600082825260208201905092915050565b60005b83811015610690578082015181840152602081019050610675565b8381111561069f576000848401525b50505050565b60006106b082610656565b6106ba8185610661565b93506106ca818560208601610672565b6106d381610271565b840191505092915050565b600060208201905081810360008301526106f881846106a5565b905092915050565b7f4e487b7100000000000000000000000000000000000000000000000000000000600052603260045260246000fd5b7f4e487b7100000000000000000000000000000000000000000000000000000000600052601260045260246000fd5b6000610769826103ad565b9150610774836103ad565b9250826107845761078361072f565b5b828206905092915050565b6000819050919050565b6107aa6107a5826103e3565b61078f565b82525050565b60006107bc8285610799565b6020820191506107cc8284610799565b6020820191508190509392505050565b7f4e487b7100000000000000000000000000000000000000000000000000000000600052601160045260246000fd5b6000610816826103ad565b9150610821836103ad565b9250826108315761083061072f565b5b828204905092915050565b6000610847826103ad565b91507fffffffffffffffffffffffffffffffffffffffffffffffffffffffffffffffff82141561087a576108796107dc565b5b600182019050919050565b600081519050919050565b600081905092915050565b60006108a682610885565b6108b08185610890565b93506108c0818560208601610672565b80840191505092915050565b60006108d8828461089b565b91508190509291505056fea26469706673582212204cf1503093868a542a55864702ec1e8e778edaad38f69d531686b4a61fda4f2464736f6c63430008090033",
          "opcodes": "PUSH1 0x80 PUSH1 0x40 MSTORE PUSH1 0x40 MLOAD DUP1 PUSH1 0x80 ADD PUSH1 0x40 MSTORE DUP1 PUSH1 0x40 MLOAD DUP1 PUSH1 0x40 ADD PUSH1 0x40 MSTORE DUP1 PUSH1 0x3 DUP2 MSTORE PUSH1 0x20 ADD PUSH32 0x5458310000000000000000000000000000000000000000000000000000000000 DUP2 MSTORE POP DUP2 MSTORE PUSH1 0x20 ADD PUSH1 0x40 MLOAD DUP1 PUSH1 0x40 ADD PUSH1 0x40 MSTORE DUP1 PUSH1 0x3 DUP2 MSTORE PUSH1 0x20 ADD PUSH32 0x5458320000000000000000000000000000000000000000000000000000000000 DUP2 MSTORE POP DUP2 MSTORE PUSH1 0x20 ADD PUSH1 0x40 MLOAD DUP1 PUSH1 0x40 ADD PUSH1 0x40 MSTORE DUP1 PUSH1 0x3 DUP2 MSTORE PUSH1 0x20 ADD PUSH32 0x5458330000000000000000000000000000000000000000000000000000000000 DUP2 MSTORE POP DUP2 MSTORE PUSH1 0x20 ADD PUSH1 0x40 MLOAD DUP1 PUSH1 0x40 ADD PUSH1 0x40 MSTORE DUP1 PUSH1 0x3 DUP2 MSTORE PUSH1 0x20 ADD PUSH32 0x5458340000000000000000000000000000000000000000000000000000000000 DUP2 MSTORE POP DUP2 MSTORE POP PUSH1 0x1 SWAP1 PUSH1 0x4 PUSH3 0x10B SWAP3 SWAP2 SWAP1 PUSH3 0x39B JUMP JUMPDEST POP CALLVALUE DUP1 ISZERO PUSH3 0x119 JUMPI PUSH1 0x0 DUP1 REVERT JUMPDEST POP PUSH1 0x0 JUMPDEST PUSH1 0x4 DUP2 LT ISZERO PUSH3 0x21E JUMPI PUSH1 0x0 PUSH3 0x1E2 PUSH1 0x1 DUP4 PUSH1 0x4 DUP2 LT PUSH3 0x144 JUMPI PUSH3 0x143 PUSH3 0x513 JUMP JUMPDEST JUMPDEST ADD DUP1 SLOAD PUSH3 0x152 SWAP1 PUSH3 0x571 JUMP JUMPDEST DUP1 PUSH1 0x1F ADD PUSH1 0x20 DUP1 SWAP2 DIV MUL PUSH1 0x20 ADD PUSH1 0x40 MLOAD SWAP1 DUP2 ADD PUSH1 0x40 MSTORE DUP1 SWAP3 SWAP2 SWAP1 DUP2 DUP2 MSTORE PUSH1 0x20 ADD DUP3 DUP1 SLOAD PUSH3 0x180 SWAP1 PUSH3 0x571 JUMP JUMPDEST DUP1 ISZERO PUSH3 0x1D1 JUMPI DUP1 PUSH1 0x1F LT PUSH3 0x1A5 JUMPI PUSH2 0x100 DUP1 DUP4 SLOAD DIV MUL DUP4 MSTORE SWAP2 PUSH1 0x20 ADD SWAP2 PUSH3 0x1D1 JUMP JUMPDEST DUP3 ADD SWAP2 SWAP1 PUSH1 0x0 MSTORE PUSH1 0x20 PUSH1 0x0 KECCAK256 SWAP1 JUMPDEST DUP2 SLOAD DUP2 MSTORE SWAP1 PUSH1 0x1 ADD SWAP1 PUSH1 0x20 ADD DUP1 DUP4 GT PUSH3 0x1B3 JUMPI DUP3 SWAP1 SUB PUSH1 0x1F AND DUP3 ADD SWAP2 JUMPDEST POP POP POP POP POP PUSH3 0x34F PUSH1 0x20 SHL PUSH1 0x20 SHR JUMP JUMPDEST SWAP1 DUP1 PUSH1 0x1 DUP2 SLOAD ADD DUP1 DUP3 SSTORE DUP1 SWAP2 POP POP PUSH1 0x1 SWAP1 SUB SWAP1 PUSH1 0x0 MSTORE PUSH1 0x20 PUSH1 0x0 KECCAK256 ADD PUSH1 0x0 SWAP1 SWAP2 SWAP1 SWAP2 SWAP1 SWAP2 POP SSTORE DUP1 DUP1 PUSH3 0x215 SWAP1 PUSH3 0x5E0 JUMP JUMPDEST SWAP2 POP POP PUSH3 0x11D JUMP JUMPDEST POP PUSH1 0x0 PUSH1 0x4 SWAP1 POP PUSH1 0x0 JUMPDEST PUSH1 0x0 DUP3 GT ISZERO PUSH3 0x347 JUMPI PUSH1 0x0 JUMPDEST PUSH1 0x1 DUP4 PUSH3 0x244 SWAP2 SWAP1 PUSH3 0x62E JUMP JUMPDEST DUP2 LT ISZERO PUSH3 0x31F JUMPI PUSH1 0x0 DUP1 DUP3 DUP5 PUSH3 0x25D SWAP2 SWAP1 PUSH3 0x669 JUMP JUMPDEST DUP2 SLOAD DUP2 LT PUSH3 0x271 JUMPI PUSH3 0x270 PUSH3 0x513 JUMP JUMPDEST JUMPDEST SWAP1 PUSH1 0x0 MSTORE PUSH1 0x20 PUSH1 0x0 KECCAK256 ADD SLOAD PUSH1 0x0 PUSH1 0x1 DUP5 DUP7 PUSH3 0x28E SWAP2 SWAP1 PUSH3 0x669 JUMP JUMPDEST PUSH3 0x29A SWAP2 SWAP1 PUSH3 0x669 JUMP JUMPDEST DUP2 SLOAD DUP2 LT PUSH3 0x2AE JUMPI PUSH3 0x2AD PUSH3 0x513 JUMP JUMPDEST JUMPDEST SWAP1 PUSH1 0x0 MSTORE PUSH1 0x20 PUSH1 0x0 KECCAK256 ADD SLOAD PUSH1 0x40 MLOAD PUSH1 0x20 ADD PUSH3 0x2CC SWAP3 SWAP2 SWAP1 PUSH3 0x6F5 JUMP JUMPDEST PUSH1 0x40 MLOAD PUSH1 0x20 DUP2 DUP4 SUB SUB DUP2 MSTORE SWAP1 PUSH1 0x40 MSTORE DUP1 MLOAD SWAP1 PUSH1 0x20 ADD KECCAK256 SWAP1 DUP1 PUSH1 0x1 DUP2 SLOAD ADD DUP1 DUP3 SSTORE DUP1 SWAP2 POP POP PUSH1 0x1 SWAP1 SUB SWAP1 PUSH1 0x0 MSTORE PUSH1 0x20 PUSH1 0x0 KECCAK256 ADD PUSH1 0x0 SWAP1 SWAP2 SWAP1 SWAP2 SWAP1 SWAP2 POP SSTORE PUSH1 0x2 DUP2 PUSH3 0x317 SWAP2 SWAP1 PUSH3 0x669 JUMP JUMPDEST SWAP1 POP PUSH3 0x235 JUMP JUMPDEST POP DUP2 DUP2 PUSH3 0x32E SWAP2 SWAP1 PUSH3 0x669 JUMP JUMPDEST SWAP1 POP PUSH1 0x2 DUP3 PUSH3 0x33F SWAP2 SWAP1 PUSH3 0x754 JUMP JUMPDEST SWAP2 POP PUSH3 0x228 JUMP JUMPDEST POP POP PUSH3 0x828 JUMP JUMPDEST PUSH1 0x0 PUSH3 0x362 DUP3 PUSH3 0x370 PUSH1 0x20 SHL PUSH1 0x20 SHR JUMP JUMPDEST DUP1 MLOAD SWAP1 PUSH1 0x20 ADD KECCAK256 SWAP1 POP SWAP2 SWAP1 POP JUMP JUMPDEST PUSH1 0x60 DUP2 PUSH1 0x40 MLOAD PUSH1 0x20 ADD PUSH3 0x385 SWAP2 SWAP1 PUSH3 0x80F JUMP JUMPDEST PUSH1 0x40 MLOAD PUSH1 0x20 DUP2 DUP4 SUB SUB DUP2 MSTORE SWAP1 PUSH1 0x40 MSTORE SWAP1 POP SWAP2 SWAP1 POP JUMP JUMPDEST DUP3 PUSH1 0x4 DUP2 ADD SWAP3 DUP3 ISZERO PUSH3 0x3E2 JUMPI SWAP2 PUSH1 0x20 MUL DUP3 ADD JUMPDEST DUP3 DUP2 GT ISZERO PUSH3 0x3E1 JUMPI DUP3 MLOAD DUP3 SWAP1 DUP1 MLOAD SWAP1 PUSH1 0x20 ADD SWAP1 PUSH3 0x3D0 SWAP3 SWAP2 SWAP1 PUSH3 0x3F5 JUMP JUMPDEST POP SWAP2 PUSH1 0x20 ADD SWAP2 SWAP1 PUSH1 0x1 ADD SWAP1 PUSH3 0x3AF JUMP JUMPDEST JUMPDEST POP SWAP1 POP PUSH3 0x3F1 SWAP2 SWAP1 PUSH3 0x486 JUMP JUMPDEST POP SWAP1 JUMP JUMPDEST DUP3 DUP1 SLOAD PUSH3 0x403 SWAP1 PUSH3 0x571 JUMP JUMPDEST SWAP1 PUSH1 0x0 MSTORE PUSH1 0x20 PUSH1 0x0 KECCAK256 SWAP1 PUSH1 0x1F ADD PUSH1 0x20 SWAP1 DIV DUP2 ADD SWAP3 DUP3 PUSH3 0x427 JUMPI PUSH1 0x0 DUP6 SSTORE PUSH3 0x473 JUMP JUMPDEST DUP3 PUSH1 0x1F LT PUSH3 0x442 JUMPI DUP1 MLOAD PUSH1 0xFF NOT AND DUP4 DUP1 ADD OR DUP6 SSTORE PUSH3 0x473 JUMP JUMPDEST DUP3 DUP1 ADD PUSH1 0x1 ADD DUP6 SSTORE DUP3 ISZERO PUSH3 0x473 JUMPI SWAP2 DUP3 ADD JUMPDEST DUP3 DUP2 GT ISZERO PUSH3 0x472 JUMPI DUP3 MLOAD DUP3 SSTORE SWAP2 PUSH1 0x20 ADD SWAP2 SWAP1 PUSH1 0x1 ADD SWAP1 PUSH3 0x455 JUMP JUMPDEST JUMPDEST POP SWAP1 POP PUSH3 0x482 SWAP2 SWAP1 PUSH3 0x4AE JUMP JUMPDEST POP SWAP1 JUMP JUMPDEST JUMPDEST DUP1 DUP3 GT ISZERO PUSH3 0x4AA JUMPI PUSH1 0x0 DUP2 DUP2 PUSH3 0x4A0 SWAP2 SWAP1 PUSH3 0x4CD JUMP JUMPDEST POP PUSH1 0x1 ADD PUSH3 0x487 JUMP JUMPDEST POP SWAP1 JUMP JUMPDEST JUMPDEST DUP1 DUP3 GT ISZERO PUSH3 0x4C9 JUMPI PUSH1 0x0 DUP2 PUSH1 0x0 SWAP1 SSTORE POP PUSH1 0x1 ADD PUSH3 0x4AF JUMP JUMPDEST POP SWAP1 JUMP JUMPDEST POP DUP1 SLOAD PUSH3 0x4DB SWAP1 PUSH3 0x571 JUMP JUMPDEST PUSH1 0x0 DUP3 SSTORE DUP1 PUSH1 0x1F LT PUSH3 0x4EF JUMPI POP PUSH3 0x510 JUMP JUMPDEST PUSH1 0x1F ADD PUSH1 0x20 SWAP1 DIV SWAP1 PUSH1 0x0 MSTORE PUSH1 0x20 PUSH1 0x0 KECCAK256 SWAP1 DUP2 ADD SWAP1 PUSH3 0x50F SWAP2 SWAP1 PUSH3 0x4AE JUMP JUMPDEST JUMPDEST POP JUMP JUMPDEST PUSH32 0x4E487B7100000000000000000000000000000000000000000000000000000000 PUSH1 0x0 MSTORE PUSH1 0x32 PUSH1 0x4 MSTORE PUSH1 0x24 PUSH1 0x0 REVERT JUMPDEST PUSH32 0x4E487B7100000000000000000000000000000000000000000000000000000000 PUSH1 0x0 MSTORE PUSH1 0x22 PUSH1 0x4 MSTORE PUSH1 0x24 PUSH1 0x0 REVERT JUMPDEST PUSH1 0x0 PUSH1 0x2 DUP3 DIV SWAP1 POP PUSH1 0x1 DUP3 AND DUP1 PUSH3 0x58A JUMPI PUSH1 0x7F DUP3 AND SWAP2 POP JUMPDEST PUSH1 0x20 DUP3 LT DUP2 EQ ISZERO PUSH3 0x5A1 JUMPI PUSH3 0x5A0 PUSH3 0x542 JUMP JUMPDEST JUMPDEST POP SWAP2 SWAP1 POP JUMP JUMPDEST PUSH32 0x4E487B7100000000000000000000000000000000000000000000000000000000 PUSH1 0x0 MSTORE PUSH1 0x11 PUSH1 0x4 MSTORE PUSH1 0x24 PUSH1 0x0 REVERT JUMPDEST PUSH1 0x0 DUP2 SWAP1 POP SWAP2 SWAP1 POP JUMP JUMPDEST PUSH1 0x0 PUSH3 0x5ED DUP3 PUSH3 0x5D6 JUMP JUMPDEST SWAP2 POP PUSH32 0xFFFFFFFFFFFFFFFFFFFFFFFFFFFFFFFFFFFFFFFFFFFFFFFFFFFFFFFFFFFFFFFF DUP3 EQ ISZERO PUSH3 0x623 JUMPI PUSH3 0x622 PUSH3 0x5A7 JUMP JUMPDEST JUMPDEST PUSH1 0x1 DUP3 ADD SWAP1 POP SWAP2 SWAP1 POP JUMP JUMPDEST PUSH1 0x0 PUSH3 0x63B DUP3 PUSH3 0x5D6 JUMP JUMPDEST SWAP2 POP PUSH3 0x648 DUP4 PUSH3 0x5D6 JUMP JUMPDEST SWAP3 POP DUP3 DUP3 LT ISZERO PUSH3 0x65E JUMPI PUSH3 0x65D PUSH3 0x5A7 JUMP JUMPDEST JUMPDEST DUP3 DUP3 SUB SWAP1 POP SWAP3 SWAP2 POP POP JUMP JUMPDEST PUSH1 0x0 PUSH3 0x676 DUP3 PUSH3 0x5D6 JUMP JUMPDEST SWAP2 POP PUSH3 0x683 DUP4 PUSH3 0x5D6 JUMP JUMPDEST SWAP3 POP DUP3 PUSH32 0xFFFFFFFFFFFFFFFFFFFFFFFFFFFFFFFFFFFFFFFFFFFFFFFFFFFFFFFFFFFFFFFF SUB DUP3 GT ISZERO PUSH3 0x6BB JUMPI PUSH3 0x6BA PUSH3 0x5A7 JUMP JUMPDEST JUMPDEST DUP3 DUP3 ADD SWAP1 POP SWAP3 SWAP2 POP POP JUMP JUMPDEST PUSH1 0x0 DUP2 SWAP1 POP SWAP2 SWAP1 POP JUMP JUMPDEST PUSH1 0x0 DUP2 SWAP1 POP SWAP2 SWAP1 POP JUMP JUMPDEST PUSH3 0x6EF PUSH3 0x6E9 DUP3 PUSH3 0x6C6 JUMP JUMPDEST PUSH3 0x6D0 JUMP JUMPDEST DUP3 MSTORE POP POP JUMP JUMPDEST PUSH1 0x0 PUSH3 0x703 DUP3 DUP6 PUSH3 0x6DA JUMP JUMPDEST PUSH1 0x20 DUP3 ADD SWAP2 POP PUSH3 0x715 DUP3 DUP5 PUSH3 0x6DA JUMP JUMPDEST PUSH1 0x20 DUP3 ADD SWAP2 POP DUP2 SWAP1 POP SWAP4 SWAP3 POP POP POP JUMP JUMPDEST PUSH32 0x4E487B7100000000000000000000000000000000000000000000000000000000 PUSH1 0x0 MSTORE PUSH1 0x12 PUSH1 0x4 MSTORE PUSH1 0x24 PUSH1 0x0 REVERT JUMPDEST PUSH1 0x0 PUSH3 0x761 DUP3 PUSH3 0x5D6 JUMP JUMPDEST SWAP2 POP PUSH3 0x76E DUP4 PUSH3 0x5D6 JUMP JUMPDEST SWAP3 POP DUP3 PUSH3 0x781 JUMPI PUSH3 0x780 PUSH3 0x725 JUMP JUMPDEST JUMPDEST DUP3 DUP3 DIV SWAP1 POP SWAP3 SWAP2 POP POP JUMP JUMPDEST PUSH1 0x0 DUP2 MLOAD SWAP1 POP SWAP2 SWAP1 POP JUMP JUMPDEST PUSH1 0x0 DUP2 SWAP1 POP SWAP3 SWAP2 POP POP JUMP JUMPDEST PUSH1 0x0 JUMPDEST DUP4 DUP2 LT ISZERO PUSH3 0x7C2 JUMPI DUP1 DUP3 ADD MLOAD DUP2 DUP5 ADD MSTORE PUSH1 0x20 DUP2 ADD SWAP1 POP PUSH3 0x7A5 JUMP JUMPDEST DUP4 DUP2 GT ISZERO PUSH3 0x7D2 JUMPI PUSH1 0x0 DUP5 DUP5 ADD MSTORE JUMPDEST POP POP POP POP JUMP JUMPDEST PUSH1 0x0 PUSH3 0x7E5 DUP3 PUSH3 0x78C JUMP JUMPDEST PUSH3 0x7F1 DUP2 DUP6 PUSH3 0x797 JUMP JUMPDEST SWAP4 POP PUSH3 0x803 DUP2 DUP6 PUSH1 0x20 DUP7 ADD PUSH3 0x7A2 JUMP JUMPDEST DUP1 DUP5 ADD SWAP2 POP POP SWAP3 SWAP2 POP POP JUMP JUMPDEST PUSH1 0x0 PUSH3 0x81D DUP3 DUP5 PUSH3 0x7D8 JUMP JUMPDEST SWAP2 POP DUP2 SWAP1 POP SWAP3 SWAP2 POP POP JUMP JUMPDEST PUSH2 0x919 DUP1 PUSH3 0x838 PUSH1 0x0 CODECOPY PUSH1 0x0 RETURN INVALID PUSH1 0x80 PUSH1 0x40 MSTORE CALLVALUE DUP1 ISZERO PUSH2 0x10 JUMPI PUSH1 0x0 DUP1 REVERT JUMPDEST POP PUSH1 0x4 CALLDATASIZE LT PUSH2 0x4C JUMPI PUSH1 0x0 CALLDATALOAD PUSH1 0xE0 SHR DUP1 PUSH4 0x2637CCCF EQ PUSH2 0x51 JUMPI DUP1 PUSH4 0x501895AE EQ PUSH2 0x81 JUMPI DUP1 PUSH4 0x52DE70AF EQ PUSH2 0xB1 JUMPI DUP1 PUSH4 0x6A11B2A8 EQ PUSH2 0xE1 JUMPI JUMPDEST PUSH1 0x0 DUP1 REVERT JUMPDEST PUSH2 0x6B PUSH1 0x4 DUP1 CALLDATASIZE SUB DUP2 ADD SWAP1 PUSH2 0x66 SWAP2 SWAP1 PUSH2 0x4E1 JUMP JUMPDEST PUSH2 0x111 JUMP JUMPDEST PUSH1 0x40 MLOAD PUSH2 0x78 SWAP2 SWAP1 PUSH2 0x59B JUMP JUMPDEST PUSH1 0x40 MLOAD DUP1 SWAP2 SUB SWAP1 RETURN JUMPDEST PUSH2 0x9B PUSH1 0x4 DUP1 CALLDATASIZE SUB DUP2 ADD SWAP1 PUSH2 0x96 SWAP2 SWAP1 PUSH2 0x5B6 JUMP JUMPDEST PUSH2 0x1ED JUMP JUMPDEST PUSH1 0x40 MLOAD PUSH2 0xA8 SWAP2 SWAP1 PUSH2 0x5F2 JUMP JUMPDEST PUSH1 0x40 MLOAD DUP1 SWAP2 SUB SWAP1 RETURN JUMPDEST PUSH2 0xCB PUSH1 0x4 DUP1 CALLDATASIZE SUB DUP2 ADD SWAP1 PUSH2 0xC6 SWAP2 SWAP1 PUSH2 0x60D JUMP JUMPDEST PUSH2 0x211 JUMP JUMPDEST PUSH1 0x40 MLOAD PUSH2 0xD8 SWAP2 SWAP1 PUSH2 0x5F2 JUMP JUMPDEST PUSH1 0x40 MLOAD DUP1 SWAP2 SUB SWAP1 RETURN JUMPDEST PUSH2 0xFB PUSH1 0x4 DUP1 CALLDATASIZE SUB DUP2 ADD SWAP1 PUSH2 0xF6 SWAP2 SWAP1 PUSH2 0x60D JUMP JUMPDEST PUSH2 0x22A JUMP JUMPDEST PUSH1 0x40 MLOAD PUSH2 0x108 SWAP2 SWAP1 PUSH2 0x6DE JUMP JUMPDEST PUSH1 0x40 MLOAD DUP1 SWAP2 SUB SWAP1 RETURN JUMPDEST PUSH1 0x0 DUP1 PUSH2 0x11D DUP7 PUSH2 0x211 JUMP JUMPDEST SWAP1 POP PUSH1 0x0 JUMPDEST DUP4 MLOAD DUP2 LT ISZERO PUSH2 0x1DE JUMPI PUSH1 0x0 DUP5 DUP3 DUP2 MLOAD DUP2 LT PUSH2 0x140 JUMPI PUSH2 0x13F PUSH2 0x700 JUMP JUMPDEST JUMPDEST PUSH1 0x20 MUL PUSH1 0x20 ADD ADD MLOAD SWAP1 POP PUSH1 0x0 PUSH1 0x2 DUP9 PUSH2 0x159 SWAP2 SWAP1 PUSH2 0x75E JUMP JUMPDEST EQ ISZERO PUSH2 0x18F JUMPI DUP3 DUP2 PUSH1 0x40 MLOAD PUSH1 0x20 ADD PUSH2 0x172 SWAP3 SWAP2 SWAP1 PUSH2 0x7B0 JUMP JUMPDEST PUSH1 0x40 MLOAD PUSH1 0x20 DUP2 DUP4 SUB SUB DUP2 MSTORE SWAP1 PUSH1 0x40 MSTORE DUP1 MLOAD SWAP1 PUSH1 0x20 ADD KECCAK256 SWAP3 POP PUSH2 0x1BB JUMP JUMPDEST DUP1 DUP4 PUSH1 0x40 MLOAD PUSH1 0x20 ADD PUSH2 0x1A2 SWAP3 SWAP2 SWAP1 PUSH2 0x7B0 JUMP JUMPDEST PUSH1 0x40 MLOAD PUSH1 0x20 DUP2 DUP4 SUB SUB DUP2 MSTORE SWAP1 PUSH1 0x40 MSTORE DUP1 MLOAD SWAP1 PUSH1 0x20 ADD KECCAK256 SWAP3 POP JUMPDEST PUSH1 0x2 DUP8 PUSH2 0x1C8 SWAP2 SWAP1 PUSH2 0x80B JUMP JUMPDEST SWAP7 POP POP DUP1 DUP1 PUSH2 0x1D6 SWAP1 PUSH2 0x83C JUMP JUMPDEST SWAP2 POP POP PUSH2 0x122 JUMP JUMPDEST POP DUP4 DUP2 EQ SWAP2 POP POP SWAP5 SWAP4 POP POP POP POP JUMP JUMPDEST PUSH1 0x0 DUP2 DUP2 SLOAD DUP2 LT PUSH2 0x1FD JUMPI PUSH1 0x0 DUP1 REVERT JUMPDEST SWAP1 PUSH1 0x0 MSTORE PUSH1 0x20 PUSH1 0x0 KECCAK256 ADD PUSH1 0x0 SWAP2 POP SWAP1 POP SLOAD DUP2 JUMP JUMPDEST PUSH1 0x0 PUSH2 0x21C DUP3 PUSH2 0x22A JUMP JUMPDEST DUP1 MLOAD SWAP1 PUSH1 0x20 ADD KECCAK256 SWAP1 POP SWAP2 SWAP1 POP JUMP JUMPDEST PUSH1 0x60 DUP2 PUSH1 0x40 MLOAD PUSH1 0x20 ADD PUSH2 0x23D SWAP2 SWAP1 PUSH2 0x8CC JUMP JUMPDEST PUSH1 0x40 MLOAD PUSH1 0x20 DUP2 DUP4 SUB SUB DUP2 MSTORE SWAP1 PUSH1 0x40 MSTORE SWAP1 POP SWAP2 SWAP1 POP JUMP JUMPDEST PUSH1 0x0 PUSH1 0x40 MLOAD SWAP1 POP SWAP1 JUMP JUMPDEST PUSH1 0x0 DUP1 REVERT JUMPDEST PUSH1 0x0 DUP1 REVERT JUMPDEST PUSH1 0x0 DUP1 REVERT JUMPDEST PUSH1 0x0 DUP1 REVERT JUMPDEST PUSH1 0x0 PUSH1 0x1F NOT PUSH1 0x1F DUP4 ADD AND SWAP1 POP SWAP2 SWAP1 POP JUMP JUMPDEST PUSH32 0x4E487B7100000000000000000000000000000000000000000000000000000000 PUSH1 0x0 MSTORE PUSH1 0x41 PUSH1 0x4 MSTORE PUSH1 0x24 PUSH1 0x0 REVERT JUMPDEST PUSH2 0x2BA DUP3 PUSH2 0x271 JUMP JUMPDEST DUP2 ADD DUP2 DUP2 LT PUSH8 0xFFFFFFFFFFFFFFFF DUP3 GT OR ISZERO PUSH2 0x2D9 JUMPI PUSH2 0x2D8 PUSH2 0x282 JUMP JUMPDEST JUMPDEST DUP1 PUSH1 0x40 MSTORE POP POP POP JUMP JUMPDEST PUSH1 0x0 PUSH2 0x2EC PUSH2 0x253 JUMP JUMPDEST SWAP1 POP PUSH2 0x2F8 DUP3 DUP3 PUSH2 0x2B1 JUMP JUMPDEST SWAP2 SWAP1 POP JUMP JUMPDEST PUSH1 0x0 PUSH8 0xFFFFFFFFFFFFFFFF DUP3 GT ISZERO PUSH2 0x318 JUMPI PUSH2 0x317 PUSH2 0x282 JUMP JUMPDEST JUMPDEST PUSH2 0x321 DUP3 PUSH2 0x271 JUMP JUMPDEST SWAP1 POP PUSH1 0x20 DUP2 ADD SWAP1 POP SWAP2 SWAP1 POP JUMP JUMPDEST DUP3 DUP2 DUP4 CALLDATACOPY PUSH1 0x0 DUP4 DUP4 ADD MSTORE POP POP POP JUMP JUMPDEST PUSH1 0x0 PUSH2 0x350 PUSH2 0x34B DUP5 PUSH2 0x2FD JUMP JUMPDEST PUSH2 0x2E2 JUMP JUMPDEST SWAP1 POP DUP3 DUP2 MSTORE PUSH1 0x20 DUP2 ADD DUP5 DUP5 DUP5 ADD GT ISZERO PUSH2 0x36C JUMPI PUSH2 0x36B PUSH2 0x26C JUMP JUMPDEST JUMPDEST PUSH2 0x377 DUP5 DUP3 DUP6 PUSH2 0x32E JUMP JUMPDEST POP SWAP4 SWAP3 POP POP POP JUMP JUMPDEST PUSH1 0x0 DUP3 PUSH1 0x1F DUP4 ADD SLT PUSH2 0x394 JUMPI PUSH2 0x393 PUSH2 0x267 JUMP JUMPDEST JUMPDEST DUP2 CALLDATALOAD PUSH2 0x3A4 DUP5 DUP3 PUSH1 0x20 DUP7 ADD PUSH2 0x33D JUMP JUMPDEST SWAP2 POP POP SWAP3 SWAP2 POP POP JUMP JUMPDEST PUSH1 0x0 DUP2 SWAP1 POP SWAP2 SWAP1 POP JUMP JUMPDEST PUSH2 0x3C0 DUP2 PUSH2 0x3AD JUMP JUMPDEST DUP2 EQ PUSH2 0x3CB JUMPI PUSH1 0x0 DUP1 REVERT JUMPDEST POP JUMP JUMPDEST PUSH1 0x0 DUP2 CALLDATALOAD SWAP1 POP PUSH2 0x3DD DUP2 PUSH2 0x3B7 JUMP JUMPDEST SWAP3 SWAP2 POP POP JUMP JUMPDEST PUSH1 0x0 DUP2 SWAP1 POP SWAP2 SWAP1 POP JUMP JUMPDEST PUSH2 0x3F6 DUP2 PUSH2 0x3E3 JUMP JUMPDEST DUP2 EQ PUSH2 0x401 JUMPI PUSH1 0x0 DUP1 REVERT JUMPDEST POP JUMP JUMPDEST PUSH1 0x0 DUP2 CALLDATALOAD SWAP1 POP PUSH2 0x413 DUP2 PUSH2 0x3ED JUMP JUMPDEST SWAP3 SWAP2 POP POP JUMP JUMPDEST PUSH1 0x0 PUSH8 0xFFFFFFFFFFFFFFFF DUP3 GT ISZERO PUSH2 0x434 JUMPI PUSH2 0x433 PUSH2 0x282 JUMP JUMPDEST JUMPDEST PUSH1 0x20 DUP3 MUL SWAP1 POP PUSH1 0x20 DUP2 ADD SWAP1 POP SWAP2 SWAP1 POP JUMP JUMPDEST PUSH1 0x0 DUP1 REVERT JUMPDEST PUSH1 0x0 PUSH2 0x45D PUSH2 0x458 DUP5 PUSH2 0x419 JUMP JUMPDEST PUSH2 0x2E2 JUMP JUMPDEST SWAP1 POP DUP1 DUP4 DUP3 MSTORE PUSH1 0x20 DUP3 ADD SWAP1 POP PUSH1 0x20 DUP5 MUL DUP4 ADD DUP6 DUP2 GT ISZERO PUSH2 0x480 JUMPI PUSH2 0x47F PUSH2 0x445 JUMP JUMPDEST JUMPDEST DUP4 JUMPDEST DUP2 DUP2 LT ISZERO PUSH2 0x4A9 JUMPI DUP1 PUSH2 0x495 DUP9 DUP3 PUSH2 0x404 JUMP JUMPDEST DUP5 MSTORE PUSH1 0x20 DUP5 ADD SWAP4 POP POP PUSH1 0x20 DUP2 ADD SWAP1 POP PUSH2 0x482 JUMP JUMPDEST POP POP POP SWAP4 SWAP3 POP POP POP JUMP JUMPDEST PUSH1 0x0 DUP3 PUSH1 0x1F DUP4 ADD SLT PUSH2 0x4C8 JUMPI PUSH2 0x4C7 PUSH2 0x267 JUMP JUMPDEST JUMPDEST DUP2 CALLDATALOAD PUSH2 0x4D8 DUP5 DUP3 PUSH1 0x20 DUP7 ADD PUSH2 0x44A JUMP JUMPDEST SWAP2 POP POP SWAP3 SWAP2 POP POP JUMP JUMPDEST PUSH1 0x0 DUP1 PUSH1 0x0 DUP1 PUSH1 0x80 DUP6 DUP8 SUB SLT ISZERO PUSH2 0x4FB JUMPI PUSH2 0x4FA PUSH2 0x25D JUMP JUMPDEST JUMPDEST PUSH1 0x0 DUP6 ADD CALLDATALOAD PUSH8 0xFFFFFFFFFFFFFFFF DUP2 GT ISZERO PUSH2 0x519 JUMPI PUSH2 0x518 PUSH2 0x262 JUMP JUMPDEST JUMPDEST PUSH2 0x525 DUP8 DUP3 DUP9 ADD PUSH2 0x37F JUMP JUMPDEST SWAP5 POP POP PUSH1 0x20 PUSH2 0x536 DUP8 DUP3 DUP9 ADD PUSH2 0x3CE JUMP JUMPDEST SWAP4 POP POP PUSH1 0x40 PUSH2 0x547 DUP8 DUP3 DUP9 ADD PUSH2 0x404 JUMP JUMPDEST SWAP3 POP POP PUSH1 0x60 DUP6 ADD CALLDATALOAD PUSH8 0xFFFFFFFFFFFFFFFF DUP2 GT ISZERO PUSH2 0x568 JUMPI PUSH2 0x567 PUSH2 0x262 JUMP JUMPDEST JUMPDEST PUSH2 0x574 DUP8 DUP3 DUP9 ADD PUSH2 0x4B3 JUMP JUMPDEST SWAP2 POP POP SWAP3 SWAP6 SWAP2 SWAP5 POP SWAP3 POP JUMP JUMPDEST PUSH1 0x0 DUP2 ISZERO ISZERO SWAP1 POP SWAP2 SWAP1 POP JUMP JUMPDEST PUSH2 0x595 DUP2 PUSH2 0x580 JUMP JUMPDEST DUP3 MSTORE POP POP JUMP JUMPDEST PUSH1 0x0 PUSH1 0x20 DUP3 ADD SWAP1 POP PUSH2 0x5B0 PUSH1 0x0 DUP4 ADD DUP5 PUSH2 0x58C JUMP JUMPDEST SWAP3 SWAP2 POP POP JUMP JUMPDEST PUSH1 0x0 PUSH1 0x20 DUP3 DUP5 SUB SLT ISZERO PUSH2 0x5CC JUMPI PUSH2 0x5CB PUSH2 0x25D JUMP JUMPDEST JUMPDEST PUSH1 0x0 PUSH2 0x5DA DUP5 DUP3 DUP6 ADD PUSH2 0x3CE JUMP JUMPDEST SWAP2 POP POP SWAP3 SWAP2 POP POP JUMP JUMPDEST PUSH2 0x5EC DUP2 PUSH2 0x3E3 JUMP JUMPDEST DUP3 MSTORE POP POP JUMP JUMPDEST PUSH1 0x0 PUSH1 0x20 DUP3 ADD SWAP1 POP PUSH2 0x607 PUSH1 0x0 DUP4 ADD DUP5 PUSH2 0x5E3 JUMP JUMPDEST SWAP3 SWAP2 POP POP JUMP JUMPDEST PUSH1 0x0 PUSH1 0x20 DUP3 DUP5 SUB SLT ISZERO PUSH2 0x623 JUMPI PUSH2 0x622 PUSH2 0x25D JUMP JUMPDEST JUMPDEST PUSH1 0x0 DUP3 ADD CALLDATALOAD PUSH8 0xFFFFFFFFFFFFFFFF DUP2 GT ISZERO PUSH2 0x641 JUMPI PUSH2 0x640 PUSH2 0x262 JUMP JUMPDEST JUMPDEST PUSH2 0x64D DUP5 DUP3 DUP6 ADD PUSH2 0x37F JUMP JUMPDEST SWAP2 POP POP SWAP3 SWAP2 POP POP JUMP JUMPDEST PUSH1 0x0 DUP2 MLOAD SWAP1 POP SWAP2 SWAP1 POP JUMP JUMPDEST PUSH1 0x0 DUP3 DUP3 MSTORE PUSH1 0x20 DUP3 ADD SWAP1 POP SWAP3 SWAP2 POP POP JUMP JUMPDEST PUSH1 0x0 JUMPDEST DUP4 DUP2 LT ISZERO PUSH2 0x690 JUMPI DUP1 DUP3 ADD MLOAD DUP2 DUP5 ADD MSTORE PUSH1 0x20 DUP2 ADD SWAP1 POP PUSH2 0x675 JUMP JUMPDEST DUP4 DUP2 GT ISZERO PUSH2 0x69F JUMPI PUSH1 0x0 DUP5 DUP5 ADD MSTORE JUMPDEST POP POP POP POP JUMP JUMPDEST PUSH1 0x0 PUSH2 0x6B0 DUP3 PUSH2 0x656 JUMP JUMPDEST PUSH2 0x6BA DUP2 DUP6 PUSH2 0x661 JUMP JUMPDEST SWAP4 POP PUSH2 0x6CA DUP2 DUP6 PUSH1 0x20 DUP7 ADD PUSH2 0x672 JUMP JUMPDEST PUSH2 0x6D3 DUP2 PUSH2 0x271 JUMP JUMPDEST DUP5 ADD SWAP2 POP POP SWAP3 SWAP2 POP POP JUMP JUMPDEST PUSH1 0x0 PUSH1 0x20 DUP3 ADD SWAP1 POP DUP2 DUP2 SUB PUSH1 0x0 DUP4 ADD MSTORE PUSH2 0x6F8 DUP2 DUP5 PUSH2 0x6A5 JUMP JUMPDEST SWAP1 POP SWAP3 SWAP2 POP POP JUMP JUMPDEST PUSH32 0x4E487B7100000000000000000000000000000000000000000000000000000000 PUSH1 0x0 MSTORE PUSH1 0x32 PUSH1 0x4 MSTORE PUSH1 0x24 PUSH1 0x0 REVERT JUMPDEST PUSH32 0x4E487B7100000000000000000000000000000000000000000000000000000000 PUSH1 0x0 MSTORE PUSH1 0x12 PUSH1 0x4 MSTORE PUSH1 0x24 PUSH1 0x0 REVERT JUMPDEST PUSH1 0x0 PUSH2 0x769 DUP3 PUSH2 0x3AD JUMP JUMPDEST SWAP2 POP PUSH2 0x774 DUP4 PUSH2 0x3AD JUMP JUMPDEST SWAP3 POP DUP3 PUSH2 0x784 JUMPI PUSH2 0x783 PUSH2 0x72F JUMP JUMPDEST JUMPDEST DUP3 DUP3 MOD SWAP1 POP SWAP3 SWAP2 POP POP JUMP JUMPDEST PUSH1 0x0 DUP2 SWAP1 POP SWAP2 SWAP1 POP JUMP JUMPDEST PUSH2 0x7AA PUSH2 0x7A5 DUP3 PUSH2 0x3E3 JUMP JUMPDEST PUSH2 0x78F JUMP JUMPDEST DUP3 MSTORE POP POP JUMP JUMPDEST PUSH1 0x0 PUSH2 0x7BC DUP3 DUP6 PUSH2 0x799 JUMP JUMPDEST PUSH1 0x20 DUP3 ADD SWAP2 POP PUSH2 0x7CC DUP3 DUP5 PUSH2 0x799 JUMP JUMPDEST PUSH1 0x20 DUP3 ADD SWAP2 POP DUP2 SWAP1 POP SWAP4 SWAP3 POP POP POP JUMP JUMPDEST PUSH32 0x4E487B7100000000000000000000000000000000000000000000000000000000 PUSH1 0x0 MSTORE PUSH1 0x11 PUSH1 0x4 MSTORE PUSH1 0x24 PUSH1 0x0 REVERT JUMPDEST PUSH1 0x0 PUSH2 0x816 DUP3 PUSH2 0x3AD JUMP JUMPDEST SWAP2 POP PUSH2 0x821 DUP4 PUSH2 0x3AD JUMP JUMPDEST SWAP3 POP DUP3 PUSH2 0x831 JUMPI PUSH2 0x830 PUSH2 0x72F JUMP JUMPDEST JUMPDEST DUP3 DUP3 DIV SWAP1 POP SWAP3 SWAP2 POP POP JUMP JUMPDEST PUSH1 0x0 PUSH2 0x847 DUP3 PUSH2 0x3AD JUMP JUMPDEST SWAP2 POP PUSH32 0xFFFFFFFFFFFFFFFFFFFFFFFFFFFFFFFFFFFFFFFFFFFFFFFFFFFFFFFFFFFFFFFF DUP3 EQ ISZERO PUSH2 0x87A JUMPI PUSH2 0x879 PUSH2 0x7DC JUMP JUMPDEST JUMPDEST PUSH1 0x1 DUP3 ADD SWAP1 POP SWAP2 SWAP1 POP JUMP JUMPDEST PUSH1 0x0 DUP2 MLOAD SWAP1 POP SWAP2 SWAP1 POP JUMP JUMPDEST PUSH1 0x0 DUP2 SWAP1 POP SWAP3 SWAP2 POP POP JUMP JUMPDEST PUSH1 0x0 PUSH2 0x8A6 DUP3 PUSH2 0x885 JUMP JUMPDEST PUSH2 0x8B0 DUP2 DUP6 PUSH2 0x890 JUMP JUMPDEST SWAP4 POP PUSH2 0x8C0 DUP2 DUP6 PUSH1 0x20 DUP7 ADD PUSH2 0x672 JUMP JUMPDEST DUP1 DUP5 ADD SWAP2 POP POP SWAP3 SWAP2 POP POP JUMP JUMPDEST PUSH1 0x0 PUSH2 0x8D8 DUP3 DUP5 PUSH2 0x89B JUMP JUMPDEST SWAP2 POP DUP2 SWAP1 POP SWAP3 SWAP2 POP POP JUMP INVALID LOG2 PUSH5 0x6970667358 0x22 SLT KECCAK256 0x4C CALL POP ADDRESS SWAP4 DUP7 DUP11 SLOAD 0x2A SSTORE DUP7 SELFBALANCE MUL 0xEC 0x1E DUP15 PUSH24 0x8EDAAD38F69D531686B4A61FDA4F2464736F6C6343000809 STOP CALLER "
        },
        "methodIdentifiers": {
          "encode(string)": "6a11b2a8",
          "hashes(uint256)": "501895ae",
          "makeHash(string)": "52de70af",
          "verify(string,uint256,bytes32,bytes32[])": "2637cccf"
        }
      }
    }
  }
}