{
  "_format": "hh-sol-artifact-1",
  "contractName": "OwnerPayments",
  "sourceName": "contracts/OwnerPayments.sol",
  "abi": [
    {
      "inputs": [],
      "stateMutability": "nonpayable",
      "type": "constructor"
    },
    {
      "anonymous": false,
      "inputs": [
        {
          "indexed": false,
          "internalType": "address",
          "name": "_from",
          "type": "address"
        },
        {
          "indexed": false,
          "internalType": "uint256",
          "name": "_amount",
          "type": "uint256"
        },
        {
          "indexed": false,
          "internalType": "uint256",
          "name": "_timestamp",
          "type": "uint256"
        }
      ],
      "name": "Paid",
      "type": "event"
    },
    {
      "inputs": [],
      "name": "getBalance",
      "outputs": [
        {
          "internalType": "uint256",
          "name": "",
          "type": "uint256"
        }
      ],
      "stateMutability": "view",
      "type": "function"
    },
    {
      "inputs": [],
      "name": "pay",
      "outputs": [],
      "stateMutability": "payable",
      "type": "function"
    },
    {
      "inputs": [
        {
          "internalType": "address payable",
          "name": "_to",
          "type": "address"
        }
      ],
      "name": "withdraw",
      "outputs": [],
      "stateMutability": "nonpayable",
      "type": "function"
    },
    {
      "stateMutability": "payable",
      "type": "receive"
    }
  ],
  "bytecode": "0x608060405234801561001057600080fd5b50336000806101000a81548173ffffffffffffffffffffffffffffffffffffffff021916908373ffffffffffffffffffffffffffffffffffffffff160217905550610396806100606000396000f3fe6080604052600436106100385760003560e01c806312065fe01461004c5780631b9265b81461007757806351cff8d91461008157610047565b36610047576100456100aa565b005b600080fd5b34801561005857600080fd5b506100616100e7565b60405161006e91906101e0565b60405180910390f35b61007f6100aa565b005b34801561008d57600080fd5b506100a860048036038101906100a3919061025e565b6100ef565b005b7fdf9a51129930649214df58f542322c245372c6f2fa6fc3c9b40d927c597cd2303334426040516100dd939291906102ac565b60405180910390a1565b600047905090565b60008054906101000a900473ffffffffffffffffffffffffffffffffffffffff1673ffffffffffffffffffffffffffffffffffffffff163373ffffffffffffffffffffffffffffffffffffffff161461017d576040517f08c379a000000000000000000000000000000000000000000000000000000000815260040161017490610340565b60405180910390fd5b8073ffffffffffffffffffffffffffffffffffffffff166108fc479081150290604051600060405180830381858888f193505050501580156101c3573d6000803e3d6000fd5b5050565b6000819050919050565b6101da816101c7565b82525050565b60006020820190506101f560008301846101d1565b92915050565b600080fd5b600073ffffffffffffffffffffffffffffffffffffffff82169050919050565b600061022b82610200565b9050919050565b61023b81610220565b811461024657600080fd5b50565b60008135905061025881610232565b92915050565b600060208284031215610274576102736101fb565b5b600061028284828501610249565b91505092915050565b600061029682610200565b9050919050565b6102a68161028b565b82525050565b60006060820190506102c1600083018661029d565b6102ce60208301856101d1565b6102db60408301846101d1565b949350505050565b600082825260208201905092915050565b7f796f7520617265206e6f7420616e206f776e6572210000000000000000000000600082015250565b600061032a6015836102e3565b9150610335826102f4565b602082019050919050565b600060208201905081810360008301526103598161031d565b905091905056fea26469706673582212207b69866e4c161147bba19e0f8acb8792ed17c7cd9f5fbe98c98d32b6603fe61e64736f6c63430008090033",
  "linkReferences": {},
  "deployedLinkReferences": {}
}