{
  "_format": "hh-sol-artifact-1",
  "contractName": "Payments",
  "sourceName": "contracts/Payments.sol",
  "abi": [
    {
      "inputs": [
        {
          "internalType": "address",
          "name": "",
          "type": "address"
        }
      ],
      "name": "balances",
      "outputs": [
        {
          "internalType": "uint256",
          "name": "totalPayments",
          "type": "uint256"
        }
      ],
      "stateMutability": "view",
      "type": "function"
    },
    {
      "inputs": [],
      "name": "currentBalance",
      "outputs": [
        {
          "internalType": "uint256",
          "name": "",
          "type": "uint256"
        }
      ],
      "stateMutability": "view",
      "type": "function"
    },
    {
      "inputs": [
        {
          "internalType": "address",
          "name": "_address",
          "type": "address"
        },
        {
          "internalType": "uint256",
          "name": "_index",
          "type": "uint256"
        }
      ],
      "name": "getPayments",
      "outputs": [
        {
          "components": [
            {
              "internalType": "uint256",
              "name": "amount",
              "type": "uint256"
            },
            {
              "internalType": "uint256",
              "name": "timestamp",
              "type": "uint256"
            },
            {
              "internalType": "address",
              "name": "from",
              "type": "address"
            },
            {
              "internalType": "string",
              "name": "message",
              "type": "string"
            }
          ],
          "internalType": "struct Payments.Payment",
          "name": "",
          "type": "tuple"
        }
      ],
      "stateMutability": "view",
      "type": "function"
    },
    {
      "inputs": [
        {
          "internalType": "string",
          "name": "message",
          "type": "string"
        }
      ],
      "name": "pay",
      "outputs": [],
      "stateMutability": "payable",
      "type": "function"
    }
  ],
  "bytecode": "0x608060405234801561001057600080fd5b50610a28806100206000396000f3fe60806040526004361061003f5760003560e01c806327e235e31461004457806328f2d6cd146100815780632b66d72e146100be578063ce845d1d146100da575b600080fd5b34801561005057600080fd5b5061006b60048036038101906100669190610592565b610105565b60405161007891906105d8565b60405180910390f35b34801561008d57600080fd5b506100a860048036038101906100a3919061061f565b610123565b6040516100b59190610779565b60405180910390f35b6100d860048036038101906100d391906108d0565b61028c565b005b3480156100e657600080fd5b506100ef610437565b6040516100fc91906105d8565b60405180910390f35b60006020528060005260406000206000915090508060000154905081565b61012b61043f565b6000808473ffffffffffffffffffffffffffffffffffffffff1673ffffffffffffffffffffffffffffffffffffffff168152602001908152602001600020600101600083815260200190815260200160002060405180608001604052908160008201548152602001600182015481526020016002820160009054906101000a900473ffffffffffffffffffffffffffffffffffffffff1673ffffffffffffffffffffffffffffffffffffffff1673ffffffffffffffffffffffffffffffffffffffff16815260200160038201805461020290610948565b80601f016020809104026020016040519081016040528092919081815260200182805461022e90610948565b801561027b5780601f106102505761010080835404028352916020019161027b565b820191906000526020600020905b81548152906001019060200180831161025e57829003601f168201915b505050505081525050905092915050565b60008060003373ffffffffffffffffffffffffffffffffffffffff1673ffffffffffffffffffffffffffffffffffffffff1681526020019081526020016000206000015490506000803373ffffffffffffffffffffffffffffffffffffffff1673ffffffffffffffffffffffffffffffffffffffff1681526020019081526020016000206000016000815480929190610324906109a9565b9190505550600060405180608001604052803481526020014281526020013373ffffffffffffffffffffffffffffffffffffffff168152602001848152509050806000803373ffffffffffffffffffffffffffffffffffffffff1673ffffffffffffffffffffffffffffffffffffffff1681526020019081526020016000206001016000848152602001908152602001600020600082015181600001556020820151816001015560408201518160020160006101000a81548173ffffffffffffffffffffffffffffffffffffffff021916908373ffffffffffffffffffffffffffffffffffffffff160217905550606082015181600301908051906020019061042e92919061047d565b50905050505050565b600047905090565b60405180608001604052806000815260200160008152602001600073ffffffffffffffffffffffffffffffffffffffff168152602001606081525090565b82805461048990610948565b90600052602060002090601f0160209004810192826104ab57600085556104f2565b82601f106104c457805160ff19168380011785556104f2565b828001600101855582156104f2579182015b828111156104f15782518255916020019190600101906104d6565b5b5090506104ff9190610503565b5090565b5b8082111561051c576000816000905550600101610504565b5090565b6000604051905090565b600080fd5b600080fd5b600073ffffffffffffffffffffffffffffffffffffffff82169050919050565b600061055f82610534565b9050919050565b61056f81610554565b811461057a57600080fd5b50565b60008135905061058c81610566565b92915050565b6000602082840312156105a8576105a761052a565b5b60006105b68482850161057d565b91505092915050565b6000819050919050565b6105d2816105bf565b82525050565b60006020820190506105ed60008301846105c9565b92915050565b6105fc816105bf565b811461060757600080fd5b50565b600081359050610619816105f3565b92915050565b600080604083850312156106365761063561052a565b5b60006106448582860161057d565b92505060206106558582860161060a565b9150509250929050565b610668816105bf565b82525050565b61067781610554565b82525050565b600081519050919050565b600082825260208201905092915050565b60005b838110156106b757808201518184015260208101905061069c565b838111156106c6576000848401525b50505050565b6000601f19601f8301169050919050565b60006106e88261067d565b6106f28185610688565b9350610702818560208601610699565b61070b816106cc565b840191505092915050565b600060808301600083015161072e600086018261065f565b506020830151610741602086018261065f565b506040830151610754604086018261066e565b506060830151848203606086015261076c82826106dd565b9150508091505092915050565b600060208201905081810360008301526107938184610716565b905092915050565b600080fd5b600080fd5b7f4e487b7100000000000000000000000000000000000000000000000000000000600052604160045260246000fd5b6107dd826106cc565b810181811067ffffffffffffffff821117156107fc576107fb6107a5565b5b80604052505050565b600061080f610520565b905061081b82826107d4565b919050565b600067ffffffffffffffff82111561083b5761083a6107a5565b5b610844826106cc565b9050602081019050919050565b82818337600083830152505050565b600061087361086e84610820565b610805565b90508281526020810184848401111561088f5761088e6107a0565b5b61089a848285610851565b509392505050565b600082601f8301126108b7576108b661079b565b5b81356108c7848260208601610860565b91505092915050565b6000602082840312156108e6576108e561052a565b5b600082013567ffffffffffffffff8111156109045761090361052f565b5b610910848285016108a2565b91505092915050565b7f4e487b7100000000000000000000000000000000000000000000000000000000600052602260045260246000fd5b6000600282049050600182168061096057607f821691505b6020821081141561097457610973610919565b5b50919050565b7f4e487b7100000000000000000000000000000000000000000000000000000000600052601160045260246000fd5b60006109b4826105bf565b91507fffffffffffffffffffffffffffffffffffffffffffffffffffffffffffffffff8214156109e7576109e661097a565b5b60018201905091905056fea264697066735822122028cf7fd106bdea10775ee471960559cc1d2384be3443a8ad5485450ff49c36e664736f6c63430008090033",
  "linkReferences": {},
  "deployedLinkReferences": {}
}