{
	"Users/ivan/solidity/testing/contracts/OwnerPayments.sol": {
		"OwnerPayments": {
			"abi": [
				{
					"inputs": [],
					"stateMutability": "nonpayable",
					"type": "constructor"
				},
				{
					"anonymous": false,
					"inputs": [
						{
							"indexed": false,
							"internalType": "address",
							"name": "_from",
							"type": "address"
						},
						{
							"indexed": false,
							"internalType": "uint256",
							"name": "_amount",
							"type": "uint256"
						},
						{
							"indexed": false,
							"internalType": "uint256",
							"name": "_timestamp",
							"type": "uint256"
						}
					],
					"name": "Paid",
					"type": "event"
				},
				{
					"inputs": [],
					"name": "getBalance",
					"outputs": [
						{
							"internalType": "uint256",
							"name": "",
							"type": "uint256"
						}
					],
					"stateMutability": "view",
					"type": "function"
				},
				{
					"inputs": [],
					"name": "pay",
					"outputs": [],
					"stateMutability": "payable",
					"type": "function"
				},
				{
					"inputs": [
						{
							"internalType": "address payable",
							"name": "_to",
							"type": "address"
						}
					],
					"name": "withdraw",
					"outputs": [],
					"stateMutability": "nonpayable",
					"type": "function"
				},
				{
					"stateMutability": "payable",
					"type": "receive"
				}
			],
			"devdoc": {
				"kind": "dev",
				"methods": {},
				"version": 1
			},
			"evm": {
				"assembly": "    /* \"Users/ivan/solidity/testing/contracts/OwnerPayments.sol\":65:720  contract OwnerPayments {... */\n  mstore(0x40, 0x80)\n    /* \"Users/ivan/solidity/testing/contracts/OwnerPayments.sol\":119:167  constructor(){... */\n  callvalue\n  dup1\n  iszero\n  tag_1\n  jumpi\n  0x00\n  dup1\n  revert\ntag_1:\n  pop\n    /* \"Users/ivan/solidity/testing/contracts/OwnerPayments.sol\":150:160  msg.sender */\n  caller\n    /* \"Users/ivan/solidity/testing/contracts/OwnerPayments.sol\":142:147  owner */\n  0x00\n  dup1\n    /* \"Users/ivan/solidity/testing/contracts/OwnerPayments.sol\":142:160  owner = msg.sender */\n  0x0100\n  exp\n  dup2\n  sload\n  dup2\n  0xffffffffffffffffffffffffffffffffffffffff\n  mul\n  not\n  and\n  swap1\n  dup4\n  0xffffffffffffffffffffffffffffffffffffffff\n  and\n  mul\n  or\n  swap1\n  sstore\n  pop\n    /* \"Users/ivan/solidity/testing/contracts/OwnerPayments.sol\":65:720  contract OwnerPayments {... */\n  dataSize(sub_0)\n  dup1\n  dataOffset(sub_0)\n  0x00\n  codecopy\n  0x00\n  return\nstop\n\nsub_0: assembly {\n        /* \"Users/ivan/solidity/testing/contracts/OwnerPayments.sol\":65:720  contract OwnerPayments {... */\n      mstore(0x40, 0x80)\n      jumpi(tag_1, lt(calldatasize, 0x04))\n      shr(0xe0, calldataload(0x00))\n      dup1\n      0x12065fe0\n      eq\n      tag_3\n      jumpi\n      dup1\n      0x1b9265b8\n      eq\n      tag_4\n      jumpi\n      dup1\n      0x51cff8d9\n      eq\n      tag_5\n      jumpi\n      jump(tag_2)\n    tag_1:\n      jumpi(tag_2, calldatasize)\n        /* \"Users/ivan/solidity/testing/contracts/OwnerPayments.sol\":381:386  pay() */\n      tag_8\n        /* \"Users/ivan/solidity/testing/contracts/OwnerPayments.sol\":381:384  pay */\n      tag_9\n        /* \"Users/ivan/solidity/testing/contracts/OwnerPayments.sol\":381:386  pay() */\n      jump\t// in\n    tag_8:\n        /* \"Users/ivan/solidity/testing/contracts/OwnerPayments.sol\":65:720  contract OwnerPayments {... */\n      stop\n    tag_2:\n      0x00\n      dup1\n      revert\n        /* \"Users/ivan/solidity/testing/contracts/OwnerPayments.sol\":621:713  function getBalance() public view returns(uint){... */\n    tag_3:\n      callvalue\n      dup1\n      iszero\n      tag_10\n      jumpi\n      0x00\n      dup1\n      revert\n    tag_10:\n      pop\n      tag_11\n      tag_12\n      jump\t// in\n    tag_11:\n      mload(0x40)\n      tag_13\n      swap2\n      swap1\n      tag_14\n      jump\t// in\n    tag_13:\n      mload(0x40)\n      dup1\n      swap2\n      sub\n      swap1\n      return\n        /* \"Users/ivan/solidity/testing/contracts/OwnerPayments.sol\":403:499  function pay() public payable {... */\n    tag_4:\n      tag_15\n      tag_9\n      jump\t// in\n    tag_15:\n      stop\n        /* \"Users/ivan/solidity/testing/contracts/OwnerPayments.sol\":505:615  function withdraw(address payable _to) external onlyOwner {... */\n    tag_5:\n      callvalue\n      dup1\n      iszero\n      tag_16\n      jumpi\n      0x00\n      dup1\n      revert\n    tag_16:\n      pop\n      tag_17\n      0x04\n      dup1\n      calldatasize\n      sub\n      dup2\n      add\n      swap1\n      tag_18\n      swap2\n      swap1\n      tag_19\n      jump\t// in\n    tag_18:\n      tag_20\n      jump\t// in\n    tag_17:\n      stop\n        /* \"Users/ivan/solidity/testing/contracts/OwnerPayments.sol\":403:499  function pay() public payable {... */\n    tag_9:\n        /* \"Users/ivan/solidity/testing/contracts/OwnerPayments.sol\":448:492  Paid(msg.sender, msg.value, block.timestamp) */\n      0xdf9a51129930649214df58f542322c245372c6f2fa6fc3c9b40d927c597cd230\n        /* \"Users/ivan/solidity/testing/contracts/OwnerPayments.sol\":453:463  msg.sender */\n      caller\n        /* \"Users/ivan/solidity/testing/contracts/OwnerPayments.sol\":465:474  msg.value */\n      callvalue\n        /* \"Users/ivan/solidity/testing/contracts/OwnerPayments.sol\":476:491  block.timestamp */\n      timestamp\n        /* \"Users/ivan/solidity/testing/contracts/OwnerPayments.sol\":448:492  Paid(msg.sender, msg.value, block.timestamp) */\n      mload(0x40)\n      tag_22\n      swap4\n      swap3\n      swap2\n      swap1\n      tag_23\n      jump\t// in\n    tag_22:\n      mload(0x40)\n      dup1\n      swap2\n      sub\n      swap1\n      log1\n        /* \"Users/ivan/solidity/testing/contracts/OwnerPayments.sol\":403:499  function pay() public payable {... */\n      jump\t// out\n        /* \"Users/ivan/solidity/testing/contracts/OwnerPayments.sol\":621:713  function getBalance() public view returns(uint){... */\n    tag_12:\n        /* \"Users/ivan/solidity/testing/contracts/OwnerPayments.sol\":663:667  uint */\n      0x00\n        /* \"Users/ivan/solidity/testing/contracts/OwnerPayments.sol\":685:706  address(this).balance */\n      selfbalance\n        /* \"Users/ivan/solidity/testing/contracts/OwnerPayments.sol\":678:706  return address(this).balance */\n      swap1\n      pop\n        /* \"Users/ivan/solidity/testing/contracts/OwnerPayments.sol\":621:713  function getBalance() public view returns(uint){... */\n      swap1\n      jump\t// out\n        /* \"Users/ivan/solidity/testing/contracts/OwnerPayments.sol\":505:615  function withdraw(address payable _to) external onlyOwner {... */\n    tag_20:\n        /* \"Users/ivan/solidity/testing/contracts/OwnerPayments.sol\":289:294  owner */\n      0x00\n      dup1\n      sload\n      swap1\n      0x0100\n      exp\n      swap1\n      div\n      0xffffffffffffffffffffffffffffffffffffffff\n      and\n        /* \"Users/ivan/solidity/testing/contracts/OwnerPayments.sol\":275:294  msg.sender == owner */\n      0xffffffffffffffffffffffffffffffffffffffff\n      and\n        /* \"Users/ivan/solidity/testing/contracts/OwnerPayments.sol\":275:285  msg.sender */\n      caller\n        /* \"Users/ivan/solidity/testing/contracts/OwnerPayments.sol\":275:294  msg.sender == owner */\n      0xffffffffffffffffffffffffffffffffffffffff\n      and\n      eq\n        /* \"Users/ivan/solidity/testing/contracts/OwnerPayments.sol\":267:320  require(msg.sender == owner, \"you are not an owner!\") */\n      tag_26\n      jumpi\n      mload(0x40)\n      0x08c379a000000000000000000000000000000000000000000000000000000000\n      dup2\n      mstore\n      0x04\n      add\n      tag_27\n      swap1\n      tag_28\n      jump\t// in\n    tag_27:\n      mload(0x40)\n      dup1\n      swap2\n      sub\n      swap1\n      revert\n    tag_26:\n        /* \"Users/ivan/solidity/testing/contracts/OwnerPayments.sol\":573:576  _to */\n      dup1\n        /* \"Users/ivan/solidity/testing/contracts/OwnerPayments.sol\":573:585  _to.transfer */\n      0xffffffffffffffffffffffffffffffffffffffff\n      and\n        /* \"Users/ivan/solidity/testing/contracts/OwnerPayments.sol\":573:608  _to.transfer(address(this).balance) */\n      0x08fc\n        /* \"Users/ivan/solidity/testing/contracts/OwnerPayments.sol\":586:607  address(this).balance */\n      selfbalance\n        /* \"Users/ivan/solidity/testing/contracts/OwnerPayments.sol\":573:608  _to.transfer(address(this).balance) */\n      swap1\n      dup2\n      iszero\n      mul\n      swap1\n      mload(0x40)\n      0x00\n      mload(0x40)\n      dup1\n      dup4\n      sub\n      dup2\n      dup6\n      dup9\n      dup9\n      call\n      swap4\n      pop\n      pop\n      pop\n      pop\n      iszero\n      dup1\n      iszero\n      tag_31\n      jumpi\n      returndatasize\n      0x00\n      dup1\n      returndatacopy\n      revert(0x00, returndatasize)\n    tag_31:\n      pop\n        /* \"Users/ivan/solidity/testing/contracts/OwnerPayments.sol\":505:615  function withdraw(address payable _to) external onlyOwner {... */\n      pop\n      jump\t// out\n        /* \"#utility.yul\":7:162   */\n    tag_33:\n        /* \"#utility.yul\":61:66   */\n      0x00\n        /* \"#utility.yul\":99:105   */\n      dup2\n        /* \"#utility.yul\":86:106   */\n      calldataload\n        /* \"#utility.yul\":77:106   */\n      swap1\n      pop\n        /* \"#utility.yul\":115:156   */\n      tag_35\n        /* \"#utility.yul\":150:155   */\n      dup2\n        /* \"#utility.yul\":115:156   */\n      tag_36\n      jump\t// in\n    tag_35:\n        /* \"#utility.yul\":7:162   */\n      swap3\n      swap2\n      pop\n      pop\n      jump\t// out\n        /* \"#utility.yul\":168:513   */\n    tag_19:\n        /* \"#utility.yul\":235:241   */\n      0x00\n        /* \"#utility.yul\":284:286   */\n      0x20\n        /* \"#utility.yul\":272:281   */\n      dup3\n        /* \"#utility.yul\":263:270   */\n      dup5\n        /* \"#utility.yul\":259:282   */\n      sub\n        /* \"#utility.yul\":255:287   */\n      slt\n        /* \"#utility.yul\":252:371   */\n      iszero\n      tag_38\n      jumpi\n        /* \"#utility.yul\":290:369   */\n      tag_39\n      tag_40\n      jump\t// in\n    tag_39:\n        /* \"#utility.yul\":252:371   */\n    tag_38:\n        /* \"#utility.yul\":410:411   */\n      0x00\n        /* \"#utility.yul\":435:496   */\n      tag_41\n        /* \"#utility.yul\":488:495   */\n      dup5\n        /* \"#utility.yul\":479:485   */\n      dup3\n        /* \"#utility.yul\":468:477   */\n      dup6\n        /* \"#utility.yul\":464:486   */\n      add\n        /* \"#utility.yul\":435:496   */\n      tag_33\n      jump\t// in\n    tag_41:\n        /* \"#utility.yul\":425:496   */\n      swap2\n      pop\n        /* \"#utility.yul\":381:506   */\n      pop\n        /* \"#utility.yul\":168:513   */\n      swap3\n      swap2\n      pop\n      pop\n      jump\t// out\n        /* \"#utility.yul\":519:637   */\n    tag_42:\n        /* \"#utility.yul\":606:630   */\n      tag_44\n        /* \"#utility.yul\":624:629   */\n      dup2\n        /* \"#utility.yul\":606:630   */\n      tag_45\n      jump\t// in\n    tag_44:\n        /* \"#utility.yul\":601:604   */\n      dup3\n        /* \"#utility.yul\":594:631   */\n      mstore\n        /* \"#utility.yul\":519:637   */\n      pop\n      pop\n      jump\t// out\n        /* \"#utility.yul\":643:1009   */\n    tag_46:\n        /* \"#utility.yul\":785:788   */\n      0x00\n        /* \"#utility.yul\":806:873   */\n      tag_48\n        /* \"#utility.yul\":870:872   */\n      0x15\n        /* \"#utility.yul\":865:868   */\n      dup4\n        /* \"#utility.yul\":806:873   */\n      tag_49\n      jump\t// in\n    tag_48:\n        /* \"#utility.yul\":799:873   */\n      swap2\n      pop\n        /* \"#utility.yul\":882:975   */\n      tag_50\n        /* \"#utility.yul\":971:974   */\n      dup3\n        /* \"#utility.yul\":882:975   */\n      tag_51\n      jump\t// in\n    tag_50:\n        /* \"#utility.yul\":1000:1002   */\n      0x20\n        /* \"#utility.yul\":995:998   */\n      dup3\n        /* \"#utility.yul\":991:1003   */\n      add\n        /* \"#utility.yul\":984:1003   */\n      swap1\n      pop\n        /* \"#utility.yul\":643:1009   */\n      swap2\n      swap1\n      pop\n      jump\t// out\n        /* \"#utility.yul\":1015:1133   */\n    tag_52:\n        /* \"#utility.yul\":1102:1126   */\n      tag_54\n        /* \"#utility.yul\":1120:1125   */\n      dup2\n        /* \"#utility.yul\":1102:1126   */\n      tag_55\n      jump\t// in\n    tag_54:\n        /* \"#utility.yul\":1097:1100   */\n      dup3\n        /* \"#utility.yul\":1090:1127   */\n      mstore\n        /* \"#utility.yul\":1015:1133   */\n      pop\n      pop\n      jump\t// out\n        /* \"#utility.yul\":1139:1581   */\n    tag_23:\n        /* \"#utility.yul\":1288:1292   */\n      0x00\n        /* \"#utility.yul\":1326:1328   */\n      0x60\n        /* \"#utility.yul\":1315:1324   */\n      dup3\n        /* \"#utility.yul\":1311:1329   */\n      add\n        /* \"#utility.yul\":1303:1329   */\n      swap1\n      pop\n        /* \"#utility.yul\":1339:1410   */\n      tag_57\n        /* \"#utility.yul\":1407:1408   */\n      0x00\n        /* \"#utility.yul\":1396:1405   */\n      dup4\n        /* \"#utility.yul\":1392:1409   */\n      add\n        /* \"#utility.yul\":1383:1389   */\n      dup7\n        /* \"#utility.yul\":1339:1410   */\n      tag_42\n      jump\t// in\n    tag_57:\n        /* \"#utility.yul\":1420:1492   */\n      tag_58\n        /* \"#utility.yul\":1488:1490   */\n      0x20\n        /* \"#utility.yul\":1477:1486   */\n      dup4\n        /* \"#utility.yul\":1473:1491   */\n      add\n        /* \"#utility.yul\":1464:1470   */\n      dup6\n        /* \"#utility.yul\":1420:1492   */\n      tag_52\n      jump\t// in\n    tag_58:\n        /* \"#utility.yul\":1502:1574   */\n      tag_59\n        /* \"#utility.yul\":1570:1572   */\n      0x40\n        /* \"#utility.yul\":1559:1568   */\n      dup4\n        /* \"#utility.yul\":1555:1573   */\n      add\n        /* \"#utility.yul\":1546:1552   */\n      dup5\n        /* \"#utility.yul\":1502:1574   */\n      tag_52\n      jump\t// in\n    tag_59:\n        /* \"#utility.yul\":1139:1581   */\n      swap5\n      swap4\n      pop\n      pop\n      pop\n      pop\n      jump\t// out\n        /* \"#utility.yul\":1587:2006   */\n    tag_28:\n        /* \"#utility.yul\":1753:1757   */\n      0x00\n        /* \"#utility.yul\":1791:1793   */\n      0x20\n        /* \"#utility.yul\":1780:1789   */\n      dup3\n        /* \"#utility.yul\":1776:1794   */\n      add\n        /* \"#utility.yul\":1768:1794   */\n      swap1\n      pop\n        /* \"#utility.yul\":1840:1849   */\n      dup2\n        /* \"#utility.yul\":1834:1838   */\n      dup2\n        /* \"#utility.yul\":1830:1850   */\n      sub\n        /* \"#utility.yul\":1826:1827   */\n      0x00\n        /* \"#utility.yul\":1815:1824   */\n      dup4\n        /* \"#utility.yul\":1811:1828   */\n      add\n        /* \"#utility.yul\":1804:1851   */\n      mstore\n        /* \"#utility.yul\":1868:1999   */\n      tag_61\n        /* \"#utility.yul\":1994:1998   */\n      dup2\n        /* \"#utility.yul\":1868:1999   */\n      tag_46\n      jump\t// in\n    tag_61:\n        /* \"#utility.yul\":1860:1999   */\n      swap1\n      pop\n        /* \"#utility.yul\":1587:2006   */\n      swap2\n      swap1\n      pop\n      jump\t// out\n        /* \"#utility.yul\":2012:2234   */\n    tag_14:\n        /* \"#utility.yul\":2105:2109   */\n      0x00\n        /* \"#utility.yul\":2143:2145   */\n      0x20\n        /* \"#utility.yul\":2132:2141   */\n      dup3\n        /* \"#utility.yul\":2128:2146   */\n      add\n        /* \"#utility.yul\":2120:2146   */\n      swap1\n      pop\n        /* \"#utility.yul\":2156:2227   */\n      tag_63\n        /* \"#utility.yul\":2224:2225   */\n      0x00\n        /* \"#utility.yul\":2213:2222   */\n      dup4\n        /* \"#utility.yul\":2209:2226   */\n      add\n        /* \"#utility.yul\":2200:2206   */\n      dup5\n        /* \"#utility.yul\":2156:2227   */\n      tag_52\n      jump\t// in\n    tag_63:\n        /* \"#utility.yul\":2012:2234   */\n      swap3\n      swap2\n      pop\n      pop\n      jump\t// out\n        /* \"#utility.yul\":2321:2490   */\n    tag_49:\n        /* \"#utility.yul\":2405:2416   */\n      0x00\n        /* \"#utility.yul\":2439:2445   */\n      dup3\n        /* \"#utility.yul\":2434:2437   */\n      dup3\n        /* \"#utility.yul\":2427:2446   */\n      mstore\n        /* \"#utility.yul\":2479:2483   */\n      0x20\n        /* \"#utility.yul\":2474:2477   */\n      dup3\n        /* \"#utility.yul\":2470:2484   */\n      add\n        /* \"#utility.yul\":2455:2484   */\n      swap1\n      pop\n        /* \"#utility.yul\":2321:2490   */\n      swap3\n      swap2\n      pop\n      pop\n      jump\t// out\n        /* \"#utility.yul\":2496:2592   */\n    tag_45:\n        /* \"#utility.yul\":2533:2540   */\n      0x00\n        /* \"#utility.yul\":2562:2586   */\n      tag_68\n        /* \"#utility.yul\":2580:2585   */\n      dup3\n        /* \"#utility.yul\":2562:2586   */\n      tag_69\n      jump\t// in\n    tag_68:\n        /* \"#utility.yul\":2551:2586   */\n      swap1\n      pop\n        /* \"#utility.yul\":2496:2592   */\n      swap2\n      swap1\n      pop\n      jump\t// out\n        /* \"#utility.yul\":2598:2702   */\n    tag_70:\n        /* \"#utility.yul\":2643:2650   */\n      0x00\n        /* \"#utility.yul\":2672:2696   */\n      tag_72\n        /* \"#utility.yul\":2690:2695   */\n      dup3\n        /* \"#utility.yul\":2672:2696   */\n      tag_69\n      jump\t// in\n    tag_72:\n        /* \"#utility.yul\":2661:2696   */\n      swap1\n      pop\n        /* \"#utility.yul\":2598:2702   */\n      swap2\n      swap1\n      pop\n      jump\t// out\n        /* \"#utility.yul\":2708:2834   */\n    tag_69:\n        /* \"#utility.yul\":2745:2752   */\n      0x00\n        /* \"#utility.yul\":2785:2827   */\n      0xffffffffffffffffffffffffffffffffffffffff\n        /* \"#utility.yul\":2778:2783   */\n      dup3\n        /* \"#utility.yul\":2774:2828   */\n      and\n        /* \"#utility.yul\":2763:2828   */\n      swap1\n      pop\n        /* \"#utility.yul\":2708:2834   */\n      swap2\n      swap1\n      pop\n      jump\t// out\n        /* \"#utility.yul\":2840:2917   */\n    tag_55:\n        /* \"#utility.yul\":2877:2884   */\n      0x00\n        /* \"#utility.yul\":2906:2911   */\n      dup2\n        /* \"#utility.yul\":2895:2911   */\n      swap1\n      pop\n        /* \"#utility.yul\":2840:2917   */\n      swap2\n      swap1\n      pop\n      jump\t// out\n        /* \"#utility.yul\":3046:3163   */\n    tag_40:\n        /* \"#utility.yul\":3155:3156   */\n      0x00\n        /* \"#utility.yul\":3152:3153   */\n      dup1\n        /* \"#utility.yul\":3145:3157   */\n      revert\n        /* \"#utility.yul\":3169:3340   */\n    tag_51:\n        /* \"#utility.yul\":3309:3332   */\n      0x796f7520617265206e6f7420616e206f776e6572210000000000000000000000\n        /* \"#utility.yul\":3305:3306   */\n      0x00\n        /* \"#utility.yul\":3297:3303   */\n      dup3\n        /* \"#utility.yul\":3293:3307   */\n      add\n        /* \"#utility.yul\":3286:3333   */\n      mstore\n        /* \"#utility.yul\":3169:3340   */\n      pop\n      jump\t// out\n        /* \"#utility.yul\":3346:3484   */\n    tag_36:\n        /* \"#utility.yul\":3427:3459   */\n      tag_80\n        /* \"#utility.yul\":3453:3458   */\n      dup2\n        /* \"#utility.yul\":3427:3459   */\n      tag_70\n      jump\t// in\n    tag_80:\n        /* \"#utility.yul\":3420:3425   */\n      dup2\n        /* \"#utility.yul\":3417:3460   */\n      eq\n        /* \"#utility.yul\":3407:3478   */\n      tag_81\n      jumpi\n        /* \"#utility.yul\":3474:3475   */\n      0x00\n        /* \"#utility.yul\":3471:3472   */\n      dup1\n        /* \"#utility.yul\":3464:3476   */\n      revert\n        /* \"#utility.yul\":3407:3478   */\n    tag_81:\n        /* \"#utility.yul\":3346:3484   */\n      pop\n      jump\t// out\n\n    auxdata: 0xa264697066735822122025acbbc06ca525e6e405b163b8cf885875453374b71bef1ebda1ed1641132d5164736f6c63430008070033\n}\n",
				"bytecode": {
					"linkReferences": {},
					"object": "608060405234801561001057600080fd5b50336000806101000a81548173ffffffffffffffffffffffffffffffffffffffff021916908373ffffffffffffffffffffffffffffffffffffffff160217905550610396806100606000396000f3fe6080604052600436106100385760003560e01c806312065fe01461004c5780631b9265b81461007757806351cff8d91461008157610047565b36610047576100456100aa565b005b600080fd5b34801561005857600080fd5b506100616100e7565b60405161006e91906102a1565b60405180910390f35b61007f6100aa565b005b34801561008d57600080fd5b506100a860048036038101906100a391906101dc565b6100ef565b005b7fdf9a51129930649214df58f542322c245372c6f2fa6fc3c9b40d927c597cd2303334426040516100dd9392919061024a565b60405180910390a1565b600047905090565b60008054906101000a900473ffffffffffffffffffffffffffffffffffffffff1673ffffffffffffffffffffffffffffffffffffffff163373ffffffffffffffffffffffffffffffffffffffff161461017d576040517f08c379a000000000000000000000000000000000000000000000000000000000815260040161017490610281565b60405180910390fd5b8073ffffffffffffffffffffffffffffffffffffffff166108fc479081150290604051600060405180830381858888f193505050501580156101c3573d6000803e3d6000fd5b5050565b6000813590506101d681610349565b92915050565b6000602082840312156101f2576101f161031b565b5b6000610200848285016101c7565b91505092915050565b610212816102cd565b82525050565b60006102256015836102bc565b915061023082610320565b602082019050919050565b61024481610311565b82525050565b600060608201905061025f6000830186610209565b61026c602083018561023b565b610279604083018461023b565b949350505050565b6000602082019050818103600083015261029a81610218565b9050919050565b60006020820190506102b6600083018461023b565b92915050565b600082825260208201905092915050565b60006102d8826102f1565b9050919050565b60006102ea826102f1565b9050919050565b600073ffffffffffffffffffffffffffffffffffffffff82169050919050565b6000819050919050565b600080fd5b7f796f7520617265206e6f7420616e206f776e6572210000000000000000000000600082015250565b610352816102df565b811461035d57600080fd5b5056fea264697066735822122025acbbc06ca525e6e405b163b8cf885875453374b71bef1ebda1ed1641132d5164736f6c63430008070033",
					"opcodes": "PUSH1 0x80 PUSH1 0x40 MSTORE CALLVALUE DUP1 ISZERO PUSH2 0x10 JUMPI PUSH1 0x0 DUP1 REVERT JUMPDEST POP CALLER PUSH1 0x0 DUP1 PUSH2 0x100 EXP DUP2 SLOAD DUP2 PUSH20 0xFFFFFFFFFFFFFFFFFFFFFFFFFFFFFFFFFFFFFFFF MUL NOT AND SWAP1 DUP4 PUSH20 0xFFFFFFFFFFFFFFFFFFFFFFFFFFFFFFFFFFFFFFFF AND MUL OR SWAP1 SSTORE POP PUSH2 0x396 DUP1 PUSH2 0x60 PUSH1 0x0 CODECOPY PUSH1 0x0 RETURN INVALID PUSH1 0x80 PUSH1 0x40 MSTORE PUSH1 0x4 CALLDATASIZE LT PUSH2 0x38 JUMPI PUSH1 0x0 CALLDATALOAD PUSH1 0xE0 SHR DUP1 PUSH4 0x12065FE0 EQ PUSH2 0x4C JUMPI DUP1 PUSH4 0x1B9265B8 EQ PUSH2 0x77 JUMPI DUP1 PUSH4 0x51CFF8D9 EQ PUSH2 0x81 JUMPI PUSH2 0x47 JUMP JUMPDEST CALLDATASIZE PUSH2 0x47 JUMPI PUSH2 0x45 PUSH2 0xAA JUMP JUMPDEST STOP JUMPDEST PUSH1 0x0 DUP1 REVERT JUMPDEST CALLVALUE DUP1 ISZERO PUSH2 0x58 JUMPI PUSH1 0x0 DUP1 REVERT JUMPDEST POP PUSH2 0x61 PUSH2 0xE7 JUMP JUMPDEST PUSH1 0x40 MLOAD PUSH2 0x6E SWAP2 SWAP1 PUSH2 0x2A1 JUMP JUMPDEST PUSH1 0x40 MLOAD DUP1 SWAP2 SUB SWAP1 RETURN JUMPDEST PUSH2 0x7F PUSH2 0xAA JUMP JUMPDEST STOP JUMPDEST CALLVALUE DUP1 ISZERO PUSH2 0x8D JUMPI PUSH1 0x0 DUP1 REVERT JUMPDEST POP PUSH2 0xA8 PUSH1 0x4 DUP1 CALLDATASIZE SUB DUP2 ADD SWAP1 PUSH2 0xA3 SWAP2 SWAP1 PUSH2 0x1DC JUMP JUMPDEST PUSH2 0xEF JUMP JUMPDEST STOP JUMPDEST PUSH32 0xDF9A51129930649214DF58F542322C245372C6F2FA6FC3C9B40D927C597CD230 CALLER CALLVALUE TIMESTAMP PUSH1 0x40 MLOAD PUSH2 0xDD SWAP4 SWAP3 SWAP2 SWAP1 PUSH2 0x24A JUMP JUMPDEST PUSH1 0x40 MLOAD DUP1 SWAP2 SUB SWAP1 LOG1 JUMP JUMPDEST PUSH1 0x0 SELFBALANCE SWAP1 POP SWAP1 JUMP JUMPDEST PUSH1 0x0 DUP1 SLOAD SWAP1 PUSH2 0x100 EXP SWAP1 DIV PUSH20 0xFFFFFFFFFFFFFFFFFFFFFFFFFFFFFFFFFFFFFFFF AND PUSH20 0xFFFFFFFFFFFFFFFFFFFFFFFFFFFFFFFFFFFFFFFF AND CALLER PUSH20 0xFFFFFFFFFFFFFFFFFFFFFFFFFFFFFFFFFFFFFFFF AND EQ PUSH2 0x17D JUMPI PUSH1 0x40 MLOAD PUSH32 0x8C379A000000000000000000000000000000000000000000000000000000000 DUP2 MSTORE PUSH1 0x4 ADD PUSH2 0x174 SWAP1 PUSH2 0x281 JUMP JUMPDEST PUSH1 0x40 MLOAD DUP1 SWAP2 SUB SWAP1 REVERT JUMPDEST DUP1 PUSH20 0xFFFFFFFFFFFFFFFFFFFFFFFFFFFFFFFFFFFFFFFF AND PUSH2 0x8FC SELFBALANCE SWAP1 DUP2 ISZERO MUL SWAP1 PUSH1 0x40 MLOAD PUSH1 0x0 PUSH1 0x40 MLOAD DUP1 DUP4 SUB DUP2 DUP6 DUP9 DUP9 CALL SWAP4 POP POP POP POP ISZERO DUP1 ISZERO PUSH2 0x1C3 JUMPI RETURNDATASIZE PUSH1 0x0 DUP1 RETURNDATACOPY RETURNDATASIZE PUSH1 0x0 REVERT JUMPDEST POP POP JUMP JUMPDEST PUSH1 0x0 DUP2 CALLDATALOAD SWAP1 POP PUSH2 0x1D6 DUP2 PUSH2 0x349 JUMP JUMPDEST SWAP3 SWAP2 POP POP JUMP JUMPDEST PUSH1 0x0 PUSH1 0x20 DUP3 DUP5 SUB SLT ISZERO PUSH2 0x1F2 JUMPI PUSH2 0x1F1 PUSH2 0x31B JUMP JUMPDEST JUMPDEST PUSH1 0x0 PUSH2 0x200 DUP5 DUP3 DUP6 ADD PUSH2 0x1C7 JUMP JUMPDEST SWAP2 POP POP SWAP3 SWAP2 POP POP JUMP JUMPDEST PUSH2 0x212 DUP2 PUSH2 0x2CD JUMP JUMPDEST DUP3 MSTORE POP POP JUMP JUMPDEST PUSH1 0x0 PUSH2 0x225 PUSH1 0x15 DUP4 PUSH2 0x2BC JUMP JUMPDEST SWAP2 POP PUSH2 0x230 DUP3 PUSH2 0x320 JUMP JUMPDEST PUSH1 0x20 DUP3 ADD SWAP1 POP SWAP2 SWAP1 POP JUMP JUMPDEST PUSH2 0x244 DUP2 PUSH2 0x311 JUMP JUMPDEST DUP3 MSTORE POP POP JUMP JUMPDEST PUSH1 0x0 PUSH1 0x60 DUP3 ADD SWAP1 POP PUSH2 0x25F PUSH1 0x0 DUP4 ADD DUP7 PUSH2 0x209 JUMP JUMPDEST PUSH2 0x26C PUSH1 0x20 DUP4 ADD DUP6 PUSH2 0x23B JUMP JUMPDEST PUSH2 0x279 PUSH1 0x40 DUP4 ADD DUP5 PUSH2 0x23B JUMP JUMPDEST SWAP5 SWAP4 POP POP POP POP JUMP JUMPDEST PUSH1 0x0 PUSH1 0x20 DUP3 ADD SWAP1 POP DUP2 DUP2 SUB PUSH1 0x0 DUP4 ADD MSTORE PUSH2 0x29A DUP2 PUSH2 0x218 JUMP JUMPDEST SWAP1 POP SWAP2 SWAP1 POP JUMP JUMPDEST PUSH1 0x0 PUSH1 0x20 DUP3 ADD SWAP1 POP PUSH2 0x2B6 PUSH1 0x0 DUP4 ADD DUP5 PUSH2 0x23B JUMP JUMPDEST SWAP3 SWAP2 POP POP JUMP JUMPDEST PUSH1 0x0 DUP3 DUP3 MSTORE PUSH1 0x20 DUP3 ADD SWAP1 POP SWAP3 SWAP2 POP POP JUMP JUMPDEST PUSH1 0x0 PUSH2 0x2D8 DUP3 PUSH2 0x2F1 JUMP JUMPDEST SWAP1 POP SWAP2 SWAP1 POP JUMP JUMPDEST PUSH1 0x0 PUSH2 0x2EA DUP3 PUSH2 0x2F1 JUMP JUMPDEST SWAP1 POP SWAP2 SWAP1 POP JUMP JUMPDEST PUSH1 0x0 PUSH20 0xFFFFFFFFFFFFFFFFFFFFFFFFFFFFFFFFFFFFFFFF DUP3 AND SWAP1 POP SWAP2 SWAP1 POP JUMP JUMPDEST PUSH1 0x0 DUP2 SWAP1 POP SWAP2 SWAP1 POP JUMP JUMPDEST PUSH1 0x0 DUP1 REVERT JUMPDEST PUSH32 0x796F7520617265206E6F7420616E206F776E6572210000000000000000000000 PUSH1 0x0 DUP3 ADD MSTORE POP JUMP JUMPDEST PUSH2 0x352 DUP2 PUSH2 0x2DF JUMP JUMPDEST DUP2 EQ PUSH2 0x35D JUMPI PUSH1 0x0 DUP1 REVERT JUMPDEST POP JUMP INVALID LOG2 PUSH5 0x6970667358 0x22 SLT KECCAK256 0x25 0xAC 0xBB 0xC0 PUSH13 0xA525E6E405B163B8CF88587545 CALLER PUSH21 0xB71BEF1EBDA1ED1641132D5164736F6C6343000807 STOP CALLER "
				},
				"gasEstimates": {
					"creation": {
						"codeDepositCost": "183600",
						"executionCost": "24492",
						"totalCost": "208092"
					},
					"external": {
						"getBalance()": "317",
						"pay()": "infinite",
						"withdraw(address)": "infinite"
					}
				},
				"methodIdentifiers": {
					"getBalance()": "12065fe0",
					"pay()": "1b9265b8",
					"withdraw(address)": "51cff8d9"
				}
			},
			"storageLayout": {
				"storage": [
					{
						"astId": 3,
						"contract": "Users/ivan/solidity/testing/contracts/OwnerPayments.sol:OwnerPayments",
						"label": "owner",
						"offset": 0,
						"slot": "0",
						"type": "t_address"
					}
				],
				"types": {
					"t_address": {
						"encoding": "inplace",
						"label": "address",
						"numberOfBytes": "20"
					}
				}
			},
			"userdoc": {
				"kind": "user",
				"methods": {},
				"version": 1
			}
		}
	}
}