{
	"Users/ivan/solidity/testing/contracts/OwnerPayments.sol": {
		"OwnerPayments": {
			"abi": [
				{
					"inputs": [],
					"stateMutability": "nonpayable",
					"type": "constructor"
				},
				{
					"anonymous": false,
					"inputs": [
						{
							"indexed": false,
							"internalType": "address",
							"name": "_from",
							"type": "address"
						},
						{
							"indexed": false,
							"internalType": "uint256",
							"name": "_amount",
							"type": "uint256"
						},
						{
							"indexed": false,
							"internalType": "uint256",
							"name": "_timestamp",
							"type": "uint256"
						}
					],
					"name": "Paid",
					"type": "event"
				},
				{
					"inputs": [],
					"name": "getBalance",
					"outputs": [
						{
							"internalType": "uint256",
							"name": "",
							"type": "uint256"
						}
					],
					"stateMutability": "view",
					"type": "function"
				},
				{
					"inputs": [],
					"name": "pay",
					"outputs": [],
					"stateMutability": "payable",
					"type": "function"
				},
				{
					"inputs": [
						{
							"internalType": "address payable",
							"name": "_to",
							"type": "address"
						}
					],
					"name": "withdraw",
					"outputs": [],
					"stateMutability": "nonpayable",
					"type": "function"
				},
				{
					"stateMutability": "payable",
					"type": "receive"
				}
			],
			"devdoc": {
				"kind": "dev",
				"methods": {},
				"version": 1
			},
			"evm": {
				"assembly": "    /* \"Users/ivan/solidity/testing/contracts/OwnerPayments.sol\":65:720  contract OwnerPayments {... */\n  mstore(0x40, 0x80)\n    /* \"Users/ivan/solidity/testing/contracts/OwnerPayments.sol\":119:167  constructor(){... */\n  callvalue\n  dup1\n  iszero\n  tag_1\n  jumpi\n  0x00\n  dup1\n  revert\ntag_1:\n  pop\n    /* \"Users/ivan/solidity/testing/contracts/OwnerPayments.sol\":150:160  msg.sender */\n  caller\n    /* \"Users/ivan/solidity/testing/contracts/OwnerPayments.sol\":142:147  owner */\n  0x00\n  dup1\n    /* \"Users/ivan/solidity/testing/contracts/OwnerPayments.sol\":142:160  owner = msg.sender */\n  0x0100\n  exp\n  dup2\n  sload\n  dup2\n  0xffffffffffffffffffffffffffffffffffffffff\n  mul\n  not\n  and\n  swap1\n  dup4\n  0xffffffffffffffffffffffffffffffffffffffff\n  and\n  mul\n  or\n  swap1\n  sstore\n  pop\n    /* \"Users/ivan/solidity/testing/contracts/OwnerPayments.sol\":65:720  contract OwnerPayments {... */\n  dataSize(sub_0)\n  dup1\n  dataOffset(sub_0)\n  0x00\n  codecopy\n  0x00\n  return\nstop\n\nsub_0: assembly {\n        /* \"Users/ivan/solidity/testing/contracts/OwnerPayments.sol\":65:720  contract OwnerPayments {... */\n      mstore(0x40, 0x80)\n      jumpi(tag_1, lt(calldatasize, 0x04))\n      shr(0xe0, calldataload(0x00))\n      dup1\n      0x12065fe0\n      eq\n      tag_3\n      jumpi\n      dup1\n      0x1b9265b8\n      eq\n      tag_4\n      jumpi\n      dup1\n      0x51cff8d9\n      eq\n      tag_5\n      jumpi\n      jump(tag_2)\n    tag_1:\n      jumpi(tag_2, calldatasize)\n        /* \"Users/ivan/solidity/testing/contracts/OwnerPayments.sol\":381:386  pay() */\n      tag_8\n        /* \"Users/ivan/solidity/testing/contracts/OwnerPayments.sol\":381:384  pay */\n      tag_9\n        /* \"Users/ivan/solidity/testing/contracts/OwnerPayments.sol\":381:386  pay() */\n      jump\t// in\n    tag_8:\n        /* \"Users/ivan/solidity/testing/contracts/OwnerPayments.sol\":65:720  contract OwnerPayments {... */\n      stop\n    tag_2:\n      0x00\n      dup1\n      revert\n        /* \"Users/ivan/solidity/testing/contracts/OwnerPayments.sol\":621:713  function getBalance() public view returns(uint){... */\n    tag_3:\n      callvalue\n      dup1\n      iszero\n      tag_10\n      jumpi\n      0x00\n      dup1\n      revert\n    tag_10:\n      pop\n      tag_11\n      tag_12\n      jump\t// in\n    tag_11:\n      mload(0x40)\n      tag_13\n      swap2\n      swap1\n      tag_14\n      jump\t// in\n    tag_13:\n      mload(0x40)\n      dup1\n      swap2\n      sub\n      swap1\n      return\n        /* \"Users/ivan/solidity/testing/contracts/OwnerPayments.sol\":403:499  function pay() public payable {... */\n    tag_4:\n      tag_15\n      tag_9\n      jump\t// in\n    tag_15:\n      stop\n        /* \"Users/ivan/solidity/testing/contracts/OwnerPayments.sol\":505:615  function withdraw(address payable _to) external onlyOwner {... */\n    tag_5:\n      callvalue\n      dup1\n      iszero\n      tag_16\n      jumpi\n      0x00\n      dup1\n      revert\n    tag_16:\n      pop\n      tag_17\n      0x04\n      dup1\n      calldatasize\n      sub\n      dup2\n      add\n      swap1\n      tag_18\n      swap2\n      swap1\n      tag_19\n      jump\t// in\n    tag_18:\n      tag_20\n      jump\t// in\n    tag_17:\n      stop\n        /* \"Users/ivan/solidity/testing/contracts/OwnerPayments.sol\":403:499  function pay() public payable {... */\n    tag_9:\n        /* \"Users/ivan/solidity/testing/contracts/OwnerPayments.sol\":448:492  Paid(msg.sender, msg.value, block.timestamp) */\n      0xdf9a51129930649214df58f542322c245372c6f2fa6fc3c9b40d927c597cd230\n        /* \"Users/ivan/solidity/testing/contracts/OwnerPayments.sol\":453:463  msg.sender */\n      caller\n        /* \"Users/ivan/solidity/testing/contracts/OwnerPayments.sol\":465:474  msg.value */\n      callvalue\n        /* \"Users/ivan/solidity/testing/contracts/OwnerPayments.sol\":476:491  block.timestamp */\n      timestamp\n        /* \"Users/ivan/solidity/testing/contracts/OwnerPayments.sol\":448:492  Paid(msg.sender, msg.value, block.timestamp) */\n      mload(0x40)\n      tag_22\n      swap4\n      swap3\n      swap2\n      swap1\n      tag_23\n      jump\t// in\n    tag_22:\n      mload(0x40)\n      dup1\n      swap2\n      sub\n      swap1\n      log1\n        /* \"Users/ivan/solidity/testing/contracts/OwnerPayments.sol\":403:499  function pay() public payable {... */\n      jump\t// out\n        /* \"Users/ivan/solidity/testing/contracts/OwnerPayments.sol\":621:713  function getBalance() public view returns(uint){... */\n    tag_12:\n        /* \"Users/ivan/solidity/testing/contracts/OwnerPayments.sol\":663:667  uint */\n      0x00\n        /* \"Users/ivan/solidity/testing/contracts/OwnerPayments.sol\":685:706  address(this).balance */\n      selfbalance\n        /* \"Users/ivan/solidity/testing/contracts/OwnerPayments.sol\":678:706  return address(this).balance */\n      swap1\n      pop\n        /* \"Users/ivan/solidity/testing/contracts/OwnerPayments.sol\":621:713  function getBalance() public view returns(uint){... */\n      swap1\n      jump\t// out\n        /* \"Users/ivan/solidity/testing/contracts/OwnerPayments.sol\":505:615  function withdraw(address payable _to) external onlyOwner {... */\n    tag_20:\n        /* \"Users/ivan/solidity/testing/contracts/OwnerPayments.sol\":289:294  owner */\n      0x00\n      dup1\n      sload\n      swap1\n      0x0100\n      exp\n      swap1\n      div\n      0xffffffffffffffffffffffffffffffffffffffff\n      and\n        /* \"Users/ivan/solidity/testing/contracts/OwnerPayments.sol\":275:294  msg.sender == owner */\n      0xffffffffffffffffffffffffffffffffffffffff\n      and\n        /* \"Users/ivan/solidity/testing/contracts/OwnerPayments.sol\":275:285  msg.sender */\n      caller\n        /* \"Users/ivan/solidity/testing/contracts/OwnerPayments.sol\":275:294  msg.sender == owner */\n      0xffffffffffffffffffffffffffffffffffffffff\n      and\n      eq\n        /* \"Users/ivan/solidity/testing/contracts/OwnerPayments.sol\":267:320  require(msg.sender == owner, \"you are not an owner!\") */\n      tag_26\n      jumpi\n      mload(0x40)\n      0x08c379a000000000000000000000000000000000000000000000000000000000\n      dup2\n      mstore\n      0x04\n      add\n      tag_27\n      swap1\n      tag_28\n      jump\t// in\n    tag_27:\n      mload(0x40)\n      dup1\n      swap2\n      sub\n      swap1\n      revert\n    tag_26:\n        /* \"Users/ivan/solidity/testing/contracts/OwnerPayments.sol\":573:576  _to */\n      dup1\n        /* \"Users/ivan/solidity/testing/contracts/OwnerPayments.sol\":573:585  _to.transfer */\n      0xffffffffffffffffffffffffffffffffffffffff\n      and\n        /* \"Users/ivan/solidity/testing/contracts/OwnerPayments.sol\":573:608  _to.transfer(address(this).balance) */\n      0x08fc\n        /* \"Users/ivan/solidity/testing/contracts/OwnerPayments.sol\":586:607  address(this).balance */\n      selfbalance\n        /* \"Users/ivan/solidity/testing/contracts/OwnerPayments.sol\":573:608  _to.transfer(address(this).balance) */\n      swap1\n      dup2\n      iszero\n      mul\n      swap1\n      mload(0x40)\n      0x00\n      mload(0x40)\n      dup1\n      dup4\n      sub\n      dup2\n      dup6\n      dup9\n      dup9\n      call\n      swap4\n      pop\n      pop\n      pop\n      pop\n      iszero\n      dup1\n      iszero\n      tag_31\n      jumpi\n      returndatasize\n      0x00\n      dup1\n      returndatacopy\n      revert(0x00, returndatasize)\n    tag_31:\n      pop\n        /* \"Users/ivan/solidity/testing/contracts/OwnerPayments.sol\":505:615  function withdraw(address payable _to) external onlyOwner {... */\n      pop\n      jump\t// out\n        /* \"#utility.yul\":7:84   */\n    tag_32:\n        /* \"#utility.yul\":44:51   */\n      0x00\n        /* \"#utility.yul\":73:78   */\n      dup2\n        /* \"#utility.yul\":62:78   */\n      swap1\n      pop\n        /* \"#utility.yul\":7:84   */\n      swap2\n      swap1\n      pop\n      jump\t// out\n        /* \"#utility.yul\":90:208   */\n    tag_33:\n        /* \"#utility.yul\":177:201   */\n      tag_49\n        /* \"#utility.yul\":195:200   */\n      dup2\n        /* \"#utility.yul\":177:201   */\n      tag_32\n      jump\t// in\n    tag_49:\n        /* \"#utility.yul\":172:175   */\n      dup3\n        /* \"#utility.yul\":165:202   */\n      mstore\n        /* \"#utility.yul\":90:208   */\n      pop\n      pop\n      jump\t// out\n        /* \"#utility.yul\":214:436   */\n    tag_14:\n        /* \"#utility.yul\":307:311   */\n      0x00\n        /* \"#utility.yul\":345:347   */\n      0x20\n        /* \"#utility.yul\":334:343   */\n      dup3\n        /* \"#utility.yul\":330:348   */\n      add\n        /* \"#utility.yul\":322:348   */\n      swap1\n      pop\n        /* \"#utility.yul\":358:429   */\n      tag_51\n        /* \"#utility.yul\":426:427   */\n      0x00\n        /* \"#utility.yul\":415:424   */\n      dup4\n        /* \"#utility.yul\":411:428   */\n      add\n        /* \"#utility.yul\":402:408   */\n      dup5\n        /* \"#utility.yul\":358:429   */\n      tag_33\n      jump\t// in\n    tag_51:\n        /* \"#utility.yul\":214:436   */\n      swap3\n      swap2\n      pop\n      pop\n      jump\t// out\n        /* \"#utility.yul\":523:640   */\n    tag_35:\n        /* \"#utility.yul\":632:633   */\n      0x00\n        /* \"#utility.yul\":629:630   */\n      dup1\n        /* \"#utility.yul\":622:634   */\n      revert\n        /* \"#utility.yul\":769:895   */\n    tag_37:\n        /* \"#utility.yul\":806:813   */\n      0x00\n        /* \"#utility.yul\":846:888   */\n      0xffffffffffffffffffffffffffffffffffffffff\n        /* \"#utility.yul\":839:844   */\n      dup3\n        /* \"#utility.yul\":835:889   */\n      and\n        /* \"#utility.yul\":824:889   */\n      swap1\n      pop\n        /* \"#utility.yul\":769:895   */\n      swap2\n      swap1\n      pop\n      jump\t// out\n        /* \"#utility.yul\":901:1005   */\n    tag_38:\n        /* \"#utility.yul\":946:953   */\n      0x00\n        /* \"#utility.yul\":975:999   */\n      tag_57\n        /* \"#utility.yul\":993:998   */\n      dup3\n        /* \"#utility.yul\":975:999   */\n      tag_37\n      jump\t// in\n    tag_57:\n        /* \"#utility.yul\":964:999   */\n      swap1\n      pop\n        /* \"#utility.yul\":901:1005   */\n      swap2\n      swap1\n      pop\n      jump\t// out\n        /* \"#utility.yul\":1011:1149   */\n    tag_39:\n        /* \"#utility.yul\":1092:1124   */\n      tag_59\n        /* \"#utility.yul\":1118:1123   */\n      dup2\n        /* \"#utility.yul\":1092:1124   */\n      tag_38\n      jump\t// in\n    tag_59:\n        /* \"#utility.yul\":1085:1090   */\n      dup2\n        /* \"#utility.yul\":1082:1125   */\n      eq\n        /* \"#utility.yul\":1072:1143   */\n      tag_60\n      jumpi\n        /* \"#utility.yul\":1139:1140   */\n      0x00\n        /* \"#utility.yul\":1136:1137   */\n      dup1\n        /* \"#utility.yul\":1129:1141   */\n      revert\n        /* \"#utility.yul\":1072:1143   */\n    tag_60:\n        /* \"#utility.yul\":1011:1149   */\n      pop\n      jump\t// out\n        /* \"#utility.yul\":1155:1310   */\n    tag_40:\n        /* \"#utility.yul\":1209:1214   */\n      0x00\n        /* \"#utility.yul\":1247:1253   */\n      dup2\n        /* \"#utility.yul\":1234:1254   */\n      calldataload\n        /* \"#utility.yul\":1225:1254   */\n      swap1\n      pop\n        /* \"#utility.yul\":1263:1304   */\n      tag_62\n        /* \"#utility.yul\":1298:1303   */\n      dup2\n        /* \"#utility.yul\":1263:1304   */\n      tag_39\n      jump\t// in\n    tag_62:\n        /* \"#utility.yul\":1155:1310   */\n      swap3\n      swap2\n      pop\n      pop\n      jump\t// out\n        /* \"#utility.yul\":1316:1661   */\n    tag_19:\n        /* \"#utility.yul\":1383:1389   */\n      0x00\n        /* \"#utility.yul\":1432:1434   */\n      0x20\n        /* \"#utility.yul\":1420:1429   */\n      dup3\n        /* \"#utility.yul\":1411:1418   */\n      dup5\n        /* \"#utility.yul\":1407:1430   */\n      sub\n        /* \"#utility.yul\":1403:1435   */\n      slt\n        /* \"#utility.yul\":1400:1519   */\n      iszero\n      tag_64\n      jumpi\n        /* \"#utility.yul\":1438:1517   */\n      tag_65\n      tag_35\n      jump\t// in\n    tag_65:\n        /* \"#utility.yul\":1400:1519   */\n    tag_64:\n        /* \"#utility.yul\":1558:1559   */\n      0x00\n        /* \"#utility.yul\":1583:1644   */\n      tag_66\n        /* \"#utility.yul\":1636:1643   */\n      dup5\n        /* \"#utility.yul\":1627:1633   */\n      dup3\n        /* \"#utility.yul\":1616:1625   */\n      dup6\n        /* \"#utility.yul\":1612:1634   */\n      add\n        /* \"#utility.yul\":1583:1644   */\n      tag_40\n      jump\t// in\n    tag_66:\n        /* \"#utility.yul\":1573:1644   */\n      swap2\n      pop\n        /* \"#utility.yul\":1529:1654   */\n      pop\n        /* \"#utility.yul\":1316:1661   */\n      swap3\n      swap2\n      pop\n      pop\n      jump\t// out\n        /* \"#utility.yul\":1667:1763   */\n    tag_41:\n        /* \"#utility.yul\":1704:1711   */\n      0x00\n        /* \"#utility.yul\":1733:1757   */\n      tag_68\n        /* \"#utility.yul\":1751:1756   */\n      dup3\n        /* \"#utility.yul\":1733:1757   */\n      tag_37\n      jump\t// in\n    tag_68:\n        /* \"#utility.yul\":1722:1757   */\n      swap1\n      pop\n        /* \"#utility.yul\":1667:1763   */\n      swap2\n      swap1\n      pop\n      jump\t// out\n        /* \"#utility.yul\":1769:1887   */\n    tag_42:\n        /* \"#utility.yul\":1856:1880   */\n      tag_70\n        /* \"#utility.yul\":1874:1879   */\n      dup2\n        /* \"#utility.yul\":1856:1880   */\n      tag_41\n      jump\t// in\n    tag_70:\n        /* \"#utility.yul\":1851:1854   */\n      dup3\n        /* \"#utility.yul\":1844:1881   */\n      mstore\n        /* \"#utility.yul\":1769:1887   */\n      pop\n      pop\n      jump\t// out\n        /* \"#utility.yul\":1893:2335   */\n    tag_23:\n        /* \"#utility.yul\":2042:2046   */\n      0x00\n        /* \"#utility.yul\":2080:2082   */\n      0x60\n        /* \"#utility.yul\":2069:2078   */\n      dup3\n        /* \"#utility.yul\":2065:2083   */\n      add\n        /* \"#utility.yul\":2057:2083   */\n      swap1\n      pop\n        /* \"#utility.yul\":2093:2164   */\n      tag_72\n        /* \"#utility.yul\":2161:2162   */\n      0x00\n        /* \"#utility.yul\":2150:2159   */\n      dup4\n        /* \"#utility.yul\":2146:2163   */\n      add\n        /* \"#utility.yul\":2137:2143   */\n      dup7\n        /* \"#utility.yul\":2093:2164   */\n      tag_42\n      jump\t// in\n    tag_72:\n        /* \"#utility.yul\":2174:2246   */\n      tag_73\n        /* \"#utility.yul\":2242:2244   */\n      0x20\n        /* \"#utility.yul\":2231:2240   */\n      dup4\n        /* \"#utility.yul\":2227:2245   */\n      add\n        /* \"#utility.yul\":2218:2224   */\n      dup6\n        /* \"#utility.yul\":2174:2246   */\n      tag_33\n      jump\t// in\n    tag_73:\n        /* \"#utility.yul\":2256:2328   */\n      tag_74\n        /* \"#utility.yul\":2324:2326   */\n      0x40\n        /* \"#utility.yul\":2313:2322   */\n      dup4\n        /* \"#utility.yul\":2309:2327   */\n      add\n        /* \"#utility.yul\":2300:2306   */\n      dup5\n        /* \"#utility.yul\":2256:2328   */\n      tag_33\n      jump\t// in\n    tag_74:\n        /* \"#utility.yul\":1893:2335   */\n      swap5\n      swap4\n      pop\n      pop\n      pop\n      pop\n      jump\t// out\n        /* \"#utility.yul\":2341:2510   */\n    tag_43:\n        /* \"#utility.yul\":2425:2436   */\n      0x00\n        /* \"#utility.yul\":2459:2465   */\n      dup3\n        /* \"#utility.yul\":2454:2457   */\n      dup3\n        /* \"#utility.yul\":2447:2466   */\n      mstore\n        /* \"#utility.yul\":2499:2503   */\n      0x20\n        /* \"#utility.yul\":2494:2497   */\n      dup3\n        /* \"#utility.yul\":2490:2504   */\n      add\n        /* \"#utility.yul\":2475:2504   */\n      swap1\n      pop\n        /* \"#utility.yul\":2341:2510   */\n      swap3\n      swap2\n      pop\n      pop\n      jump\t// out\n        /* \"#utility.yul\":2516:2687   */\n    tag_44:\n        /* \"#utility.yul\":2656:2679   */\n      0x796f7520617265206e6f7420616e206f776e6572210000000000000000000000\n        /* \"#utility.yul\":2652:2653   */\n      0x00\n        /* \"#utility.yul\":2644:2650   */\n      dup3\n        /* \"#utility.yul\":2640:2654   */\n      add\n        /* \"#utility.yul\":2633:2680   */\n      mstore\n        /* \"#utility.yul\":2516:2687   */\n      pop\n      jump\t// out\n        /* \"#utility.yul\":2693:3059   */\n    tag_45:\n        /* \"#utility.yul\":2835:2838   */\n      0x00\n        /* \"#utility.yul\":2856:2923   */\n      tag_78\n        /* \"#utility.yul\":2920:2922   */\n      0x15\n        /* \"#utility.yul\":2915:2918   */\n      dup4\n        /* \"#utility.yul\":2856:2923   */\n      tag_43\n      jump\t// in\n    tag_78:\n        /* \"#utility.yul\":2849:2923   */\n      swap2\n      pop\n        /* \"#utility.yul\":2932:3025   */\n      tag_79\n        /* \"#utility.yul\":3021:3024   */\n      dup3\n        /* \"#utility.yul\":2932:3025   */\n      tag_44\n      jump\t// in\n    tag_79:\n        /* \"#utility.yul\":3050:3052   */\n      0x20\n        /* \"#utility.yul\":3045:3048   */\n      dup3\n        /* \"#utility.yul\":3041:3053   */\n      add\n        /* \"#utility.yul\":3034:3053   */\n      swap1\n      pop\n        /* \"#utility.yul\":2693:3059   */\n      swap2\n      swap1\n      pop\n      jump\t// out\n        /* \"#utility.yul\":3065:3484   */\n    tag_28:\n        /* \"#utility.yul\":3231:3235   */\n      0x00\n        /* \"#utility.yul\":3269:3271   */\n      0x20\n        /* \"#utility.yul\":3258:3267   */\n      dup3\n        /* \"#utility.yul\":3254:3272   */\n      add\n        /* \"#utility.yul\":3246:3272   */\n      swap1\n      pop\n        /* \"#utility.yul\":3318:3327   */\n      dup2\n        /* \"#utility.yul\":3312:3316   */\n      dup2\n        /* \"#utility.yul\":3308:3328   */\n      sub\n        /* \"#utility.yul\":3304:3305   */\n      0x00\n        /* \"#utility.yul\":3293:3302   */\n      dup4\n        /* \"#utility.yul\":3289:3306   */\n      add\n        /* \"#utility.yul\":3282:3329   */\n      mstore\n        /* \"#utility.yul\":3346:3477   */\n      tag_81\n        /* \"#utility.yul\":3472:3476   */\n      dup2\n        /* \"#utility.yul\":3346:3477   */\n      tag_45\n      jump\t// in\n    tag_81:\n        /* \"#utility.yul\":3338:3477   */\n      swap1\n      pop\n        /* \"#utility.yul\":3065:3484   */\n      swap2\n      swap1\n      pop\n      jump\t// out\n\n    auxdata: 0xa264697066735822122062ebfbab84bb7c0cba09a7dd5e9545c7fc4b4883595d5ab46e5fd331f411e79064736f6c63430008100033\n}\n",
				"bytecode": {
					"linkReferences": {},
					"object": "608060405234801561001057600080fd5b50336000806101000a81548173ffffffffffffffffffffffffffffffffffffffff021916908373ffffffffffffffffffffffffffffffffffffffff160217905550610396806100606000396000f3fe6080604052600436106100385760003560e01c806312065fe01461004c5780631b9265b81461007757806351cff8d91461008157610047565b36610047576100456100aa565b005b600080fd5b34801561005857600080fd5b506100616100e7565b60405161006e91906101e0565b60405180910390f35b61007f6100aa565b005b34801561008d57600080fd5b506100a860048036038101906100a3919061025e565b6100ef565b005b7fdf9a51129930649214df58f542322c245372c6f2fa6fc3c9b40d927c597cd2303334426040516100dd939291906102ac565b60405180910390a1565b600047905090565b60008054906101000a900473ffffffffffffffffffffffffffffffffffffffff1673ffffffffffffffffffffffffffffffffffffffff163373ffffffffffffffffffffffffffffffffffffffff161461017d576040517f08c379a000000000000000000000000000000000000000000000000000000000815260040161017490610340565b60405180910390fd5b8073ffffffffffffffffffffffffffffffffffffffff166108fc479081150290604051600060405180830381858888f193505050501580156101c3573d6000803e3d6000fd5b5050565b6000819050919050565b6101da816101c7565b82525050565b60006020820190506101f560008301846101d1565b92915050565b600080fd5b600073ffffffffffffffffffffffffffffffffffffffff82169050919050565b600061022b82610200565b9050919050565b61023b81610220565b811461024657600080fd5b50565b60008135905061025881610232565b92915050565b600060208284031215610274576102736101fb565b5b600061028284828501610249565b91505092915050565b600061029682610200565b9050919050565b6102a68161028b565b82525050565b60006060820190506102c1600083018661029d565b6102ce60208301856101d1565b6102db60408301846101d1565b949350505050565b600082825260208201905092915050565b7f796f7520617265206e6f7420616e206f776e6572210000000000000000000000600082015250565b600061032a6015836102e3565b9150610335826102f4565b602082019050919050565b600060208201905081810360008301526103598161031d565b905091905056fea264697066735822122062ebfbab84bb7c0cba09a7dd5e9545c7fc4b4883595d5ab46e5fd331f411e79064736f6c63430008100033",
					"opcodes": "PUSH1 0x80 PUSH1 0x40 MSTORE CALLVALUE DUP1 ISZERO PUSH2 0x10 JUMPI PUSH1 0x0 DUP1 REVERT JUMPDEST POP CALLER PUSH1 0x0 DUP1 PUSH2 0x100 EXP DUP2 SLOAD DUP2 PUSH20 0xFFFFFFFFFFFFFFFFFFFFFFFFFFFFFFFFFFFFFFFF MUL NOT AND SWAP1 DUP4 PUSH20 0xFFFFFFFFFFFFFFFFFFFFFFFFFFFFFFFFFFFFFFFF AND MUL OR SWAP1 SSTORE POP PUSH2 0x396 DUP1 PUSH2 0x60 PUSH1 0x0 CODECOPY PUSH1 0x0 RETURN INVALID PUSH1 0x80 PUSH1 0x40 MSTORE PUSH1 0x4 CALLDATASIZE LT PUSH2 0x38 JUMPI PUSH1 0x0 CALLDATALOAD PUSH1 0xE0 SHR DUP1 PUSH4 0x12065FE0 EQ PUSH2 0x4C JUMPI DUP1 PUSH4 0x1B9265B8 EQ PUSH2 0x77 JUMPI DUP1 PUSH4 0x51CFF8D9 EQ PUSH2 0x81 JUMPI PUSH2 0x47 JUMP JUMPDEST CALLDATASIZE PUSH2 0x47 JUMPI PUSH2 0x45 PUSH2 0xAA JUMP JUMPDEST STOP JUMPDEST PUSH1 0x0 DUP1 REVERT JUMPDEST CALLVALUE DUP1 ISZERO PUSH2 0x58 JUMPI PUSH1 0x0 DUP1 REVERT JUMPDEST POP PUSH2 0x61 PUSH2 0xE7 JUMP JUMPDEST PUSH1 0x40 MLOAD PUSH2 0x6E SWAP2 SWAP1 PUSH2 0x1E0 JUMP JUMPDEST PUSH1 0x40 MLOAD DUP1 SWAP2 SUB SWAP1 RETURN JUMPDEST PUSH2 0x7F PUSH2 0xAA JUMP JUMPDEST STOP JUMPDEST CALLVALUE DUP1 ISZERO PUSH2 0x8D JUMPI PUSH1 0x0 DUP1 REVERT JUMPDEST POP PUSH2 0xA8 PUSH1 0x4 DUP1 CALLDATASIZE SUB DUP2 ADD SWAP1 PUSH2 0xA3 SWAP2 SWAP1 PUSH2 0x25E JUMP JUMPDEST PUSH2 0xEF JUMP JUMPDEST STOP JUMPDEST PUSH32 0xDF9A51129930649214DF58F542322C245372C6F2FA6FC3C9B40D927C597CD230 CALLER CALLVALUE TIMESTAMP PUSH1 0x40 MLOAD PUSH2 0xDD SWAP4 SWAP3 SWAP2 SWAP1 PUSH2 0x2AC JUMP JUMPDEST PUSH1 0x40 MLOAD DUP1 SWAP2 SUB SWAP1 LOG1 JUMP JUMPDEST PUSH1 0x0 SELFBALANCE SWAP1 POP SWAP1 JUMP JUMPDEST PUSH1 0x0 DUP1 SLOAD SWAP1 PUSH2 0x100 EXP SWAP1 DIV PUSH20 0xFFFFFFFFFFFFFFFFFFFFFFFFFFFFFFFFFFFFFFFF AND PUSH20 0xFFFFFFFFFFFFFFFFFFFFFFFFFFFFFFFFFFFFFFFF AND CALLER PUSH20 0xFFFFFFFFFFFFFFFFFFFFFFFFFFFFFFFFFFFFFFFF AND EQ PUSH2 0x17D JUMPI PUSH1 0x40 MLOAD PUSH32 0x8C379A000000000000000000000000000000000000000000000000000000000 DUP2 MSTORE PUSH1 0x4 ADD PUSH2 0x174 SWAP1 PUSH2 0x340 JUMP JUMPDEST PUSH1 0x40 MLOAD DUP1 SWAP2 SUB SWAP1 REVERT JUMPDEST DUP1 PUSH20 0xFFFFFFFFFFFFFFFFFFFFFFFFFFFFFFFFFFFFFFFF AND PUSH2 0x8FC SELFBALANCE SWAP1 DUP2 ISZERO MUL SWAP1 PUSH1 0x40 MLOAD PUSH1 0x0 PUSH1 0x40 MLOAD DUP1 DUP4 SUB DUP2 DUP6 DUP9 DUP9 CALL SWAP4 POP POP POP POP ISZERO DUP1 ISZERO PUSH2 0x1C3 JUMPI RETURNDATASIZE PUSH1 0x0 DUP1 RETURNDATACOPY RETURNDATASIZE PUSH1 0x0 REVERT JUMPDEST POP POP JUMP JUMPDEST PUSH1 0x0 DUP2 SWAP1 POP SWAP2 SWAP1 POP JUMP JUMPDEST PUSH2 0x1DA DUP2 PUSH2 0x1C7 JUMP JUMPDEST DUP3 MSTORE POP POP JUMP JUMPDEST PUSH1 0x0 PUSH1 0x20 DUP3 ADD SWAP1 POP PUSH2 0x1F5 PUSH1 0x0 DUP4 ADD DUP5 PUSH2 0x1D1 JUMP JUMPDEST SWAP3 SWAP2 POP POP JUMP JUMPDEST PUSH1 0x0 DUP1 REVERT JUMPDEST PUSH1 0x0 PUSH20 0xFFFFFFFFFFFFFFFFFFFFFFFFFFFFFFFFFFFFFFFF DUP3 AND SWAP1 POP SWAP2 SWAP1 POP JUMP JUMPDEST PUSH1 0x0 PUSH2 0x22B DUP3 PUSH2 0x200 JUMP JUMPDEST SWAP1 POP SWAP2 SWAP1 POP JUMP JUMPDEST PUSH2 0x23B DUP2 PUSH2 0x220 JUMP JUMPDEST DUP2 EQ PUSH2 0x246 JUMPI PUSH1 0x0 DUP1 REVERT JUMPDEST POP JUMP JUMPDEST PUSH1 0x0 DUP2 CALLDATALOAD SWAP1 POP PUSH2 0x258 DUP2 PUSH2 0x232 JUMP JUMPDEST SWAP3 SWAP2 POP POP JUMP JUMPDEST PUSH1 0x0 PUSH1 0x20 DUP3 DUP5 SUB SLT ISZERO PUSH2 0x274 JUMPI PUSH2 0x273 PUSH2 0x1FB JUMP JUMPDEST JUMPDEST PUSH1 0x0 PUSH2 0x282 DUP5 DUP3 DUP6 ADD PUSH2 0x249 JUMP JUMPDEST SWAP2 POP POP SWAP3 SWAP2 POP POP JUMP JUMPDEST PUSH1 0x0 PUSH2 0x296 DUP3 PUSH2 0x200 JUMP JUMPDEST SWAP1 POP SWAP2 SWAP1 POP JUMP JUMPDEST PUSH2 0x2A6 DUP2 PUSH2 0x28B JUMP JUMPDEST DUP3 MSTORE POP POP JUMP JUMPDEST PUSH1 0x0 PUSH1 0x60 DUP3 ADD SWAP1 POP PUSH2 0x2C1 PUSH1 0x0 DUP4 ADD DUP7 PUSH2 0x29D JUMP JUMPDEST PUSH2 0x2CE PUSH1 0x20 DUP4 ADD DUP6 PUSH2 0x1D1 JUMP JUMPDEST PUSH2 0x2DB PUSH1 0x40 DUP4 ADD DUP5 PUSH2 0x1D1 JUMP JUMPDEST SWAP5 SWAP4 POP POP POP POP JUMP JUMPDEST PUSH1 0x0 DUP3 DUP3 MSTORE PUSH1 0x20 DUP3 ADD SWAP1 POP SWAP3 SWAP2 POP POP JUMP JUMPDEST PUSH32 0x796F7520617265206E6F7420616E206F776E6572210000000000000000000000 PUSH1 0x0 DUP3 ADD MSTORE POP JUMP JUMPDEST PUSH1 0x0 PUSH2 0x32A PUSH1 0x15 DUP4 PUSH2 0x2E3 JUMP JUMPDEST SWAP2 POP PUSH2 0x335 DUP3 PUSH2 0x2F4 JUMP JUMPDEST PUSH1 0x20 DUP3 ADD SWAP1 POP SWAP2 SWAP1 POP JUMP JUMPDEST PUSH1 0x0 PUSH1 0x20 DUP3 ADD SWAP1 POP DUP2 DUP2 SUB PUSH1 0x0 DUP4 ADD MSTORE PUSH2 0x359 DUP2 PUSH2 0x31D JUMP JUMPDEST SWAP1 POP SWAP2 SWAP1 POP JUMP INVALID LOG2 PUSH5 0x6970667358 0x22 SLT KECCAK256 PUSH3 0xEBFBAB DUP5 0xBB PUSH29 0xCBA09A7DD5E9545C7FC4B4883595D5AB46E5FD331F411E79064736F6C PUSH4 0x43000810 STOP CALLER "
				},
				"gasEstimates": {
					"creation": {
						"codeDepositCost": "183600",
						"executionCost": "24492",
						"totalCost": "208092"
					},
					"external": {
						"getBalance()": "317",
						"pay()": "infinite",
						"withdraw(address)": "infinite"
					}
				},
				"methodIdentifiers": {
					"getBalance()": "12065fe0",
					"pay()": "1b9265b8",
					"withdraw(address)": "51cff8d9"
				}
			},
			"storageLayout": {
				"storage": [
					{
						"astId": 3,
						"contract": "Users/ivan/solidity/testing/contracts/OwnerPayments.sol:OwnerPayments",
						"label": "owner",
						"offset": 0,
						"slot": "0",
						"type": "t_address"
					}
				],
				"types": {
					"t_address": {
						"encoding": "inplace",
						"label": "address",
						"numberOfBytes": "20"
					}
				}
			},
			"userdoc": {
				"kind": "user",
				"methods": {},
				"version": 1
			}
		}
	}
}