{
	"Users/ivan/solidity/testing/contracts/Payments.sol": {
		"Payments": {
			"abi": [
				{
					"inputs": [
						{
							"internalType": "address",
							"name": "",
							"type": "address"
						}
					],
					"name": "balances",
					"outputs": [
						{
							"internalType": "uint256",
							"name": "totalPayments",
							"type": "uint256"
						}
					],
					"stateMutability": "view",
					"type": "function"
				},
				{
					"inputs": [],
					"name": "currentBalance",
					"outputs": [
						{
							"internalType": "uint256",
							"name": "",
							"type": "uint256"
						}
					],
					"stateMutability": "view",
					"type": "function"
				},
				{
					"inputs": [
						{
							"internalType": "address",
							"name": "_address",
							"type": "address"
						},
						{
							"internalType": "uint256",
							"name": "_index",
							"type": "uint256"
						}
					],
					"name": "getPayments",
					"outputs": [
						{
							"components": [
								{
									"internalType": "uint256",
									"name": "amount",
									"type": "uint256"
								},
								{
									"internalType": "uint256",
									"name": "timestamp",
									"type": "uint256"
								},
								{
									"internalType": "address",
									"name": "from",
									"type": "address"
								},
								{
									"internalType": "string",
									"name": "message",
									"type": "string"
								}
							],
							"internalType": "struct Payments.Payment",
							"name": "",
							"type": "tuple"
						}
					],
					"stateMutability": "view",
					"type": "function"
				},
				{
					"inputs": [
						{
							"internalType": "string",
							"name": "message",
							"type": "string"
						}
					],
					"name": "pay",
					"outputs": [],
					"stateMutability": "payable",
					"type": "function"
				}
			],
			"devdoc": {
				"kind": "dev",
				"methods": {},
				"version": 1
			},
			"evm": {
				"assembly": "    /* \"Users/ivan/solidity/testing/contracts/Payments.sol\":65:1008  contract Payments {... */\n  mstore(0x40, 0x80)\n  callvalue\n  dup1\n  iszero\n  tag_1\n  jumpi\n  0x00\n  dup1\n  revert\ntag_1:\n  pop\n  dataSize(sub_0)\n  dup1\n  dataOffset(sub_0)\n  0x00\n  codecopy\n  0x00\n  return\nstop\n\nsub_0: assembly {\n        /* \"Users/ivan/solidity/testing/contracts/Payments.sol\":65:1008  contract Payments {... */\n      mstore(0x40, 0x80)\n      jumpi(tag_1, lt(calldatasize, 0x04))\n      shr(0xe0, calldataload(0x00))\n      dup1\n      0x27e235e3\n      eq\n      tag_2\n      jumpi\n      dup1\n      0x28f2d6cd\n      eq\n      tag_3\n      jumpi\n      dup1\n      0x2b66d72e\n      eq\n      tag_4\n      jumpi\n      dup1\n      0xce845d1d\n      eq\n      tag_5\n      jumpi\n    tag_1:\n      0x00\n      dup1\n      revert\n        /* \"Users/ivan/solidity/testing/contracts/Payments.sol\":309:353  mapping (address => Balance) public balances */\n    tag_2:\n      callvalue\n      dup1\n      iszero\n      tag_6\n      jumpi\n      0x00\n      dup1\n      revert\n    tag_6:\n      pop\n      tag_7\n      0x04\n      dup1\n      calldatasize\n      sub\n      dup2\n      add\n      swap1\n      tag_8\n      swap2\n      swap1\n      tag_9\n      jump\t// in\n    tag_8:\n      tag_10\n      jump\t// in\n    tag_7:\n      mload(0x40)\n      tag_11\n      swap2\n      swap1\n      tag_12\n      jump\t// in\n    tag_11:\n      mload(0x40)\n      dup1\n      swap2\n      sub\n      swap1\n      return\n        /* \"Users/ivan/solidity/testing/contracts/Payments.sol\":462:609  function getPayments(address _address, uint _index) public view returns(Payment memory) {... */\n    tag_3:\n      callvalue\n      dup1\n      iszero\n      tag_13\n      jumpi\n      0x00\n      dup1\n      revert\n    tag_13:\n      pop\n      tag_14\n      0x04\n      dup1\n      calldatasize\n      sub\n      dup2\n      add\n      swap1\n      tag_15\n      swap2\n      swap1\n      tag_16\n      jump\t// in\n    tag_15:\n      tag_17\n      jump\t// in\n    tag_14:\n      mload(0x40)\n      tag_18\n      swap2\n      swap1\n      tag_19\n      jump\t// in\n    tag_18:\n      mload(0x40)\n      dup1\n      swap2\n      sub\n      swap1\n      return\n        /* \"Users/ivan/solidity/testing/contracts/Payments.sol\":615:1006  function pay(string memory message) public payable {... */\n    tag_4:\n      tag_20\n      0x04\n      dup1\n      calldatasize\n      sub\n      dup2\n      add\n      swap1\n      tag_21\n      swap2\n      swap1\n      tag_22\n      jump\t// in\n    tag_21:\n      tag_23\n      jump\t// in\n    tag_20:\n      stop\n        /* \"Users/ivan/solidity/testing/contracts/Payments.sol\":360:456  function currentBalance() public view returns(uint){... */\n    tag_5:\n      callvalue\n      dup1\n      iszero\n      tag_24\n      jumpi\n      0x00\n      dup1\n      revert\n    tag_24:\n      pop\n      tag_25\n      tag_26\n      jump\t// in\n    tag_25:\n      mload(0x40)\n      tag_27\n      swap2\n      swap1\n      tag_12\n      jump\t// in\n    tag_27:\n      mload(0x40)\n      dup1\n      swap2\n      sub\n      swap1\n      return\n        /* \"Users/ivan/solidity/testing/contracts/Payments.sol\":309:353  mapping (address => Balance) public balances */\n    tag_10:\n      mstore(0x20, 0x00)\n      dup1\n      0x00\n      mstore\n      keccak256(0x00, 0x40)\n      0x00\n      swap2\n      pop\n      swap1\n      pop\n      dup1\n      0x00\n      add\n      sload\n      swap1\n      pop\n      dup2\n      jump\t// out\n        /* \"Users/ivan/solidity/testing/contracts/Payments.sol\":462:609  function getPayments(address _address, uint _index) public view returns(Payment memory) {... */\n    tag_17:\n        /* \"Users/ivan/solidity/testing/contracts/Payments.sol\":534:548  Payment memory */\n      tag_28\n      tag_29\n      jump\t// in\n    tag_28:\n        /* \"Users/ivan/solidity/testing/contracts/Payments.sol\":567:575  balances */\n      0x00\n        /* \"Users/ivan/solidity/testing/contracts/Payments.sol\":567:585  balances[_address] */\n      dup1\n        /* \"Users/ivan/solidity/testing/contracts/Payments.sol\":576:584  _address */\n      dup5\n        /* \"Users/ivan/solidity/testing/contracts/Payments.sol\":567:585  balances[_address] */\n      0xffffffffffffffffffffffffffffffffffffffff\n      and\n      0xffffffffffffffffffffffffffffffffffffffff\n      and\n      dup2\n      mstore\n      0x20\n      add\n      swap1\n      dup2\n      mstore\n      0x20\n      add\n      0x00\n      keccak256\n        /* \"Users/ivan/solidity/testing/contracts/Payments.sol\":567:594  balances[_address].payments */\n      0x01\n      add\n        /* \"Users/ivan/solidity/testing/contracts/Payments.sol\":567:602  balances[_address].payments[_index] */\n      0x00\n        /* \"Users/ivan/solidity/testing/contracts/Payments.sol\":595:601  _index */\n      dup4\n        /* \"Users/ivan/solidity/testing/contracts/Payments.sol\":567:602  balances[_address].payments[_index] */\n      dup2\n      mstore\n      0x20\n      add\n      swap1\n      dup2\n      mstore\n      0x20\n      add\n      0x00\n      keccak256\n        /* \"Users/ivan/solidity/testing/contracts/Payments.sol\":560:602  return balances[_address].payments[_index] */\n      mload(0x40)\n      dup1\n      0x80\n      add\n      0x40\n      mstore\n      swap1\n      dup2\n      0x00\n      dup3\n      add\n      sload\n      dup2\n      mstore\n      0x20\n      add\n      0x01\n      dup3\n      add\n      sload\n      dup2\n      mstore\n      0x20\n      add\n      0x02\n      dup3\n      add\n      0x00\n      swap1\n      sload\n      swap1\n      0x0100\n      exp\n      swap1\n      div\n      0xffffffffffffffffffffffffffffffffffffffff\n      and\n      0xffffffffffffffffffffffffffffffffffffffff\n      and\n      0xffffffffffffffffffffffffffffffffffffffff\n      and\n      dup2\n      mstore\n      0x20\n      add\n      0x03\n      dup3\n      add\n      dup1\n      sload\n      tag_31\n      swap1\n      tag_32\n      jump\t// in\n    tag_31:\n      dup1\n      0x1f\n      add\n      0x20\n      dup1\n      swap2\n      div\n      mul\n      0x20\n      add\n      mload(0x40)\n      swap1\n      dup2\n      add\n      0x40\n      mstore\n      dup1\n      swap3\n      swap2\n      swap1\n      dup2\n      dup2\n      mstore\n      0x20\n      add\n      dup3\n      dup1\n      sload\n      tag_33\n      swap1\n      tag_32\n      jump\t// in\n    tag_33:\n      dup1\n      iszero\n      tag_34\n      jumpi\n      dup1\n      0x1f\n      lt\n      tag_35\n      jumpi\n      0x0100\n      dup1\n      dup4\n      sload\n      div\n      mul\n      dup4\n      mstore\n      swap2\n      0x20\n      add\n      swap2\n      jump(tag_34)\n    tag_35:\n      dup3\n      add\n      swap2\n      swap1\n      0x00\n      mstore\n      keccak256(0x00, 0x20)\n      swap1\n    tag_36:\n      dup2\n      sload\n      dup2\n      mstore\n      swap1\n      0x01\n      add\n      swap1\n      0x20\n      add\n      dup1\n      dup4\n      gt\n      tag_36\n      jumpi\n      dup3\n      swap1\n      sub\n      0x1f\n      and\n      dup3\n      add\n      swap2\n    tag_34:\n      pop\n      pop\n      pop\n      pop\n      pop\n      dup2\n      mstore\n      pop\n      pop\n      swap1\n      pop\n        /* \"Users/ivan/solidity/testing/contracts/Payments.sol\":462:609  function getPayments(address _address, uint _index) public view returns(Payment memory) {... */\n      swap3\n      swap2\n      pop\n      pop\n      jump\t// out\n        /* \"Users/ivan/solidity/testing/contracts/Payments.sol\":615:1006  function pay(string memory message) public payable {... */\n    tag_23:\n        /* \"Users/ivan/solidity/testing/contracts/Payments.sol\":676:694  uint paymentNumber */\n      0x00\n        /* \"Users/ivan/solidity/testing/contracts/Payments.sol\":697:705  balances */\n      dup1\n        /* \"Users/ivan/solidity/testing/contracts/Payments.sol\":697:717  balances[msg.sender] */\n      0x00\n        /* \"Users/ivan/solidity/testing/contracts/Payments.sol\":706:716  msg.sender */\n      caller\n        /* \"Users/ivan/solidity/testing/contracts/Payments.sol\":697:717  balances[msg.sender] */\n      0xffffffffffffffffffffffffffffffffffffffff\n      and\n      0xffffffffffffffffffffffffffffffffffffffff\n      and\n      dup2\n      mstore\n      0x20\n      add\n      swap1\n      dup2\n      mstore\n      0x20\n      add\n      0x00\n      keccak256\n        /* \"Users/ivan/solidity/testing/contracts/Payments.sol\":697:731  balances[msg.sender].totalPayments */\n      0x00\n      add\n      sload\n        /* \"Users/ivan/solidity/testing/contracts/Payments.sol\":676:731  uint paymentNumber = balances[msg.sender].totalPayments */\n      swap1\n      pop\n        /* \"Users/ivan/solidity/testing/contracts/Payments.sol\":741:749  balances */\n      0x00\n        /* \"Users/ivan/solidity/testing/contracts/Payments.sol\":741:761  balances[msg.sender] */\n      dup1\n        /* \"Users/ivan/solidity/testing/contracts/Payments.sol\":750:760  msg.sender */\n      caller\n        /* \"Users/ivan/solidity/testing/contracts/Payments.sol\":741:761  balances[msg.sender] */\n      0xffffffffffffffffffffffffffffffffffffffff\n      and\n      0xffffffffffffffffffffffffffffffffffffffff\n      and\n      dup2\n      mstore\n      0x20\n      add\n      swap1\n      dup2\n      mstore\n      0x20\n      add\n      0x00\n      keccak256\n        /* \"Users/ivan/solidity/testing/contracts/Payments.sol\":741:775  balances[msg.sender].totalPayments */\n      0x00\n      add\n      0x00\n        /* \"Users/ivan/solidity/testing/contracts/Payments.sol\":741:777  balances[msg.sender].totalPayments++ */\n      dup2\n      sload\n      dup1\n      swap3\n      swap2\n      swap1\n      tag_38\n      swap1\n      tag_39\n      jump\t// in\n    tag_38:\n      swap2\n      swap1\n      pop\n      sstore\n      pop\n        /* \"Users/ivan/solidity/testing/contracts/Payments.sol\":788:813  Payment memory newPayment */\n      0x00\n        /* \"Users/ivan/solidity/testing/contracts/Payments.sol\":816:930  Payment(... */\n      mload(0x40)\n      dup1\n      0x80\n      add\n      0x40\n      mstore\n      dup1\n        /* \"Users/ivan/solidity/testing/contracts/Payments.sol\":837:846  msg.value */\n      callvalue\n        /* \"Users/ivan/solidity/testing/contracts/Payments.sol\":816:930  Payment(... */\n      dup2\n      mstore\n      0x20\n      add\n        /* \"Users/ivan/solidity/testing/contracts/Payments.sol\":860:875  block.timestamp */\n      timestamp\n        /* \"Users/ivan/solidity/testing/contracts/Payments.sol\":816:930  Payment(... */\n      dup2\n      mstore\n      0x20\n      add\n        /* \"Users/ivan/solidity/testing/contracts/Payments.sol\":889:899  msg.sender */\n      caller\n        /* \"Users/ivan/solidity/testing/contracts/Payments.sol\":816:930  Payment(... */\n      0xffffffffffffffffffffffffffffffffffffffff\n      and\n      dup2\n      mstore\n      0x20\n      add\n        /* \"Users/ivan/solidity/testing/contracts/Payments.sol\":913:920  message */\n      dup5\n        /* \"Users/ivan/solidity/testing/contracts/Payments.sol\":816:930  Payment(... */\n      dup2\n      mstore\n      pop\n        /* \"Users/ivan/solidity/testing/contracts/Payments.sol\":788:930  Payment memory newPayment = Payment(... */\n      swap1\n      pop\n        /* \"Users/ivan/solidity/testing/contracts/Payments.sol\":988:998  newPayment */\n      dup1\n        /* \"Users/ivan/solidity/testing/contracts/Payments.sol\":941:949  balances */\n      0x00\n        /* \"Users/ivan/solidity/testing/contracts/Payments.sol\":941:961  balances[msg.sender] */\n      dup1\n        /* \"Users/ivan/solidity/testing/contracts/Payments.sol\":950:960  msg.sender */\n      caller\n        /* \"Users/ivan/solidity/testing/contracts/Payments.sol\":941:961  balances[msg.sender] */\n      0xffffffffffffffffffffffffffffffffffffffff\n      and\n      0xffffffffffffffffffffffffffffffffffffffff\n      and\n      dup2\n      mstore\n      0x20\n      add\n      swap1\n      dup2\n      mstore\n      0x20\n      add\n      0x00\n      keccak256\n        /* \"Users/ivan/solidity/testing/contracts/Payments.sol\":941:970  balances[msg.sender].payments */\n      0x01\n      add\n        /* \"Users/ivan/solidity/testing/contracts/Payments.sol\":941:985  balances[msg.sender].payments[paymentNumber] */\n      0x00\n        /* \"Users/ivan/solidity/testing/contracts/Payments.sol\":971:984  paymentNumber */\n      dup5\n        /* \"Users/ivan/solidity/testing/contracts/Payments.sol\":941:985  balances[msg.sender].payments[paymentNumber] */\n      dup2\n      mstore\n      0x20\n      add\n      swap1\n      dup2\n      mstore\n      0x20\n      add\n      0x00\n      keccak256\n        /* \"Users/ivan/solidity/testing/contracts/Payments.sol\":941:998  balances[msg.sender].payments[paymentNumber] = newPayment */\n      0x00\n      dup3\n      add\n      mload\n      dup2\n      0x00\n      add\n      sstore\n      0x20\n      dup3\n      add\n      mload\n      dup2\n      0x01\n      add\n      sstore\n      0x40\n      dup3\n      add\n      mload\n      dup2\n      0x02\n      add\n      exp(0x0100, 0x00)\n      dup2\n      sload\n      dup2\n      0xffffffffffffffffffffffffffffffffffffffff\n      mul\n      not\n      and\n      swap1\n      dup4\n      0xffffffffffffffffffffffffffffffffffffffff\n      and\n      mul\n      or\n      swap1\n      sstore\n      pop\n      0x60\n      dup3\n      add\n      mload\n      dup2\n      0x03\n      add\n      swap1\n      dup1\n      mload\n      swap1\n      0x20\n      add\n      swap1\n      tag_40\n      swap3\n      swap2\n      swap1\n      tag_41\n      jump\t// in\n    tag_40:\n      pop\n      swap1\n      pop\n      pop\n        /* \"Users/ivan/solidity/testing/contracts/Payments.sol\":666:1006  {... */\n      pop\n      pop\n        /* \"Users/ivan/solidity/testing/contracts/Payments.sol\":615:1006  function pay(string memory message) public payable {... */\n      pop\n      jump\t// out\n        /* \"Users/ivan/solidity/testing/contracts/Payments.sol\":360:456  function currentBalance() public view returns(uint){... */\n    tag_26:\n        /* \"Users/ivan/solidity/testing/contracts/Payments.sol\":406:410  uint */\n      0x00\n        /* \"Users/ivan/solidity/testing/contracts/Payments.sol\":428:449  address(this).balance */\n      selfbalance\n        /* \"Users/ivan/solidity/testing/contracts/Payments.sol\":421:449  return address(this).balance */\n      swap1\n      pop\n        /* \"Users/ivan/solidity/testing/contracts/Payments.sol\":360:456  function currentBalance() public view returns(uint){... */\n      swap1\n      jump\t// out\n    tag_29:\n      mload(0x40)\n      dup1\n      0x80\n      add\n      0x40\n      mstore\n      dup1\n      0x00\n      dup2\n      mstore\n      0x20\n      add\n      0x00\n      dup2\n      mstore\n      0x20\n      add\n      and(0xffffffffffffffffffffffffffffffffffffffff, 0x00)\n      dup2\n      mstore\n      0x20\n      add\n      0x60\n      dup2\n      mstore\n      pop\n      swap1\n      jump\t// out\n    tag_41:\n      dup3\n      dup1\n      sload\n      tag_43\n      swap1\n      tag_32\n      jump\t// in\n    tag_43:\n      swap1\n      0x00\n      mstore\n      keccak256(0x00, 0x20)\n      swap1\n      0x1f\n      add\n      0x20\n      swap1\n      div\n      dup2\n      add\n      swap3\n      dup3\n      tag_45\n      jumpi\n      0x00\n      dup6\n      sstore\n      jump(tag_44)\n    tag_45:\n      dup3\n      0x1f\n      lt\n      tag_46\n      jumpi\n      dup1\n      mload\n      not(0xff)\n      and\n      dup4\n      dup1\n      add\n      or\n      dup6\n      sstore\n      jump(tag_44)\n    tag_46:\n      dup3\n      dup1\n      add\n      0x01\n      add\n      dup6\n      sstore\n      dup3\n      iszero\n      tag_44\n      jumpi\n      swap2\n      dup3\n      add\n    tag_47:\n      dup3\n      dup2\n      gt\n      iszero\n      tag_48\n      jumpi\n      dup3\n      mload\n      dup3\n      sstore\n      swap2\n      0x20\n      add\n      swap2\n      swap1\n      0x01\n      add\n      swap1\n      jump(tag_47)\n    tag_48:\n    tag_44:\n      pop\n      swap1\n      pop\n      tag_49\n      swap2\n      swap1\n      tag_50\n      jump\t// in\n    tag_49:\n      pop\n      swap1\n      jump\t// out\n    tag_50:\n    tag_51:\n      dup1\n      dup3\n      gt\n      iszero\n      tag_52\n      jumpi\n      0x00\n      dup2\n      0x00\n      swap1\n      sstore\n      pop\n      0x01\n      add\n      jump(tag_51)\n    tag_52:\n      pop\n      swap1\n      jump\t// out\n        /* \"#utility.yul\":7:419   */\n    tag_54:\n        /* \"#utility.yul\":85:90   */\n      0x00\n        /* \"#utility.yul\":110:176   */\n      tag_56\n        /* \"#utility.yul\":126:175   */\n      tag_57\n        /* \"#utility.yul\":168:174   */\n      dup5\n        /* \"#utility.yul\":126:175   */\n      tag_58\n      jump\t// in\n    tag_57:\n        /* \"#utility.yul\":110:176   */\n      tag_59\n      jump\t// in\n    tag_56:\n        /* \"#utility.yul\":101:176   */\n      swap1\n      pop\n        /* \"#utility.yul\":199:205   */\n      dup3\n        /* \"#utility.yul\":192:197   */\n      dup2\n        /* \"#utility.yul\":185:206   */\n      mstore\n        /* \"#utility.yul\":237:241   */\n      0x20\n        /* \"#utility.yul\":230:235   */\n      dup2\n        /* \"#utility.yul\":226:242   */\n      add\n        /* \"#utility.yul\":275:278   */\n      dup5\n        /* \"#utility.yul\":266:272   */\n      dup5\n        /* \"#utility.yul\":261:264   */\n      dup5\n        /* \"#utility.yul\":257:273   */\n      add\n        /* \"#utility.yul\":254:279   */\n      gt\n        /* \"#utility.yul\":251:363   */\n      iszero\n      tag_60\n      jumpi\n        /* \"#utility.yul\":282:361   */\n      tag_61\n      tag_62\n      jump\t// in\n    tag_61:\n        /* \"#utility.yul\":251:363   */\n    tag_60:\n        /* \"#utility.yul\":372:413   */\n      tag_63\n        /* \"#utility.yul\":406:412   */\n      dup5\n        /* \"#utility.yul\":401:404   */\n      dup3\n        /* \"#utility.yul\":396:399   */\n      dup6\n        /* \"#utility.yul\":372:413   */\n      tag_64\n      jump\t// in\n    tag_63:\n        /* \"#utility.yul\":91:419   */\n      pop\n        /* \"#utility.yul\":7:419   */\n      swap4\n      swap3\n      pop\n      pop\n      pop\n      jump\t// out\n        /* \"#utility.yul\":425:564   */\n    tag_65:\n        /* \"#utility.yul\":471:476   */\n      0x00\n        /* \"#utility.yul\":509:515   */\n      dup2\n        /* \"#utility.yul\":496:516   */\n      calldataload\n        /* \"#utility.yul\":487:516   */\n      swap1\n      pop\n        /* \"#utility.yul\":525:558   */\n      tag_67\n        /* \"#utility.yul\":552:557   */\n      dup2\n        /* \"#utility.yul\":525:558   */\n      tag_68\n      jump\t// in\n    tag_67:\n        /* \"#utility.yul\":425:564   */\n      swap3\n      swap2\n      pop\n      pop\n      jump\t// out\n        /* \"#utility.yul\":584:924   */\n    tag_69:\n        /* \"#utility.yul\":640:645   */\n      0x00\n        /* \"#utility.yul\":689:692   */\n      dup3\n        /* \"#utility.yul\":682:686   */\n      0x1f\n        /* \"#utility.yul\":674:680   */\n      dup4\n        /* \"#utility.yul\":670:687   */\n      add\n        /* \"#utility.yul\":666:693   */\n      slt\n        /* \"#utility.yul\":656:778   */\n      tag_71\n      jumpi\n        /* \"#utility.yul\":697:776   */\n      tag_72\n      tag_73\n      jump\t// in\n    tag_72:\n        /* \"#utility.yul\":656:778   */\n    tag_71:\n        /* \"#utility.yul\":814:820   */\n      dup2\n        /* \"#utility.yul\":801:821   */\n      calldataload\n        /* \"#utility.yul\":839:918   */\n      tag_74\n        /* \"#utility.yul\":914:917   */\n      dup5\n        /* \"#utility.yul\":906:912   */\n      dup3\n        /* \"#utility.yul\":899:903   */\n      0x20\n        /* \"#utility.yul\":891:897   */\n      dup7\n        /* \"#utility.yul\":887:904   */\n      add\n        /* \"#utility.yul\":839:918   */\n      tag_54\n      jump\t// in\n    tag_74:\n        /* \"#utility.yul\":830:918   */\n      swap2\n      pop\n        /* \"#utility.yul\":646:924   */\n      pop\n        /* \"#utility.yul\":584:924   */\n      swap3\n      swap2\n      pop\n      pop\n      jump\t// out\n        /* \"#utility.yul\":930:1069   */\n    tag_75:\n        /* \"#utility.yul\":976:981   */\n      0x00\n        /* \"#utility.yul\":1014:1020   */\n      dup2\n        /* \"#utility.yul\":1001:1021   */\n      calldataload\n        /* \"#utility.yul\":992:1021   */\n      swap1\n      pop\n        /* \"#utility.yul\":1030:1063   */\n      tag_77\n        /* \"#utility.yul\":1057:1062   */\n      dup2\n        /* \"#utility.yul\":1030:1063   */\n      tag_78\n      jump\t// in\n    tag_77:\n        /* \"#utility.yul\":930:1069   */\n      swap3\n      swap2\n      pop\n      pop\n      jump\t// out\n        /* \"#utility.yul\":1075:1404   */\n    tag_9:\n        /* \"#utility.yul\":1134:1140   */\n      0x00\n        /* \"#utility.yul\":1183:1185   */\n      0x20\n        /* \"#utility.yul\":1171:1180   */\n      dup3\n        /* \"#utility.yul\":1162:1169   */\n      dup5\n        /* \"#utility.yul\":1158:1181   */\n      sub\n        /* \"#utility.yul\":1154:1186   */\n      slt\n        /* \"#utility.yul\":1151:1270   */\n      iszero\n      tag_80\n      jumpi\n        /* \"#utility.yul\":1189:1268   */\n      tag_81\n      tag_82\n      jump\t// in\n    tag_81:\n        /* \"#utility.yul\":1151:1270   */\n    tag_80:\n        /* \"#utility.yul\":1309:1310   */\n      0x00\n        /* \"#utility.yul\":1334:1387   */\n      tag_83\n        /* \"#utility.yul\":1379:1386   */\n      dup5\n        /* \"#utility.yul\":1370:1376   */\n      dup3\n        /* \"#utility.yul\":1359:1368   */\n      dup6\n        /* \"#utility.yul\":1355:1377   */\n      add\n        /* \"#utility.yul\":1334:1387   */\n      tag_65\n      jump\t// in\n    tag_83:\n        /* \"#utility.yul\":1324:1387   */\n      swap2\n      pop\n        /* \"#utility.yul\":1280:1397   */\n      pop\n        /* \"#utility.yul\":1075:1404   */\n      swap3\n      swap2\n      pop\n      pop\n      jump\t// out\n        /* \"#utility.yul\":1410:1884   */\n    tag_16:\n        /* \"#utility.yul\":1478:1484   */\n      0x00\n        /* \"#utility.yul\":1486:1492   */\n      dup1\n        /* \"#utility.yul\":1535:1537   */\n      0x40\n        /* \"#utility.yul\":1523:1532   */\n      dup4\n        /* \"#utility.yul\":1514:1521   */\n      dup6\n        /* \"#utility.yul\":1510:1533   */\n      sub\n        /* \"#utility.yul\":1506:1538   */\n      slt\n        /* \"#utility.yul\":1503:1622   */\n      iszero\n      tag_85\n      jumpi\n        /* \"#utility.yul\":1541:1620   */\n      tag_86\n      tag_82\n      jump\t// in\n    tag_86:\n        /* \"#utility.yul\":1503:1622   */\n    tag_85:\n        /* \"#utility.yul\":1661:1662   */\n      0x00\n        /* \"#utility.yul\":1686:1739   */\n      tag_87\n        /* \"#utility.yul\":1731:1738   */\n      dup6\n        /* \"#utility.yul\":1722:1728   */\n      dup3\n        /* \"#utility.yul\":1711:1720   */\n      dup7\n        /* \"#utility.yul\":1707:1729   */\n      add\n        /* \"#utility.yul\":1686:1739   */\n      tag_65\n      jump\t// in\n    tag_87:\n        /* \"#utility.yul\":1676:1739   */\n      swap3\n      pop\n        /* \"#utility.yul\":1632:1749   */\n      pop\n        /* \"#utility.yul\":1788:1790   */\n      0x20\n        /* \"#utility.yul\":1814:1867   */\n      tag_88\n        /* \"#utility.yul\":1859:1866   */\n      dup6\n        /* \"#utility.yul\":1850:1856   */\n      dup3\n        /* \"#utility.yul\":1839:1848   */\n      dup7\n        /* \"#utility.yul\":1835:1857   */\n      add\n        /* \"#utility.yul\":1814:1867   */\n      tag_75\n      jump\t// in\n    tag_88:\n        /* \"#utility.yul\":1804:1867   */\n      swap2\n      pop\n        /* \"#utility.yul\":1759:1877   */\n      pop\n        /* \"#utility.yul\":1410:1884   */\n      swap3\n      pop\n      swap3\n      swap1\n      pop\n      jump\t// out\n        /* \"#utility.yul\":1890:2399   */\n    tag_22:\n        /* \"#utility.yul\":1959:1965   */\n      0x00\n        /* \"#utility.yul\":2008:2010   */\n      0x20\n        /* \"#utility.yul\":1996:2005   */\n      dup3\n        /* \"#utility.yul\":1987:1994   */\n      dup5\n        /* \"#utility.yul\":1983:2006   */\n      sub\n        /* \"#utility.yul\":1979:2011   */\n      slt\n        /* \"#utility.yul\":1976:2095   */\n      iszero\n      tag_90\n      jumpi\n        /* \"#utility.yul\":2014:2093   */\n      tag_91\n      tag_82\n      jump\t// in\n    tag_91:\n        /* \"#utility.yul\":1976:2095   */\n    tag_90:\n        /* \"#utility.yul\":2162:2163   */\n      0x00\n        /* \"#utility.yul\":2151:2160   */\n      dup3\n        /* \"#utility.yul\":2147:2164   */\n      add\n        /* \"#utility.yul\":2134:2165   */\n      calldataload\n        /* \"#utility.yul\":2192:2210   */\n      0xffffffffffffffff\n        /* \"#utility.yul\":2184:2190   */\n      dup2\n        /* \"#utility.yul\":2181:2211   */\n      gt\n        /* \"#utility.yul\":2178:2295   */\n      iszero\n      tag_92\n      jumpi\n        /* \"#utility.yul\":2214:2293   */\n      tag_93\n      tag_94\n      jump\t// in\n    tag_93:\n        /* \"#utility.yul\":2178:2295   */\n    tag_92:\n        /* \"#utility.yul\":2319:2382   */\n      tag_95\n        /* \"#utility.yul\":2374:2381   */\n      dup5\n        /* \"#utility.yul\":2365:2371   */\n      dup3\n        /* \"#utility.yul\":2354:2363   */\n      dup6\n        /* \"#utility.yul\":2350:2372   */\n      add\n        /* \"#utility.yul\":2319:2382   */\n      tag_69\n      jump\t// in\n    tag_95:\n        /* \"#utility.yul\":2309:2382   */\n      swap2\n      pop\n        /* \"#utility.yul\":2105:2392   */\n      pop\n        /* \"#utility.yul\":1890:2399   */\n      swap3\n      swap2\n      pop\n      pop\n      jump\t// out\n        /* \"#utility.yul\":2405:2513   */\n    tag_96:\n        /* \"#utility.yul\":2482:2506   */\n      tag_98\n        /* \"#utility.yul\":2500:2505   */\n      dup2\n        /* \"#utility.yul\":2482:2506   */\n      tag_99\n      jump\t// in\n    tag_98:\n        /* \"#utility.yul\":2477:2480   */\n      dup3\n        /* \"#utility.yul\":2470:2507   */\n      mstore\n        /* \"#utility.yul\":2405:2513   */\n      pop\n      pop\n      jump\t// out\n        /* \"#utility.yul\":2519:2863   */\n    tag_100:\n        /* \"#utility.yul\":2597:2600   */\n      0x00\n        /* \"#utility.yul\":2625:2664   */\n      tag_102\n        /* \"#utility.yul\":2658:2663   */\n      dup3\n        /* \"#utility.yul\":2625:2664   */\n      tag_103\n      jump\t// in\n    tag_102:\n        /* \"#utility.yul\":2680:2741   */\n      tag_104\n        /* \"#utility.yul\":2734:2740   */\n      dup2\n        /* \"#utility.yul\":2729:2732   */\n      dup6\n        /* \"#utility.yul\":2680:2741   */\n      tag_105\n      jump\t// in\n    tag_104:\n        /* \"#utility.yul\":2673:2741   */\n      swap4\n      pop\n        /* \"#utility.yul\":2750:2802   */\n      tag_106\n        /* \"#utility.yul\":2795:2801   */\n      dup2\n        /* \"#utility.yul\":2790:2793   */\n      dup6\n        /* \"#utility.yul\":2783:2787   */\n      0x20\n        /* \"#utility.yul\":2776:2781   */\n      dup7\n        /* \"#utility.yul\":2772:2788   */\n      add\n        /* \"#utility.yul\":2750:2802   */\n      tag_107\n      jump\t// in\n    tag_106:\n        /* \"#utility.yul\":2827:2856   */\n      tag_108\n        /* \"#utility.yul\":2849:2855   */\n      dup2\n        /* \"#utility.yul\":2827:2856   */\n      tag_109\n      jump\t// in\n    tag_108:\n        /* \"#utility.yul\":2822:2825   */\n      dup5\n        /* \"#utility.yul\":2818:2857   */\n      add\n        /* \"#utility.yul\":2811:2857   */\n      swap2\n      pop\n        /* \"#utility.yul\":2601:2863   */\n      pop\n        /* \"#utility.yul\":2519:2863   */\n      swap3\n      swap2\n      pop\n      pop\n      jump\t// out\n        /* \"#utility.yul\":2927:3887   */\n    tag_110:\n        /* \"#utility.yul\":3042:3045   */\n      0x00\n        /* \"#utility.yul\":3078:3082   */\n      0x80\n        /* \"#utility.yul\":3073:3076   */\n      dup4\n        /* \"#utility.yul\":3069:3083   */\n      add\n        /* \"#utility.yul\":3167:3171   */\n      0x00\n        /* \"#utility.yul\":3160:3165   */\n      dup4\n        /* \"#utility.yul\":3156:3172   */\n      add\n        /* \"#utility.yul\":3150:3173   */\n      mload\n        /* \"#utility.yul\":3186:3249   */\n      tag_112\n        /* \"#utility.yul\":3243:3247   */\n      0x00\n        /* \"#utility.yul\":3238:3241   */\n      dup7\n        /* \"#utility.yul\":3234:3248   */\n      add\n        /* \"#utility.yul\":3220:3232   */\n      dup3\n        /* \"#utility.yul\":3186:3249   */\n      tag_113\n      jump\t// in\n    tag_112:\n        /* \"#utility.yul\":3093:3259   */\n      pop\n        /* \"#utility.yul\":3346:3350   */\n      0x20\n        /* \"#utility.yul\":3339:3344   */\n      dup4\n        /* \"#utility.yul\":3335:3351   */\n      add\n        /* \"#utility.yul\":3329:3352   */\n      mload\n        /* \"#utility.yul\":3365:3428   */\n      tag_114\n        /* \"#utility.yul\":3422:3426   */\n      0x20\n        /* \"#utility.yul\":3417:3420   */\n      dup7\n        /* \"#utility.yul\":3413:3427   */\n      add\n        /* \"#utility.yul\":3399:3411   */\n      dup3\n        /* \"#utility.yul\":3365:3428   */\n      tag_113\n      jump\t// in\n    tag_114:\n        /* \"#utility.yul\":3269:3438   */\n      pop\n        /* \"#utility.yul\":3520:3524   */\n      0x40\n        /* \"#utility.yul\":3513:3518   */\n      dup4\n        /* \"#utility.yul\":3509:3525   */\n      add\n        /* \"#utility.yul\":3503:3526   */\n      mload\n        /* \"#utility.yul\":3539:3602   */\n      tag_115\n        /* \"#utility.yul\":3596:3600   */\n      0x40\n        /* \"#utility.yul\":3591:3594   */\n      dup7\n        /* \"#utility.yul\":3587:3601   */\n      add\n        /* \"#utility.yul\":3573:3585   */\n      dup3\n        /* \"#utility.yul\":3539:3602   */\n      tag_96\n      jump\t// in\n    tag_115:\n        /* \"#utility.yul\":3448:3612   */\n      pop\n        /* \"#utility.yul\":3697:3701   */\n      0x60\n        /* \"#utility.yul\":3690:3695   */\n      dup4\n        /* \"#utility.yul\":3686:3702   */\n      add\n        /* \"#utility.yul\":3680:3703   */\n      mload\n        /* \"#utility.yul\":3750:3753   */\n      dup5\n        /* \"#utility.yul\":3744:3748   */\n      dup3\n        /* \"#utility.yul\":3740:3754   */\n      sub\n        /* \"#utility.yul\":3733:3737   */\n      0x60\n        /* \"#utility.yul\":3728:3731   */\n      dup7\n        /* \"#utility.yul\":3724:3738   */\n      add\n        /* \"#utility.yul\":3717:3755   */\n      mstore\n        /* \"#utility.yul\":3776:3849   */\n      tag_116\n        /* \"#utility.yul\":3844:3848   */\n      dup3\n        /* \"#utility.yul\":3830:3842   */\n      dup3\n        /* \"#utility.yul\":3776:3849   */\n      tag_100\n      jump\t// in\n    tag_116:\n        /* \"#utility.yul\":3768:3849   */\n      swap2\n      pop\n        /* \"#utility.yul\":3622:3860   */\n      pop\n        /* \"#utility.yul\":3877:3881   */\n      dup1\n        /* \"#utility.yul\":3870:3881   */\n      swap2\n      pop\n        /* \"#utility.yul\":3047:3887   */\n      pop\n        /* \"#utility.yul\":2927:3887   */\n      swap3\n      swap2\n      pop\n      pop\n      jump\t// out\n        /* \"#utility.yul\":3893:4001   */\n    tag_113:\n        /* \"#utility.yul\":3970:3994   */\n      tag_118\n        /* \"#utility.yul\":3988:3993   */\n      dup2\n        /* \"#utility.yul\":3970:3994   */\n      tag_119\n      jump\t// in\n    tag_118:\n        /* \"#utility.yul\":3965:3968   */\n      dup3\n        /* \"#utility.yul\":3958:3995   */\n      mstore\n        /* \"#utility.yul\":3893:4001   */\n      pop\n      pop\n      jump\t// out\n        /* \"#utility.yul\":4007:4125   */\n    tag_120:\n        /* \"#utility.yul\":4094:4118   */\n      tag_122\n        /* \"#utility.yul\":4112:4117   */\n      dup2\n        /* \"#utility.yul\":4094:4118   */\n      tag_119\n      jump\t// in\n    tag_122:\n        /* \"#utility.yul\":4089:4092   */\n      dup3\n        /* \"#utility.yul\":4082:4119   */\n      mstore\n        /* \"#utility.yul\":4007:4125   */\n      pop\n      pop\n      jump\t// out\n        /* \"#utility.yul\":4131:4496   */\n    tag_19:\n        /* \"#utility.yul\":4270:4274   */\n      0x00\n        /* \"#utility.yul\":4308:4310   */\n      0x20\n        /* \"#utility.yul\":4297:4306   */\n      dup3\n        /* \"#utility.yul\":4293:4311   */\n      add\n        /* \"#utility.yul\":4285:4311   */\n      swap1\n      pop\n        /* \"#utility.yul\":4357:4366   */\n      dup2\n        /* \"#utility.yul\":4351:4355   */\n      dup2\n        /* \"#utility.yul\":4347:4367   */\n      sub\n        /* \"#utility.yul\":4343:4344   */\n      0x00\n        /* \"#utility.yul\":4332:4341   */\n      dup4\n        /* \"#utility.yul\":4328:4345   */\n      add\n        /* \"#utility.yul\":4321:4368   */\n      mstore\n        /* \"#utility.yul\":4385:4489   */\n      tag_124\n        /* \"#utility.yul\":4484:4488   */\n      dup2\n        /* \"#utility.yul\":4475:4481   */\n      dup5\n        /* \"#utility.yul\":4385:4489   */\n      tag_110\n      jump\t// in\n    tag_124:\n        /* \"#utility.yul\":4377:4489   */\n      swap1\n      pop\n        /* \"#utility.yul\":4131:4496   */\n      swap3\n      swap2\n      pop\n      pop\n      jump\t// out\n        /* \"#utility.yul\":4502:4724   */\n    tag_12:\n        /* \"#utility.yul\":4595:4599   */\n      0x00\n        /* \"#utility.yul\":4633:4635   */\n      0x20\n        /* \"#utility.yul\":4622:4631   */\n      dup3\n        /* \"#utility.yul\":4618:4636   */\n      add\n        /* \"#utility.yul\":4610:4636   */\n      swap1\n      pop\n        /* \"#utility.yul\":4646:4717   */\n      tag_126\n        /* \"#utility.yul\":4714:4715   */\n      0x00\n        /* \"#utility.yul\":4703:4712   */\n      dup4\n        /* \"#utility.yul\":4699:4716   */\n      add\n        /* \"#utility.yul\":4690:4696   */\n      dup5\n        /* \"#utility.yul\":4646:4717   */\n      tag_120\n      jump\t// in\n    tag_126:\n        /* \"#utility.yul\":4502:4724   */\n      swap3\n      swap2\n      pop\n      pop\n      jump\t// out\n        /* \"#utility.yul\":4730:4859   */\n    tag_59:\n        /* \"#utility.yul\":4764:4770   */\n      0x00\n        /* \"#utility.yul\":4791:4811   */\n      tag_128\n      tag_129\n      jump\t// in\n    tag_128:\n        /* \"#utility.yul\":4781:4811   */\n      swap1\n      pop\n        /* \"#utility.yul\":4820:4853   */\n      tag_130\n        /* \"#utility.yul\":4848:4852   */\n      dup3\n        /* \"#utility.yul\":4840:4846   */\n      dup3\n        /* \"#utility.yul\":4820:4853   */\n      tag_131\n      jump\t// in\n    tag_130:\n        /* \"#utility.yul\":4730:4859   */\n      swap2\n      swap1\n      pop\n      jump\t// out\n        /* \"#utility.yul\":4865:4940   */\n    tag_129:\n        /* \"#utility.yul\":4898:4904   */\n      0x00\n        /* \"#utility.yul\":4931:4933   */\n      0x40\n        /* \"#utility.yul\":4925:4934   */\n      mload\n        /* \"#utility.yul\":4915:4934   */\n      swap1\n      pop\n        /* \"#utility.yul\":4865:4940   */\n      swap1\n      jump\t// out\n        /* \"#utility.yul\":4946:5254   */\n    tag_58:\n        /* \"#utility.yul\":5008:5012   */\n      0x00\n        /* \"#utility.yul\":5098:5116   */\n      0xffffffffffffffff\n        /* \"#utility.yul\":5090:5096   */\n      dup3\n        /* \"#utility.yul\":5087:5117   */\n      gt\n        /* \"#utility.yul\":5084:5140   */\n      iszero\n      tag_134\n      jumpi\n        /* \"#utility.yul\":5120:5138   */\n      tag_135\n      tag_136\n      jump\t// in\n    tag_135:\n        /* \"#utility.yul\":5084:5140   */\n    tag_134:\n        /* \"#utility.yul\":5158:5187   */\n      tag_137\n        /* \"#utility.yul\":5180:5186   */\n      dup3\n        /* \"#utility.yul\":5158:5187   */\n      tag_109\n      jump\t// in\n    tag_137:\n        /* \"#utility.yul\":5150:5187   */\n      swap1\n      pop\n        /* \"#utility.yul\":5242:5246   */\n      0x20\n        /* \"#utility.yul\":5236:5240   */\n      dup2\n        /* \"#utility.yul\":5232:5247   */\n      add\n        /* \"#utility.yul\":5224:5247   */\n      swap1\n      pop\n        /* \"#utility.yul\":4946:5254   */\n      swap2\n      swap1\n      pop\n      jump\t// out\n        /* \"#utility.yul\":5260:5359   */\n    tag_103:\n        /* \"#utility.yul\":5312:5318   */\n      0x00\n        /* \"#utility.yul\":5346:5351   */\n      dup2\n        /* \"#utility.yul\":5340:5352   */\n      mload\n        /* \"#utility.yul\":5330:5352   */\n      swap1\n      pop\n        /* \"#utility.yul\":5260:5359   */\n      swap2\n      swap1\n      pop\n      jump\t// out\n        /* \"#utility.yul\":5365:5524   */\n    tag_105:\n        /* \"#utility.yul\":5439:5450   */\n      0x00\n        /* \"#utility.yul\":5473:5479   */\n      dup3\n        /* \"#utility.yul\":5468:5471   */\n      dup3\n        /* \"#utility.yul\":5461:5480   */\n      mstore\n        /* \"#utility.yul\":5513:5517   */\n      0x20\n        /* \"#utility.yul\":5508:5511   */\n      dup3\n        /* \"#utility.yul\":5504:5518   */\n      add\n        /* \"#utility.yul\":5489:5518   */\n      swap1\n      pop\n        /* \"#utility.yul\":5365:5524   */\n      swap3\n      swap2\n      pop\n      pop\n      jump\t// out\n        /* \"#utility.yul\":5530:5626   */\n    tag_99:\n        /* \"#utility.yul\":5567:5574   */\n      0x00\n        /* \"#utility.yul\":5596:5620   */\n      tag_141\n        /* \"#utility.yul\":5614:5619   */\n      dup3\n        /* \"#utility.yul\":5596:5620   */\n      tag_142\n      jump\t// in\n    tag_141:\n        /* \"#utility.yul\":5585:5620   */\n      swap1\n      pop\n        /* \"#utility.yul\":5530:5626   */\n      swap2\n      swap1\n      pop\n      jump\t// out\n        /* \"#utility.yul\":5632:5758   */\n    tag_142:\n        /* \"#utility.yul\":5669:5676   */\n      0x00\n        /* \"#utility.yul\":5709:5751   */\n      0xffffffffffffffffffffffffffffffffffffffff\n        /* \"#utility.yul\":5702:5707   */\n      dup3\n        /* \"#utility.yul\":5698:5752   */\n      and\n        /* \"#utility.yul\":5687:5752   */\n      swap1\n      pop\n        /* \"#utility.yul\":5632:5758   */\n      swap2\n      swap1\n      pop\n      jump\t// out\n        /* \"#utility.yul\":5764:5841   */\n    tag_119:\n        /* \"#utility.yul\":5801:5808   */\n      0x00\n        /* \"#utility.yul\":5830:5835   */\n      dup2\n        /* \"#utility.yul\":5819:5835   */\n      swap1\n      pop\n        /* \"#utility.yul\":5764:5841   */\n      swap2\n      swap1\n      pop\n      jump\t// out\n        /* \"#utility.yul\":5847:6001   */\n    tag_64:\n        /* \"#utility.yul\":5931:5937   */\n      dup3\n        /* \"#utility.yul\":5926:5929   */\n      dup2\n        /* \"#utility.yul\":5921:5924   */\n      dup4\n        /* \"#utility.yul\":5908:5938   */\n      calldatacopy\n        /* \"#utility.yul\":5993:5994   */\n      0x00\n        /* \"#utility.yul\":5984:5990   */\n      dup4\n        /* \"#utility.yul\":5979:5982   */\n      dup4\n        /* \"#utility.yul\":5975:5991   */\n      add\n        /* \"#utility.yul\":5968:5995   */\n      mstore\n        /* \"#utility.yul\":5847:6001   */\n      pop\n      pop\n      pop\n      jump\t// out\n        /* \"#utility.yul\":6007:6314   */\n    tag_107:\n        /* \"#utility.yul\":6075:6076   */\n      0x00\n        /* \"#utility.yul\":6085:6198   */\n    tag_147:\n        /* \"#utility.yul\":6099:6105   */\n      dup4\n        /* \"#utility.yul\":6096:6097   */\n      dup2\n        /* \"#utility.yul\":6093:6106   */\n      lt\n        /* \"#utility.yul\":6085:6198   */\n      iszero\n      tag_149\n      jumpi\n        /* \"#utility.yul\":6184:6185   */\n      dup1\n        /* \"#utility.yul\":6179:6182   */\n      dup3\n        /* \"#utility.yul\":6175:6186   */\n      add\n        /* \"#utility.yul\":6169:6187   */\n      mload\n        /* \"#utility.yul\":6165:6166   */\n      dup2\n        /* \"#utility.yul\":6160:6163   */\n      dup5\n        /* \"#utility.yul\":6156:6167   */\n      add\n        /* \"#utility.yul\":6149:6188   */\n      mstore\n        /* \"#utility.yul\":6121:6123   */\n      0x20\n        /* \"#utility.yul\":6118:6119   */\n      dup2\n        /* \"#utility.yul\":6114:6124   */\n      add\n        /* \"#utility.yul\":6109:6124   */\n      swap1\n      pop\n        /* \"#utility.yul\":6085:6198   */\n      jump(tag_147)\n    tag_149:\n        /* \"#utility.yul\":6216:6222   */\n      dup4\n        /* \"#utility.yul\":6213:6214   */\n      dup2\n        /* \"#utility.yul\":6210:6223   */\n      gt\n        /* \"#utility.yul\":6207:6308   */\n      iszero\n      tag_150\n      jumpi\n        /* \"#utility.yul\":6296:6297   */\n      0x00\n        /* \"#utility.yul\":6287:6293   */\n      dup5\n        /* \"#utility.yul\":6282:6285   */\n      dup5\n        /* \"#utility.yul\":6278:6294   */\n      add\n        /* \"#utility.yul\":6271:6298   */\n      mstore\n        /* \"#utility.yul\":6207:6308   */\n    tag_150:\n        /* \"#utility.yul\":6056:6314   */\n      pop\n        /* \"#utility.yul\":6007:6314   */\n      pop\n      pop\n      pop\n      jump\t// out\n        /* \"#utility.yul\":6320:6640   */\n    tag_32:\n        /* \"#utility.yul\":6364:6370   */\n      0x00\n        /* \"#utility.yul\":6401:6402   */\n      0x02\n        /* \"#utility.yul\":6395:6399   */\n      dup3\n        /* \"#utility.yul\":6391:6403   */\n      div\n        /* \"#utility.yul\":6381:6403   */\n      swap1\n      pop\n        /* \"#utility.yul\":6448:6449   */\n      0x01\n        /* \"#utility.yul\":6442:6446   */\n      dup3\n        /* \"#utility.yul\":6438:6450   */\n      and\n        /* \"#utility.yul\":6469:6487   */\n      dup1\n        /* \"#utility.yul\":6459:6540   */\n      tag_152\n      jumpi\n        /* \"#utility.yul\":6525:6529   */\n      0x7f\n        /* \"#utility.yul\":6517:6523   */\n      dup3\n        /* \"#utility.yul\":6513:6530   */\n      and\n        /* \"#utility.yul\":6503:6530   */\n      swap2\n      pop\n        /* \"#utility.yul\":6459:6540   */\n    tag_152:\n        /* \"#utility.yul\":6587:6589   */\n      0x20\n        /* \"#utility.yul\":6579:6585   */\n      dup3\n        /* \"#utility.yul\":6576:6590   */\n      lt\n        /* \"#utility.yul\":6556:6574   */\n      dup2\n        /* \"#utility.yul\":6553:6591   */\n      eq\n        /* \"#utility.yul\":6550:6634   */\n      iszero\n      tag_153\n      jumpi\n        /* \"#utility.yul\":6606:6624   */\n      tag_154\n      tag_155\n      jump\t// in\n    tag_154:\n        /* \"#utility.yul\":6550:6634   */\n    tag_153:\n        /* \"#utility.yul\":6371:6640   */\n      pop\n        /* \"#utility.yul\":6320:6640   */\n      swap2\n      swap1\n      pop\n      jump\t// out\n        /* \"#utility.yul\":6646:6927   */\n    tag_131:\n        /* \"#utility.yul\":6729:6756   */\n      tag_157\n        /* \"#utility.yul\":6751:6755   */\n      dup3\n        /* \"#utility.yul\":6729:6756   */\n      tag_109\n      jump\t// in\n    tag_157:\n        /* \"#utility.yul\":6721:6727   */\n      dup2\n        /* \"#utility.yul\":6717:6757   */\n      add\n        /* \"#utility.yul\":6859:6865   */\n      dup2\n        /* \"#utility.yul\":6847:6857   */\n      dup2\n        /* \"#utility.yul\":6844:6866   */\n      lt\n        /* \"#utility.yul\":6823:6841   */\n      0xffffffffffffffff\n        /* \"#utility.yul\":6811:6821   */\n      dup3\n        /* \"#utility.yul\":6808:6842   */\n      gt\n        /* \"#utility.yul\":6805:6867   */\n      or\n        /* \"#utility.yul\":6802:6890   */\n      iszero\n      tag_158\n      jumpi\n        /* \"#utility.yul\":6870:6888   */\n      tag_159\n      tag_136\n      jump\t// in\n    tag_159:\n        /* \"#utility.yul\":6802:6890   */\n    tag_158:\n        /* \"#utility.yul\":6910:6920   */\n      dup1\n        /* \"#utility.yul\":6906:6908   */\n      0x40\n        /* \"#utility.yul\":6899:6921   */\n      mstore\n        /* \"#utility.yul\":6689:6927   */\n      pop\n        /* \"#utility.yul\":6646:6927   */\n      pop\n      pop\n      jump\t// out\n        /* \"#utility.yul\":6933:7166   */\n    tag_39:\n        /* \"#utility.yul\":6972:6975   */\n      0x00\n        /* \"#utility.yul\":6995:7019   */\n      tag_161\n        /* \"#utility.yul\":7013:7018   */\n      dup3\n        /* \"#utility.yul\":6995:7019   */\n      tag_119\n      jump\t// in\n    tag_161:\n        /* \"#utility.yul\":6986:7019   */\n      swap2\n      pop\n        /* \"#utility.yul\":7041:7107   */\n      0xffffffffffffffffffffffffffffffffffffffffffffffffffffffffffffffff\n        /* \"#utility.yul\":7034:7039   */\n      dup3\n        /* \"#utility.yul\":7031:7108   */\n      eq\n        /* \"#utility.yul\":7028:7131   */\n      iszero\n      tag_162\n      jumpi\n        /* \"#utility.yul\":7111:7129   */\n      tag_163\n      tag_164\n      jump\t// in\n    tag_163:\n        /* \"#utility.yul\":7028:7131   */\n    tag_162:\n        /* \"#utility.yul\":7158:7159   */\n      0x01\n        /* \"#utility.yul\":7151:7156   */\n      dup3\n        /* \"#utility.yul\":7147:7160   */\n      add\n        /* \"#utility.yul\":7140:7160   */\n      swap1\n      pop\n        /* \"#utility.yul\":6933:7166   */\n      swap2\n      swap1\n      pop\n      jump\t// out\n        /* \"#utility.yul\":7172:7352   */\n    tag_164:\n        /* \"#utility.yul\":7220:7297   */\n      0x4e487b7100000000000000000000000000000000000000000000000000000000\n        /* \"#utility.yul\":7217:7218   */\n      0x00\n        /* \"#utility.yul\":7210:7298   */\n      mstore\n        /* \"#utility.yul\":7317:7321   */\n      0x11\n        /* \"#utility.yul\":7314:7315   */\n      0x04\n        /* \"#utility.yul\":7307:7322   */\n      mstore\n        /* \"#utility.yul\":7341:7345   */\n      0x24\n        /* \"#utility.yul\":7338:7339   */\n      0x00\n        /* \"#utility.yul\":7331:7346   */\n      revert\n        /* \"#utility.yul\":7358:7538   */\n    tag_155:\n        /* \"#utility.yul\":7406:7483   */\n      0x4e487b7100000000000000000000000000000000000000000000000000000000\n        /* \"#utility.yul\":7403:7404   */\n      0x00\n        /* \"#utility.yul\":7396:7484   */\n      mstore\n        /* \"#utility.yul\":7503:7507   */\n      0x22\n        /* \"#utility.yul\":7500:7501   */\n      0x04\n        /* \"#utility.yul\":7493:7508   */\n      mstore\n        /* \"#utility.yul\":7527:7531   */\n      0x24\n        /* \"#utility.yul\":7524:7525   */\n      0x00\n        /* \"#utility.yul\":7517:7532   */\n      revert\n        /* \"#utility.yul\":7544:7724   */\n    tag_136:\n        /* \"#utility.yul\":7592:7669   */\n      0x4e487b7100000000000000000000000000000000000000000000000000000000\n        /* \"#utility.yul\":7589:7590   */\n      0x00\n        /* \"#utility.yul\":7582:7670   */\n      mstore\n        /* \"#utility.yul\":7689:7693   */\n      0x41\n        /* \"#utility.yul\":7686:7687   */\n      0x04\n        /* \"#utility.yul\":7679:7694   */\n      mstore\n        /* \"#utility.yul\":7713:7717   */\n      0x24\n        /* \"#utility.yul\":7710:7711   */\n      0x00\n        /* \"#utility.yul\":7703:7718   */\n      revert\n        /* \"#utility.yul\":7730:7847   */\n    tag_73:\n        /* \"#utility.yul\":7839:7840   */\n      0x00\n        /* \"#utility.yul\":7836:7837   */\n      dup1\n        /* \"#utility.yul\":7829:7841   */\n      revert\n        /* \"#utility.yul\":7853:7970   */\n    tag_62:\n        /* \"#utility.yul\":7962:7963   */\n      0x00\n        /* \"#utility.yul\":7959:7960   */\n      dup1\n        /* \"#utility.yul\":7952:7964   */\n      revert\n        /* \"#utility.yul\":7976:8093   */\n    tag_94:\n        /* \"#utility.yul\":8085:8086   */\n      0x00\n        /* \"#utility.yul\":8082:8083   */\n      dup1\n        /* \"#utility.yul\":8075:8087   */\n      revert\n        /* \"#utility.yul\":8099:8216   */\n    tag_82:\n        /* \"#utility.yul\":8208:8209   */\n      0x00\n        /* \"#utility.yul\":8205:8206   */\n      dup1\n        /* \"#utility.yul\":8198:8210   */\n      revert\n        /* \"#utility.yul\":8222:8324   */\n    tag_109:\n        /* \"#utility.yul\":8263:8269   */\n      0x00\n        /* \"#utility.yul\":8314:8316   */\n      0x1f\n        /* \"#utility.yul\":8310:8317   */\n      not\n        /* \"#utility.yul\":8305:8307   */\n      0x1f\n        /* \"#utility.yul\":8298:8303   */\n      dup4\n        /* \"#utility.yul\":8294:8308   */\n      add\n        /* \"#utility.yul\":8290:8318   */\n      and\n        /* \"#utility.yul\":8280:8318   */\n      swap1\n      pop\n        /* \"#utility.yul\":8222:8324   */\n      swap2\n      swap1\n      pop\n      jump\t// out\n        /* \"#utility.yul\":8330:8452   */\n    tag_68:\n        /* \"#utility.yul\":8403:8427   */\n      tag_174\n        /* \"#utility.yul\":8421:8426   */\n      dup2\n        /* \"#utility.yul\":8403:8427   */\n      tag_99\n      jump\t// in\n    tag_174:\n        /* \"#utility.yul\":8396:8401   */\n      dup2\n        /* \"#utility.yul\":8393:8428   */\n      eq\n        /* \"#utility.yul\":8383:8446   */\n      tag_175\n      jumpi\n        /* \"#utility.yul\":8442:8443   */\n      0x00\n        /* \"#utility.yul\":8439:8440   */\n      dup1\n        /* \"#utility.yul\":8432:8444   */\n      revert\n        /* \"#utility.yul\":8383:8446   */\n    tag_175:\n        /* \"#utility.yul\":8330:8452   */\n      pop\n      jump\t// out\n        /* \"#utility.yul\":8458:8580   */\n    tag_78:\n        /* \"#utility.yul\":8531:8555   */\n      tag_177\n        /* \"#utility.yul\":8549:8554   */\n      dup2\n        /* \"#utility.yul\":8531:8555   */\n      tag_119\n      jump\t// in\n    tag_177:\n        /* \"#utility.yul\":8524:8529   */\n      dup2\n        /* \"#utility.yul\":8521:8556   */\n      eq\n        /* \"#utility.yul\":8511:8574   */\n      tag_178\n      jumpi\n        /* \"#utility.yul\":8570:8571   */\n      0x00\n        /* \"#utility.yul\":8567:8568   */\n      dup1\n        /* \"#utility.yul\":8560:8572   */\n      revert\n        /* \"#utility.yul\":8511:8574   */\n    tag_178:\n        /* \"#utility.yul\":8458:8580   */\n      pop\n      jump\t// out\n\n    auxdata: 0xa2646970667358221220d8ae965bad7428cb1e84f798f0032f097083c3eb58fbd25e9edab5af54dbf53d64736f6c63430008070033\n}\n",
				"bytecode": {
					"linkReferences": {},
					"object": "608060405234801561001057600080fd5b50610a28806100206000396000f3fe60806040526004361061003f5760003560e01c806327e235e31461004457806328f2d6cd146100815780632b66d72e146100be578063ce845d1d146100da575b600080fd5b34801561005057600080fd5b5061006b600480360381019061006691906105ba565b610105565b604051610078919061075b565b60405180910390f35b34801561008d57600080fd5b506100a860048036038101906100a391906105e7565b610123565b6040516100b59190610739565b60405180910390f35b6100d860048036038101906100d39190610627565b61028c565b005b3480156100e657600080fd5b506100ef610437565b6040516100fc919061075b565b60405180910390f35b60006020528060005260406000206000915090508060000154905081565b61012b61043f565b6000808473ffffffffffffffffffffffffffffffffffffffff1673ffffffffffffffffffffffffffffffffffffffff168152602001908152602001600020600101600083815260200190815260200160002060405180608001604052908160008201548152602001600182015481526020016002820160009054906101000a900473ffffffffffffffffffffffffffffffffffffffff1673ffffffffffffffffffffffffffffffffffffffff1673ffffffffffffffffffffffffffffffffffffffff16815260200160038201805461020290610866565b80601f016020809104026020016040519081016040528092919081815260200182805461022e90610866565b801561027b5780601f106102505761010080835404028352916020019161027b565b820191906000526020600020905b81548152906001019060200180831161025e57829003601f168201915b505050505081525050905092915050565b60008060003373ffffffffffffffffffffffffffffffffffffffff1673ffffffffffffffffffffffffffffffffffffffff1681526020019081526020016000206000015490506000803373ffffffffffffffffffffffffffffffffffffffff1673ffffffffffffffffffffffffffffffffffffffff1681526020019081526020016000206000016000815480929190610324906108c9565b9190505550600060405180608001604052803481526020014281526020013373ffffffffffffffffffffffffffffffffffffffff168152602001848152509050806000803373ffffffffffffffffffffffffffffffffffffffff1673ffffffffffffffffffffffffffffffffffffffff1681526020019081526020016000206001016000848152602001908152602001600020600082015181600001556020820151816001015560408201518160020160006101000a81548173ffffffffffffffffffffffffffffffffffffffff021916908373ffffffffffffffffffffffffffffffffffffffff160217905550606082015181600301908051906020019061042e92919061047d565b50905050505050565b600047905090565b60405180608001604052806000815260200160008152602001600073ffffffffffffffffffffffffffffffffffffffff168152602001606081525090565b82805461048990610866565b90600052602060002090601f0160209004810192826104ab57600085556104f2565b82601f106104c457805160ff19168380011785556104f2565b828001600101855582156104f2579182015b828111156104f15782518255916020019190600101906104d6565b5b5090506104ff9190610503565b5090565b5b8082111561051c576000816000905550600101610504565b5090565b600061053361052e8461079b565b610776565b90508281526020810184848401111561054f5761054e6109a4565b5b61055a848285610824565b509392505050565b600081359050610571816109c4565b92915050565b600082601f83011261058c5761058b61099f565b5b813561059c848260208601610520565b91505092915050565b6000813590506105b4816109db565b92915050565b6000602082840312156105d0576105cf6109ae565b5b60006105de84828501610562565b91505092915050565b600080604083850312156105fe576105fd6109ae565b5b600061060c85828601610562565b925050602061061d858286016105a5565b9150509250929050565b60006020828403121561063d5761063c6109ae565b5b600082013567ffffffffffffffff81111561065b5761065a6109a9565b5b61066784828501610577565b91505092915050565b610679816107e8565b82525050565b600061068a826107cc565b61069481856107d7565b93506106a4818560208601610833565b6106ad816109b3565b840191505092915050565b60006080830160008301516106d0600086018261071b565b5060208301516106e3602086018261071b565b5060408301516106f66040860182610670565b506060830151848203606086015261070e828261067f565b9150508091505092915050565b6107248161081a565b82525050565b6107338161081a565b82525050565b6000602082019050818103600083015261075381846106b8565b905092915050565b6000602082019050610770600083018461072a565b92915050565b6000610780610791565b905061078c8282610898565b919050565b6000604051905090565b600067ffffffffffffffff8211156107b6576107b5610970565b5b6107bf826109b3565b9050602081019050919050565b600081519050919050565b600082825260208201905092915050565b60006107f3826107fa565b9050919050565b600073ffffffffffffffffffffffffffffffffffffffff82169050919050565b6000819050919050565b82818337600083830152505050565b60005b83811015610851578082015181840152602081019050610836565b83811115610860576000848401525b50505050565b6000600282049050600182168061087e57607f821691505b6020821081141561089257610891610941565b5b50919050565b6108a1826109b3565b810181811067ffffffffffffffff821117156108c0576108bf610970565b5b80604052505050565b60006108d48261081a565b91507fffffffffffffffffffffffffffffffffffffffffffffffffffffffffffffffff82141561090757610906610912565b5b600182019050919050565b7f4e487b7100000000000000000000000000000000000000000000000000000000600052601160045260246000fd5b7f4e487b7100000000000000000000000000000000000000000000000000000000600052602260045260246000fd5b7f4e487b7100000000000000000000000000000000000000000000000000000000600052604160045260246000fd5b600080fd5b600080fd5b600080fd5b600080fd5b6000601f19601f8301169050919050565b6109cd816107e8565b81146109d857600080fd5b50565b6109e48161081a565b81146109ef57600080fd5b5056fea2646970667358221220d8ae965bad7428cb1e84f798f0032f097083c3eb58fbd25e9edab5af54dbf53d64736f6c63430008070033",
					"opcodes": "PUSH1 0x80 PUSH1 0x40 MSTORE CALLVALUE DUP1 ISZERO PUSH2 0x10 JUMPI PUSH1 0x0 DUP1 REVERT JUMPDEST POP PUSH2 0xA28 DUP1 PUSH2 0x20 PUSH1 0x0 CODECOPY PUSH1 0x0 RETURN INVALID PUSH1 0x80 PUSH1 0x40 MSTORE PUSH1 0x4 CALLDATASIZE LT PUSH2 0x3F JUMPI PUSH1 0x0 CALLDATALOAD PUSH1 0xE0 SHR DUP1 PUSH4 0x27E235E3 EQ PUSH2 0x44 JUMPI DUP1 PUSH4 0x28F2D6CD EQ PUSH2 0x81 JUMPI DUP1 PUSH4 0x2B66D72E EQ PUSH2 0xBE JUMPI DUP1 PUSH4 0xCE845D1D EQ PUSH2 0xDA JUMPI JUMPDEST PUSH1 0x0 DUP1 REVERT JUMPDEST CALLVALUE DUP1 ISZERO PUSH2 0x50 JUMPI PUSH1 0x0 DUP1 REVERT JUMPDEST POP PUSH2 0x6B PUSH1 0x4 DUP1 CALLDATASIZE SUB DUP2 ADD SWAP1 PUSH2 0x66 SWAP2 SWAP1 PUSH2 0x5BA JUMP JUMPDEST PUSH2 0x105 JUMP JUMPDEST PUSH1 0x40 MLOAD PUSH2 0x78 SWAP2 SWAP1 PUSH2 0x75B JUMP JUMPDEST PUSH1 0x40 MLOAD DUP1 SWAP2 SUB SWAP1 RETURN JUMPDEST CALLVALUE DUP1 ISZERO PUSH2 0x8D JUMPI PUSH1 0x0 DUP1 REVERT JUMPDEST POP PUSH2 0xA8 PUSH1 0x4 DUP1 CALLDATASIZE SUB DUP2 ADD SWAP1 PUSH2 0xA3 SWAP2 SWAP1 PUSH2 0x5E7 JUMP JUMPDEST PUSH2 0x123 JUMP JUMPDEST PUSH1 0x40 MLOAD PUSH2 0xB5 SWAP2 SWAP1 PUSH2 0x739 JUMP JUMPDEST PUSH1 0x40 MLOAD DUP1 SWAP2 SUB SWAP1 RETURN JUMPDEST PUSH2 0xD8 PUSH1 0x4 DUP1 CALLDATASIZE SUB DUP2 ADD SWAP1 PUSH2 0xD3 SWAP2 SWAP1 PUSH2 0x627 JUMP JUMPDEST PUSH2 0x28C JUMP JUMPDEST STOP JUMPDEST CALLVALUE DUP1 ISZERO PUSH2 0xE6 JUMPI PUSH1 0x0 DUP1 REVERT JUMPDEST POP PUSH2 0xEF PUSH2 0x437 JUMP JUMPDEST PUSH1 0x40 MLOAD PUSH2 0xFC SWAP2 SWAP1 PUSH2 0x75B JUMP JUMPDEST PUSH1 0x40 MLOAD DUP1 SWAP2 SUB SWAP1 RETURN JUMPDEST PUSH1 0x0 PUSH1 0x20 MSTORE DUP1 PUSH1 0x0 MSTORE PUSH1 0x40 PUSH1 0x0 KECCAK256 PUSH1 0x0 SWAP2 POP SWAP1 POP DUP1 PUSH1 0x0 ADD SLOAD SWAP1 POP DUP2 JUMP JUMPDEST PUSH2 0x12B PUSH2 0x43F JUMP JUMPDEST PUSH1 0x0 DUP1 DUP5 PUSH20 0xFFFFFFFFFFFFFFFFFFFFFFFFFFFFFFFFFFFFFFFF AND PUSH20 0xFFFFFFFFFFFFFFFFFFFFFFFFFFFFFFFFFFFFFFFF AND DUP2 MSTORE PUSH1 0x20 ADD SWAP1 DUP2 MSTORE PUSH1 0x20 ADD PUSH1 0x0 KECCAK256 PUSH1 0x1 ADD PUSH1 0x0 DUP4 DUP2 MSTORE PUSH1 0x20 ADD SWAP1 DUP2 MSTORE PUSH1 0x20 ADD PUSH1 0x0 KECCAK256 PUSH1 0x40 MLOAD DUP1 PUSH1 0x80 ADD PUSH1 0x40 MSTORE SWAP1 DUP2 PUSH1 0x0 DUP3 ADD SLOAD DUP2 MSTORE PUSH1 0x20 ADD PUSH1 0x1 DUP3 ADD SLOAD DUP2 MSTORE PUSH1 0x20 ADD PUSH1 0x2 DUP3 ADD PUSH1 0x0 SWAP1 SLOAD SWAP1 PUSH2 0x100 EXP SWAP1 DIV PUSH20 0xFFFFFFFFFFFFFFFFFFFFFFFFFFFFFFFFFFFFFFFF AND PUSH20 0xFFFFFFFFFFFFFFFFFFFFFFFFFFFFFFFFFFFFFFFF AND PUSH20 0xFFFFFFFFFFFFFFFFFFFFFFFFFFFFFFFFFFFFFFFF AND DUP2 MSTORE PUSH1 0x20 ADD PUSH1 0x3 DUP3 ADD DUP1 SLOAD PUSH2 0x202 SWAP1 PUSH2 0x866 JUMP JUMPDEST DUP1 PUSH1 0x1F ADD PUSH1 0x20 DUP1 SWAP2 DIV MUL PUSH1 0x20 ADD PUSH1 0x40 MLOAD SWAP1 DUP2 ADD PUSH1 0x40 MSTORE DUP1 SWAP3 SWAP2 SWAP1 DUP2 DUP2 MSTORE PUSH1 0x20 ADD DUP3 DUP1 SLOAD PUSH2 0x22E SWAP1 PUSH2 0x866 JUMP JUMPDEST DUP1 ISZERO PUSH2 0x27B JUMPI DUP1 PUSH1 0x1F LT PUSH2 0x250 JUMPI PUSH2 0x100 DUP1 DUP4 SLOAD DIV MUL DUP4 MSTORE SWAP2 PUSH1 0x20 ADD SWAP2 PUSH2 0x27B JUMP JUMPDEST DUP3 ADD SWAP2 SWAP1 PUSH1 0x0 MSTORE PUSH1 0x20 PUSH1 0x0 KECCAK256 SWAP1 JUMPDEST DUP2 SLOAD DUP2 MSTORE SWAP1 PUSH1 0x1 ADD SWAP1 PUSH1 0x20 ADD DUP1 DUP4 GT PUSH2 0x25E JUMPI DUP3 SWAP1 SUB PUSH1 0x1F AND DUP3 ADD SWAP2 JUMPDEST POP POP POP POP POP DUP2 MSTORE POP POP SWAP1 POP SWAP3 SWAP2 POP POP JUMP JUMPDEST PUSH1 0x0 DUP1 PUSH1 0x0 CALLER PUSH20 0xFFFFFFFFFFFFFFFFFFFFFFFFFFFFFFFFFFFFFFFF AND PUSH20 0xFFFFFFFFFFFFFFFFFFFFFFFFFFFFFFFFFFFFFFFF AND DUP2 MSTORE PUSH1 0x20 ADD SWAP1 DUP2 MSTORE PUSH1 0x20 ADD PUSH1 0x0 KECCAK256 PUSH1 0x0 ADD SLOAD SWAP1 POP PUSH1 0x0 DUP1 CALLER PUSH20 0xFFFFFFFFFFFFFFFFFFFFFFFFFFFFFFFFFFFFFFFF AND PUSH20 0xFFFFFFFFFFFFFFFFFFFFFFFFFFFFFFFFFFFFFFFF AND DUP2 MSTORE PUSH1 0x20 ADD SWAP1 DUP2 MSTORE PUSH1 0x20 ADD PUSH1 0x0 KECCAK256 PUSH1 0x0 ADD PUSH1 0x0 DUP2 SLOAD DUP1 SWAP3 SWAP2 SWAP1 PUSH2 0x324 SWAP1 PUSH2 0x8C9 JUMP JUMPDEST SWAP2 SWAP1 POP SSTORE POP PUSH1 0x0 PUSH1 0x40 MLOAD DUP1 PUSH1 0x80 ADD PUSH1 0x40 MSTORE DUP1 CALLVALUE DUP2 MSTORE PUSH1 0x20 ADD TIMESTAMP DUP2 MSTORE PUSH1 0x20 ADD CALLER PUSH20 0xFFFFFFFFFFFFFFFFFFFFFFFFFFFFFFFFFFFFFFFF AND DUP2 MSTORE PUSH1 0x20 ADD DUP5 DUP2 MSTORE POP SWAP1 POP DUP1 PUSH1 0x0 DUP1 CALLER PUSH20 0xFFFFFFFFFFFFFFFFFFFFFFFFFFFFFFFFFFFFFFFF AND PUSH20 0xFFFFFFFFFFFFFFFFFFFFFFFFFFFFFFFFFFFFFFFF AND DUP2 MSTORE PUSH1 0x20 ADD SWAP1 DUP2 MSTORE PUSH1 0x20 ADD PUSH1 0x0 KECCAK256 PUSH1 0x1 ADD PUSH1 0x0 DUP5 DUP2 MSTORE PUSH1 0x20 ADD SWAP1 DUP2 MSTORE PUSH1 0x20 ADD PUSH1 0x0 KECCAK256 PUSH1 0x0 DUP3 ADD MLOAD DUP2 PUSH1 0x0 ADD SSTORE PUSH1 0x20 DUP3 ADD MLOAD DUP2 PUSH1 0x1 ADD SSTORE PUSH1 0x40 DUP3 ADD MLOAD DUP2 PUSH1 0x2 ADD PUSH1 0x0 PUSH2 0x100 EXP DUP2 SLOAD DUP2 PUSH20 0xFFFFFFFFFFFFFFFFFFFFFFFFFFFFFFFFFFFFFFFF MUL NOT AND SWAP1 DUP4 PUSH20 0xFFFFFFFFFFFFFFFFFFFFFFFFFFFFFFFFFFFFFFFF AND MUL OR SWAP1 SSTORE POP PUSH1 0x60 DUP3 ADD MLOAD DUP2 PUSH1 0x3 ADD SWAP1 DUP1 MLOAD SWAP1 PUSH1 0x20 ADD SWAP1 PUSH2 0x42E SWAP3 SWAP2 SWAP1 PUSH2 0x47D JUMP JUMPDEST POP SWAP1 POP POP POP POP POP JUMP JUMPDEST PUSH1 0x0 SELFBALANCE SWAP1 POP SWAP1 JUMP JUMPDEST PUSH1 0x40 MLOAD DUP1 PUSH1 0x80 ADD PUSH1 0x40 MSTORE DUP1 PUSH1 0x0 DUP2 MSTORE PUSH1 0x20 ADD PUSH1 0x0 DUP2 MSTORE PUSH1 0x20 ADD PUSH1 0x0 PUSH20 0xFFFFFFFFFFFFFFFFFFFFFFFFFFFFFFFFFFFFFFFF AND DUP2 MSTORE PUSH1 0x20 ADD PUSH1 0x60 DUP2 MSTORE POP SWAP1 JUMP JUMPDEST DUP3 DUP1 SLOAD PUSH2 0x489 SWAP1 PUSH2 0x866 JUMP JUMPDEST SWAP1 PUSH1 0x0 MSTORE PUSH1 0x20 PUSH1 0x0 KECCAK256 SWAP1 PUSH1 0x1F ADD PUSH1 0x20 SWAP1 DIV DUP2 ADD SWAP3 DUP3 PUSH2 0x4AB JUMPI PUSH1 0x0 DUP6 SSTORE PUSH2 0x4F2 JUMP JUMPDEST DUP3 PUSH1 0x1F LT PUSH2 0x4C4 JUMPI DUP1 MLOAD PUSH1 0xFF NOT AND DUP4 DUP1 ADD OR DUP6 SSTORE PUSH2 0x4F2 JUMP JUMPDEST DUP3 DUP1 ADD PUSH1 0x1 ADD DUP6 SSTORE DUP3 ISZERO PUSH2 0x4F2 JUMPI SWAP2 DUP3 ADD JUMPDEST DUP3 DUP2 GT ISZERO PUSH2 0x4F1 JUMPI DUP3 MLOAD DUP3 SSTORE SWAP2 PUSH1 0x20 ADD SWAP2 SWAP1 PUSH1 0x1 ADD SWAP1 PUSH2 0x4D6 JUMP JUMPDEST JUMPDEST POP SWAP1 POP PUSH2 0x4FF SWAP2 SWAP1 PUSH2 0x503 JUMP JUMPDEST POP SWAP1 JUMP JUMPDEST JUMPDEST DUP1 DUP3 GT ISZERO PUSH2 0x51C JUMPI PUSH1 0x0 DUP2 PUSH1 0x0 SWAP1 SSTORE POP PUSH1 0x1 ADD PUSH2 0x504 JUMP JUMPDEST POP SWAP1 JUMP JUMPDEST PUSH1 0x0 PUSH2 0x533 PUSH2 0x52E DUP5 PUSH2 0x79B JUMP JUMPDEST PUSH2 0x776 JUMP JUMPDEST SWAP1 POP DUP3 DUP2 MSTORE PUSH1 0x20 DUP2 ADD DUP5 DUP5 DUP5 ADD GT ISZERO PUSH2 0x54F JUMPI PUSH2 0x54E PUSH2 0x9A4 JUMP JUMPDEST JUMPDEST PUSH2 0x55A DUP5 DUP3 DUP6 PUSH2 0x824 JUMP JUMPDEST POP SWAP4 SWAP3 POP POP POP JUMP JUMPDEST PUSH1 0x0 DUP2 CALLDATALOAD SWAP1 POP PUSH2 0x571 DUP2 PUSH2 0x9C4 JUMP JUMPDEST SWAP3 SWAP2 POP POP JUMP JUMPDEST PUSH1 0x0 DUP3 PUSH1 0x1F DUP4 ADD SLT PUSH2 0x58C JUMPI PUSH2 0x58B PUSH2 0x99F JUMP JUMPDEST JUMPDEST DUP2 CALLDATALOAD PUSH2 0x59C DUP5 DUP3 PUSH1 0x20 DUP7 ADD PUSH2 0x520 JUMP JUMPDEST SWAP2 POP POP SWAP3 SWAP2 POP POP JUMP JUMPDEST PUSH1 0x0 DUP2 CALLDATALOAD SWAP1 POP PUSH2 0x5B4 DUP2 PUSH2 0x9DB JUMP JUMPDEST SWAP3 SWAP2 POP POP JUMP JUMPDEST PUSH1 0x0 PUSH1 0x20 DUP3 DUP5 SUB SLT ISZERO PUSH2 0x5D0 JUMPI PUSH2 0x5CF PUSH2 0x9AE JUMP JUMPDEST JUMPDEST PUSH1 0x0 PUSH2 0x5DE DUP5 DUP3 DUP6 ADD PUSH2 0x562 JUMP JUMPDEST SWAP2 POP POP SWAP3 SWAP2 POP POP JUMP JUMPDEST PUSH1 0x0 DUP1 PUSH1 0x40 DUP4 DUP6 SUB SLT ISZERO PUSH2 0x5FE JUMPI PUSH2 0x5FD PUSH2 0x9AE JUMP JUMPDEST JUMPDEST PUSH1 0x0 PUSH2 0x60C DUP6 DUP3 DUP7 ADD PUSH2 0x562 JUMP JUMPDEST SWAP3 POP POP PUSH1 0x20 PUSH2 0x61D DUP6 DUP3 DUP7 ADD PUSH2 0x5A5 JUMP JUMPDEST SWAP2 POP POP SWAP3 POP SWAP3 SWAP1 POP JUMP JUMPDEST PUSH1 0x0 PUSH1 0x20 DUP3 DUP5 SUB SLT ISZERO PUSH2 0x63D JUMPI PUSH2 0x63C PUSH2 0x9AE JUMP JUMPDEST JUMPDEST PUSH1 0x0 DUP3 ADD CALLDATALOAD PUSH8 0xFFFFFFFFFFFFFFFF DUP2 GT ISZERO PUSH2 0x65B JUMPI PUSH2 0x65A PUSH2 0x9A9 JUMP JUMPDEST JUMPDEST PUSH2 0x667 DUP5 DUP3 DUP6 ADD PUSH2 0x577 JUMP JUMPDEST SWAP2 POP POP SWAP3 SWAP2 POP POP JUMP JUMPDEST PUSH2 0x679 DUP2 PUSH2 0x7E8 JUMP JUMPDEST DUP3 MSTORE POP POP JUMP JUMPDEST PUSH1 0x0 PUSH2 0x68A DUP3 PUSH2 0x7CC JUMP JUMPDEST PUSH2 0x694 DUP2 DUP6 PUSH2 0x7D7 JUMP JUMPDEST SWAP4 POP PUSH2 0x6A4 DUP2 DUP6 PUSH1 0x20 DUP7 ADD PUSH2 0x833 JUMP JUMPDEST PUSH2 0x6AD DUP2 PUSH2 0x9B3 JUMP JUMPDEST DUP5 ADD SWAP2 POP POP SWAP3 SWAP2 POP POP JUMP JUMPDEST PUSH1 0x0 PUSH1 0x80 DUP4 ADD PUSH1 0x0 DUP4 ADD MLOAD PUSH2 0x6D0 PUSH1 0x0 DUP7 ADD DUP3 PUSH2 0x71B JUMP JUMPDEST POP PUSH1 0x20 DUP4 ADD MLOAD PUSH2 0x6E3 PUSH1 0x20 DUP7 ADD DUP3 PUSH2 0x71B JUMP JUMPDEST POP PUSH1 0x40 DUP4 ADD MLOAD PUSH2 0x6F6 PUSH1 0x40 DUP7 ADD DUP3 PUSH2 0x670 JUMP JUMPDEST POP PUSH1 0x60 DUP4 ADD MLOAD DUP5 DUP3 SUB PUSH1 0x60 DUP7 ADD MSTORE PUSH2 0x70E DUP3 DUP3 PUSH2 0x67F JUMP JUMPDEST SWAP2 POP POP DUP1 SWAP2 POP POP SWAP3 SWAP2 POP POP JUMP JUMPDEST PUSH2 0x724 DUP2 PUSH2 0x81A JUMP JUMPDEST DUP3 MSTORE POP POP JUMP JUMPDEST PUSH2 0x733 DUP2 PUSH2 0x81A JUMP JUMPDEST DUP3 MSTORE POP POP JUMP JUMPDEST PUSH1 0x0 PUSH1 0x20 DUP3 ADD SWAP1 POP DUP2 DUP2 SUB PUSH1 0x0 DUP4 ADD MSTORE PUSH2 0x753 DUP2 DUP5 PUSH2 0x6B8 JUMP JUMPDEST SWAP1 POP SWAP3 SWAP2 POP POP JUMP JUMPDEST PUSH1 0x0 PUSH1 0x20 DUP3 ADD SWAP1 POP PUSH2 0x770 PUSH1 0x0 DUP4 ADD DUP5 PUSH2 0x72A JUMP JUMPDEST SWAP3 SWAP2 POP POP JUMP JUMPDEST PUSH1 0x0 PUSH2 0x780 PUSH2 0x791 JUMP JUMPDEST SWAP1 POP PUSH2 0x78C DUP3 DUP3 PUSH2 0x898 JUMP JUMPDEST SWAP2 SWAP1 POP JUMP JUMPDEST PUSH1 0x0 PUSH1 0x40 MLOAD SWAP1 POP SWAP1 JUMP JUMPDEST PUSH1 0x0 PUSH8 0xFFFFFFFFFFFFFFFF DUP3 GT ISZERO PUSH2 0x7B6 JUMPI PUSH2 0x7B5 PUSH2 0x970 JUMP JUMPDEST JUMPDEST PUSH2 0x7BF DUP3 PUSH2 0x9B3 JUMP JUMPDEST SWAP1 POP PUSH1 0x20 DUP2 ADD SWAP1 POP SWAP2 SWAP1 POP JUMP JUMPDEST PUSH1 0x0 DUP2 MLOAD SWAP1 POP SWAP2 SWAP1 POP JUMP JUMPDEST PUSH1 0x0 DUP3 DUP3 MSTORE PUSH1 0x20 DUP3 ADD SWAP1 POP SWAP3 SWAP2 POP POP JUMP JUMPDEST PUSH1 0x0 PUSH2 0x7F3 DUP3 PUSH2 0x7FA JUMP JUMPDEST SWAP1 POP SWAP2 SWAP1 POP JUMP JUMPDEST PUSH1 0x0 PUSH20 0xFFFFFFFFFFFFFFFFFFFFFFFFFFFFFFFFFFFFFFFF DUP3 AND SWAP1 POP SWAP2 SWAP1 POP JUMP JUMPDEST PUSH1 0x0 DUP2 SWAP1 POP SWAP2 SWAP1 POP JUMP JUMPDEST DUP3 DUP2 DUP4 CALLDATACOPY PUSH1 0x0 DUP4 DUP4 ADD MSTORE POP POP POP JUMP JUMPDEST PUSH1 0x0 JUMPDEST DUP4 DUP2 LT ISZERO PUSH2 0x851 JUMPI DUP1 DUP3 ADD MLOAD DUP2 DUP5 ADD MSTORE PUSH1 0x20 DUP2 ADD SWAP1 POP PUSH2 0x836 JUMP JUMPDEST DUP4 DUP2 GT ISZERO PUSH2 0x860 JUMPI PUSH1 0x0 DUP5 DUP5 ADD MSTORE JUMPDEST POP POP POP POP JUMP JUMPDEST PUSH1 0x0 PUSH1 0x2 DUP3 DIV SWAP1 POP PUSH1 0x1 DUP3 AND DUP1 PUSH2 0x87E JUMPI PUSH1 0x7F DUP3 AND SWAP2 POP JUMPDEST PUSH1 0x20 DUP3 LT DUP2 EQ ISZERO PUSH2 0x892 JUMPI PUSH2 0x891 PUSH2 0x941 JUMP JUMPDEST JUMPDEST POP SWAP2 SWAP1 POP JUMP JUMPDEST PUSH2 0x8A1 DUP3 PUSH2 0x9B3 JUMP JUMPDEST DUP2 ADD DUP2 DUP2 LT PUSH8 0xFFFFFFFFFFFFFFFF DUP3 GT OR ISZERO PUSH2 0x8C0 JUMPI PUSH2 0x8BF PUSH2 0x970 JUMP JUMPDEST JUMPDEST DUP1 PUSH1 0x40 MSTORE POP POP POP JUMP JUMPDEST PUSH1 0x0 PUSH2 0x8D4 DUP3 PUSH2 0x81A JUMP JUMPDEST SWAP2 POP PUSH32 0xFFFFFFFFFFFFFFFFFFFFFFFFFFFFFFFFFFFFFFFFFFFFFFFFFFFFFFFFFFFFFFFF DUP3 EQ ISZERO PUSH2 0x907 JUMPI PUSH2 0x906 PUSH2 0x912 JUMP JUMPDEST JUMPDEST PUSH1 0x1 DUP3 ADD SWAP1 POP SWAP2 SWAP1 POP JUMP JUMPDEST PUSH32 0x4E487B7100000000000000000000000000000000000000000000000000000000 PUSH1 0x0 MSTORE PUSH1 0x11 PUSH1 0x4 MSTORE PUSH1 0x24 PUSH1 0x0 REVERT JUMPDEST PUSH32 0x4E487B7100000000000000000000000000000000000000000000000000000000 PUSH1 0x0 MSTORE PUSH1 0x22 PUSH1 0x4 MSTORE PUSH1 0x24 PUSH1 0x0 REVERT JUMPDEST PUSH32 0x4E487B7100000000000000000000000000000000000000000000000000000000 PUSH1 0x0 MSTORE PUSH1 0x41 PUSH1 0x4 MSTORE PUSH1 0x24 PUSH1 0x0 REVERT JUMPDEST PUSH1 0x0 DUP1 REVERT JUMPDEST PUSH1 0x0 DUP1 REVERT JUMPDEST PUSH1 0x0 DUP1 REVERT JUMPDEST PUSH1 0x0 DUP1 REVERT JUMPDEST PUSH1 0x0 PUSH1 0x1F NOT PUSH1 0x1F DUP4 ADD AND SWAP1 POP SWAP2 SWAP1 POP JUMP JUMPDEST PUSH2 0x9CD DUP2 PUSH2 0x7E8 JUMP JUMPDEST DUP2 EQ PUSH2 0x9D8 JUMPI PUSH1 0x0 DUP1 REVERT JUMPDEST POP JUMP JUMPDEST PUSH2 0x9E4 DUP2 PUSH2 0x81A JUMP JUMPDEST DUP2 EQ PUSH2 0x9EF JUMPI PUSH1 0x0 DUP1 REVERT JUMPDEST POP JUMP INVALID LOG2 PUSH5 0x6970667358 0x22 SLT KECCAK256 0xD8 0xAE SWAP7 JUMPDEST 0xAD PUSH21 0x28CB1E84F798F0032F097083C3EB58FBD25E9EDAB5 0xAF SLOAD 0xDB CREATE2 RETURNDATASIZE PUSH5 0x736F6C6343 STOP ADDMOD SMOD STOP CALLER "
				},
				"gasEstimates": {
					"creation": {
						"codeDepositCost": "520000",
						"executionCost": "556",
						"totalCost": "520556"
					},
					"external": {
						"balances(address)": "2806",
						"currentBalance()": "383",
						"getPayments(address,uint256)": "infinite",
						"pay(string)": "infinite"
					}
				},
				"methodIdentifiers": {
					"balances(address)": "27e235e3",
					"currentBalance()": "ce845d1d",
					"getPayments(address,uint256)": "28f2d6cd",
					"pay(string)": "2b66d72e"
				}
			},
			"storageLayout": {
				"storage": [
					{
						"astId": 23,
						"contract": "Users/ivan/solidity/testing/contracts/Payments.sol:Payments",
						"label": "balances",
						"offset": 0,
						"slot": "0",
						"type": "t_mapping(t_address,t_struct(Balance)18_storage)"
					}
				],
				"types": {
					"t_address": {
						"encoding": "inplace",
						"label": "address",
						"numberOfBytes": "20"
					},
					"t_mapping(t_address,t_struct(Balance)18_storage)": {
						"encoding": "mapping",
						"key": "t_address",
						"label": "mapping(address => struct Payments.Balance)",
						"numberOfBytes": "32",
						"value": "t_struct(Balance)18_storage"
					},
					"t_mapping(t_uint256,t_struct(Payment)10_storage)": {
						"encoding": "mapping",
						"key": "t_uint256",
						"label": "mapping(uint256 => struct Payments.Payment)",
						"numberOfBytes": "32",
						"value": "t_struct(Payment)10_storage"
					},
					"t_string_storage": {
						"encoding": "bytes",
						"label": "string",
						"numberOfBytes": "32"
					},
					"t_struct(Balance)18_storage": {
						"encoding": "inplace",
						"label": "struct Payments.Balance",
						"members": [
							{
								"astId": 12,
								"contract": "Users/ivan/solidity/testing/contracts/Payments.sol:Payments",
								"label": "totalPayments",
								"offset": 0,
								"slot": "0",
								"type": "t_uint256"
							},
							{
								"astId": 17,
								"contract": "Users/ivan/solidity/testing/contracts/Payments.sol:Payments",
								"label": "payments",
								"offset": 0,
								"slot": "1",
								"type": "t_mapping(t_uint256,t_struct(Payment)10_storage)"
							}
						],
						"numberOfBytes": "64"
					},
					"t_struct(Payment)10_storage": {
						"encoding": "inplace",
						"label": "struct Payments.Payment",
						"members": [
							{
								"astId": 3,
								"contract": "Users/ivan/solidity/testing/contracts/Payments.sol:Payments",
								"label": "amount",
								"offset": 0,
								"slot": "0",
								"type": "t_uint256"
							},
							{
								"astId": 5,
								"contract": "Users/ivan/solidity/testing/contracts/Payments.sol:Payments",
								"label": "timestamp",
								"offset": 0,
								"slot": "1",
								"type": "t_uint256"
							},
							{
								"astId": 7,
								"contract": "Users/ivan/solidity/testing/contracts/Payments.sol:Payments",
								"label": "from",
								"offset": 0,
								"slot": "2",
								"type": "t_address"
							},
							{
								"astId": 9,
								"contract": "Users/ivan/solidity/testing/contracts/Payments.sol:Payments",
								"label": "message",
								"offset": 0,
								"slot": "3",
								"type": "t_string_storage"
							}
						],
						"numberOfBytes": "128"
					},
					"t_uint256": {
						"encoding": "inplace",
						"label": "uint256",
						"numberOfBytes": "32"
					}
				}
			},
			"userdoc": {
				"kind": "user",
				"methods": {},
				"version": 1
			}
		}
	}
}