{
  "_format": "hh-sol-artifact-1",
  "contractName": "Tree",
  "sourceName": "contracts/Tree.sol",
  "abi": [
    {
      "inputs": [],
      "stateMutability": "nonpayable",
      "type": "constructor"
    },
    {
      "inputs": [
        {
          "internalType": "string",
          "name": "input",
          "type": "string"
        }
      ],
      "name": "encode",
      "outputs": [
        {
          "internalType": "bytes",
          "name": "",
          "type": "bytes"
        }
      ],
      "stateMutability": "pure",
      "type": "function"
    },
    {
      "inputs": [
        {
          "internalType": "uint256",
          "name": "",
          "type": "uint256"
        }
      ],
      "name": "hashes",
      "outputs": [
        {
          "internalType": "bytes32",
          "name": "",
          "type": "bytes32"
        }
      ],
      "stateMutability": "view",
      "type": "function"
    },
    {
      "inputs": [
        {
          "internalType": "string",
          "name": "input",
          "type": "string"
        }
      ],
      "name": "makeHash",
      "outputs": [
        {
          "internalType": "bytes32",
          "name": "",
          "type": "bytes32"
        }
      ],
      "stateMutability": "pure",
      "type": "function"
    },
    {
      "inputs": [
        {
          "internalType": "string",
          "name": "transaction",
          "type": "string"
        },
        {
          "internalType": "uint256",
          "name": "index",
          "type": "uint256"
        },
        {
          "internalType": "bytes32",
          "name": "root",
          "type": "bytes32"
        },
        {
          "internalType": "bytes32[]",
          "name": "proof",
          "type": "bytes32[]"
        }
      ],
      "name": "verify",
      "outputs": [
        {
          "internalType": "bool",
          "name": "",
          "type": "bool"
        }
      ],
      "stateMutability": "pure",
      "type": "function"
    }
  ],
  "bytecode": "0x608060405260405180608001604052806040518060400160405280600381526020017f545831000000000000000000000000000000000000000000000000000000000081525081526020016040518060400160405280600381526020017f545832000000000000000000000000000000000000000000000000000000000081525081526020016040518060400160405280600381526020017f545833000000000000000000000000000000000000000000000000000000000081525081526020016040518060400160405280600381526020017f545834000000000000000000000000000000000000000000000000000000000081525081525060019060046200010b9291906200039b565b503480156200011957600080fd5b5060005b60048110156200021e576000620001e26001836004811062000144576200014362000513565b5b018054620001529062000571565b80601f0160208091040260200160405190810160405280929190818152602001828054620001809062000571565b8015620001d15780601f10620001a557610100808354040283529160200191620001d1565b820191906000526020600020905b815481529060010190602001808311620001b357829003601f168201915b50505050506200034f60201b60201c565b908060018154018082558091505060019003906000526020600020016000909190919091505580806200021590620005e0565b9150506200011d565b5060006004905060005b6000821115620003475760005b6001836200024491906200062e565b8110156200031f5760008082846200025d919062000669565b8154811062000271576200027062000513565b5b90600052602060002001546000600184866200028e919062000669565b6200029a919062000669565b81548110620002ae57620002ad62000513565b5b9060005260206000200154604051602001620002cc929190620006f5565b60405160208183030381529060405280519060200120908060018154018082558091505060019003906000526020600020016000909190919091505560028162000317919062000669565b905062000235565b5081816200032e919062000669565b90506002826200033f919062000754565b915062000228565b505062000828565b600062000362826200037060201b60201c565b805190602001209050919050565b6060816040516020016200038591906200080f565b6040516020818303038152906040529050919050565b8260048101928215620003e2579160200282015b82811115620003e1578251829080519060200190620003d0929190620003f5565b5091602001919060010190620003af565b5b509050620003f1919062000486565b5090565b828054620004039062000571565b90600052602060002090601f01602090048101928262000427576000855562000473565b82601f106200044257805160ff191683800117855562000473565b8280016001018555821562000473579182015b828111156200047257825182559160200191906001019062000455565b5b509050620004829190620004ae565b5090565b5b80821115620004aa5760008181620004a09190620004cd565b5060010162000487565b5090565b5b80821115620004c9576000816000905550600101620004af565b5090565b508054620004db9062000571565b6000825580601f10620004ef575062000510565b601f0160209004906000526020600020908101906200050f9190620004ae565b5b50565b7f4e487b7100000000000000000000000000000000000000000000000000000000600052603260045260246000fd5b7f4e487b7100000000000000000000000000000000000000000000000000000000600052602260045260246000fd5b600060028204905060018216806200058a57607f821691505b60208210811415620005a157620005a062000542565b5b50919050565b7f4e487b7100000000000000000000000000000000000000000000000000000000600052601160045260246000fd5b6000819050919050565b6000620005ed82620005d6565b91507fffffffffffffffffffffffffffffffffffffffffffffffffffffffffffffffff821415620006235762000622620005a7565b5b600182019050919050565b60006200063b82620005d6565b91506200064883620005d6565b9250828210156200065e576200065d620005a7565b5b828203905092915050565b60006200067682620005d6565b91506200068383620005d6565b9250827fffffffffffffffffffffffffffffffffffffffffffffffffffffffffffffffff03821115620006bb57620006ba620005a7565b5b828201905092915050565b6000819050919050565b6000819050919050565b620006ef620006e982620006c6565b620006d0565b82525050565b6000620007038285620006da565b602082019150620007158284620006da565b6020820191508190509392505050565b7f4e487b7100000000000000000000000000000000000000000000000000000000600052601260045260246000fd5b60006200076182620005d6565b91506200076e83620005d6565b92508262000781576200078062000725565b5b828204905092915050565b600081519050919050565b600081905092915050565b60005b83811015620007c2578082015181840152602081019050620007a5565b83811115620007d2576000848401525b50505050565b6000620007e5826200078c565b620007f1818562000797565b935062000803818560208601620007a2565b80840191505092915050565b60006200081d8284620007d8565b915081905092915050565b61091980620008386000396000f3fe608060405234801561001057600080fd5b506004361061004c5760003560e01c80632637cccf14610051578063501895ae1461008157806352de70af146100b15780636a11b2a8146100e1575b600080fd5b61006b600480360381019061006691906104e1565b610111565b604051610078919061059b565b60405180910390f35b61009b600480360381019061009691906105b6565b6101ed565b6040516100a891906105f2565b60405180910390f35b6100cb60048036038101906100c6919061060d565b610211565b6040516100d891906105f2565b60405180910390f35b6100fb60048036038101906100f6919061060d565b61022a565b60405161010891906106de565b60405180910390f35b60008061011d86610211565b905060005b83518110156101de5760008482815181106101405761013f610700565b5b602002602001015190506000600288610159919061075e565b141561018f5782816040516020016101729291906107b0565b6040516020818303038152906040528051906020012092506101bb565b80836040516020016101a29291906107b0565b6040516020818303038152906040528051906020012092505b6002876101c8919061080b565b96505080806101d69061083c565b915050610122565b50838114915050949350505050565b600081815481106101fd57600080fd5b906000526020600020016000915090505481565b600061021c8261022a565b805190602001209050919050565b60608160405160200161023d91906108cc565b6040516020818303038152906040529050919050565b6000604051905090565b600080fd5b600080fd5b600080fd5b600080fd5b6000601f19601f8301169050919050565b7f4e487b7100000000000000000000000000000000000000000000000000000000600052604160045260246000fd5b6102ba82610271565b810181811067ffffffffffffffff821117156102d9576102d8610282565b5b80604052505050565b60006102ec610253565b90506102f882826102b1565b919050565b600067ffffffffffffffff82111561031857610317610282565b5b61032182610271565b9050602081019050919050565b82818337600083830152505050565b600061035061034b846102fd565b6102e2565b90508281526020810184848401111561036c5761036b61026c565b5b61037784828561032e565b509392505050565b600082601f83011261039457610393610267565b5b81356103a484826020860161033d565b91505092915050565b6000819050919050565b6103c0816103ad565b81146103cb57600080fd5b50565b6000813590506103dd816103b7565b92915050565b6000819050919050565b6103f6816103e3565b811461040157600080fd5b50565b600081359050610413816103ed565b92915050565b600067ffffffffffffffff82111561043457610433610282565b5b602082029050602081019050919050565b600080fd5b600061045d61045884610419565b6102e2565b905080838252602082019050602084028301858111156104805761047f610445565b5b835b818110156104a957806104958882610404565b845260208401935050602081019050610482565b5050509392505050565b600082601f8301126104c8576104c7610267565b5b81356104d884826020860161044a565b91505092915050565b600080600080608085870312156104fb576104fa61025d565b5b600085013567ffffffffffffffff81111561051957610518610262565b5b6105258782880161037f565b9450506020610536878288016103ce565b935050604061054787828801610404565b925050606085013567ffffffffffffffff81111561056857610567610262565b5b610574878288016104b3565b91505092959194509250565b60008115159050919050565b61059581610580565b82525050565b60006020820190506105b0600083018461058c565b92915050565b6000602082840312156105cc576105cb61025d565b5b60006105da848285016103ce565b91505092915050565b6105ec816103e3565b82525050565b600060208201905061060760008301846105e3565b92915050565b6000602082840312156106235761062261025d565b5b600082013567ffffffffffffffff81111561064157610640610262565b5b61064d8482850161037f565b91505092915050565b600081519050919050565b600082825260208201905092915050565b60005b83811015610690578082015181840152602081019050610675565b8381111561069f576000848401525b50505050565b60006106b082610656565b6106ba8185610661565b93506106ca818560208601610672565b6106d381610271565b840191505092915050565b600060208201905081810360008301526106f881846106a5565b905092915050565b7f4e487b7100000000000000000000000000000000000000000000000000000000600052603260045260246000fd5b7f4e487b7100000000000000000000000000000000000000000000000000000000600052601260045260246000fd5b6000610769826103ad565b9150610774836103ad565b9250826107845761078361072f565b5b828206905092915050565b6000819050919050565b6107aa6107a5826103e3565b61078f565b82525050565b60006107bc8285610799565b6020820191506107cc8284610799565b6020820191508190509392505050565b7f4e487b7100000000000000000000000000000000000000000000000000000000600052601160045260246000fd5b6000610816826103ad565b9150610821836103ad565b9250826108315761083061072f565b5b828204905092915050565b6000610847826103ad565b91507fffffffffffffffffffffffffffffffffffffffffffffffffffffffffffffffff82141561087a576108796107dc565b5b600182019050919050565b600081519050919050565b600081905092915050565b60006108a682610885565b6108b08185610890565b93506108c0818560208601610672565b80840191505092915050565b60006108d8828461089b565b91508190509291505056fea26469706673582212204cf1503093868a542a55864702ec1e8e778edaad38f69d531686b4a61fda4f2464736f6c63430008090033",
  "linkReferences": {},
  "deployedLinkReferences": {}
}